{
  "_format": "hh-sol-artifact-1",
  "contractName": "CCIPSender",
  "sourceName": "contracts/sender/CCIPSender.sol",
  "abi": [
    {
      "inputs": [
        {
          "internalType": "address",
          "name": "_linkToken",
          "type": "address"
        },
        {
          "internalType": "address",
          "name": "_ccipRouter",
          "type": "address"
        },
        {
          "internalType": "address",
          "name": "_usdcToken",
          "type": "address"
        },
        {
          "internalType": "address",
          "name": "oracle",
          "type": "address"
        }
      ],
      "stateMutability": "nonpayable",
      "type": "constructor"
    },
    {
      "inputs": [],
      "name": "OnlyRouterCanFulfill",
      "type": "error"
    },
    {
      "inputs": [],
      "name": "ReentrancyGuardReentrantCall",
      "type": "error"
    },
    {
      "anonymous": false,
      "inputs": [
        {
          "indexed": false,
          "internalType": "string",
          "name": "project",
          "type": "string"
        },
        {
          "indexed": false,
          "internalType": "string",
          "name": "chain",
          "type": "string"
        },
        {
          "indexed": false,
          "internalType": "uint256",
          "name": "apy",
          "type": "uint256"
        },
        {
          "indexed": false,
          "internalType": "string",
          "name": "symbol",
          "type": "string"
        },
        {
          "indexed": false,
          "internalType": "string",
          "name": "poolAddress",
          "type": "string"
        }
      ],
      "name": "BestYieldUpdated",
      "type": "event"
    },
    {
      "anonymous": false,
      "inputs": [
        {
          "indexed": true,
          "internalType": "bytes32",
          "name": "messageId",
          "type": "bytes32"
        },
        {
          "indexed": true,
          "internalType": "uint64",
          "name": "destinationChainSelector",
          "type": "uint64"
        },
        {
          "indexed": true,
          "internalType": "address",
          "name": "user",
          "type": "address"
        },
        {
          "indexed": false,
          "internalType": "address",
          "name": "receiver",
          "type": "address"
        },
        {
          "indexed": false,
          "internalType": "uint256",
          "name": "amount",
          "type": "uint256"
        },
        {
          "indexed": false,
          "internalType": "address",
          "name": "token",
          "type": "address"
        },
        {
          "indexed": false,
          "internalType": "uint256",
          "name": "fees",
          "type": "uint256"
        },
        {
          "indexed": false,
          "internalType": "string",
          "name": "preferredStrategy",
          "type": "string"
        }
      ],
      "name": "CrossChainSent",
      "type": "event"
    },
    {
      "anonymous": false,
      "inputs": [
        {
          "indexed": true,
          "internalType": "address",
          "name": "user",
          "type": "address"
        },
        {
          "indexed": false,
          "internalType": "uint256",
          "name": "amount",
          "type": "uint256"
        }
      ],
      "name": "Deposited",
      "type": "event"
    },
    {
      "anonymous": false,
      "inputs": [
        {
          "indexed": false,
          "internalType": "string",
          "name": "reason",
          "type": "string"
        }
      ],
      "name": "FulfillFailed",
      "type": "event"
    },
    {
      "anonymous": false,
      "inputs": [
        {
          "indexed": true,
          "internalType": "bytes32",
          "name": "id",
          "type": "bytes32"
        }
      ],
      "name": "RequestFulfilled",
      "type": "event"
    },
    {
      "anonymous": false,
      "inputs": [
        {
          "indexed": true,
          "internalType": "bytes32",
          "name": "id",
          "type": "bytes32"
        }
      ],
      "name": "RequestSent",
      "type": "event"
    },
    {
      "anonymous": false,
      "inputs": [
        {
          "indexed": false,
          "internalType": "bytes",
          "name": "response",
          "type": "bytes"
        }
      ],
      "name": "ResponseRaw",
      "type": "event"
    },
    {
      "inputs": [
        {
          "internalType": "address",
          "name": "receiver",
          "type": "address"
        },
        {
          "internalType": "uint64",
          "name": "destinationChainSelector",
          "type": "uint64"
        },
        {
          "internalType": "uint256",
          "name": "amount",
          "type": "uint256"
        },
        {
          "internalType": "string",
          "name": "preferredStrategy",
          "type": "string"
        }
      ],
      "name": "_ccipSendToken",
      "outputs": [
        {
          "internalType": "bytes32",
          "name": "messageId",
          "type": "bytes32"
        }
      ],
      "stateMutability": "nonpayable",
      "type": "function"
    },
    {
      "inputs": [],
      "name": "bestYield",
      "outputs": [
        {
          "internalType": "string",
          "name": "project",
          "type": "string"
        },
        {
          "internalType": "string",
          "name": "chain",
          "type": "string"
        },
        {
          "internalType": "string",
          "name": "symbol",
          "type": "string"
        },
        {
          "internalType": "string",
          "name": "poolAddress",
          "type": "string"
        },
        {
          "internalType": "uint256",
          "name": "apy",
          "type": "uint256"
        }
      ],
      "stateMutability": "view",
      "type": "function"
    },
    {
      "inputs": [],
      "name": "ccipRouter",
      "outputs": [
        {
          "internalType": "contract IRouterClient",
          "name": "",
          "type": "address"
        }
      ],
      "stateMutability": "view",
      "type": "function"
    },
    {
      "inputs": [
        {
          "internalType": "bytes",
          "name": "response",
          "type": "bytes"
        }
      ],
      "name": "decodeYield",
      "outputs": [
        {
          "components": [
            {
              "internalType": "string",
              "name": "project",
              "type": "string"
            },
            {
              "internalType": "string",
              "name": "chain",
              "type": "string"
            },
            {
              "internalType": "string",
              "name": "symbol",
              "type": "string"
            },
            {
              "internalType": "string",
              "name": "poolAddress",
              "type": "string"
            },
            {
              "internalType": "uint256",
              "name": "apy",
              "type": "uint256"
            }
          ],
          "internalType": "struct CCIPSender.YieldData",
          "name": "",
          "type": "tuple"
        }
      ],
      "stateMutability": "pure",
      "type": "function"
    },
    {
      "inputs": [
        {
          "internalType": "uint256",
          "name": "amount",
          "type": "uint256"
        }
      ],
      "name": "deposit",
      "outputs": [],
      "stateMutability": "nonpayable",
      "type": "function"
    },
    {
      "inputs": [],
      "name": "getUserBalance",
      "outputs": [
        {
          "components": [
            {
              "internalType": "address",
              "name": "user",
              "type": "address"
            },
            {
              "internalType": "bool",
              "name": "isRegistered",
              "type": "bool"
            },
            {
              "internalType": "uint256",
              "name": "balance",
              "type": "uint256"
            }
          ],
          "internalType": "struct CCIPSender.User[]",
          "name": "",
          "type": "tuple[]"
        }
      ],
      "stateMutability": "view",
      "type": "function"
    },
    {
      "inputs": [
        {
          "internalType": "bytes32",
          "name": "requestId",
          "type": "bytes32"
        },
        {
          "internalType": "bytes",
          "name": "response",
          "type": "bytes"
        },
        {
          "internalType": "bytes",
          "name": "err",
          "type": "bytes"
        }
      ],
      "name": "handleOracleFulfillment",
      "outputs": [],
      "stateMutability": "nonpayable",
      "type": "function"
    },
    {
      "inputs": [
        {
          "internalType": "address",
          "name": "",
          "type": "address"
        }
      ],
      "name": "isRegistered",
      "outputs": [
        {
          "internalType": "bool",
          "name": "",
          "type": "bool"
        }
      ],
      "stateMutability": "view",
      "type": "function"
    },
    {
      "inputs": [],
      "name": "lastRequestId",
      "outputs": [
        {
          "internalType": "bytes32",
          "name": "",
          "type": "bytes32"
        }
      ],
      "stateMutability": "view",
      "type": "function"
    },
    {
      "inputs": [],
      "name": "linkToken",
      "outputs": [
        {
          "internalType": "contract LinkTokenInterface",
          "name": "",
          "type": "address"
        }
      ],
      "stateMutability": "view",
      "type": "function"
    },
    {
      "inputs": [],
      "name": "registerUser",
      "outputs": [],
      "stateMutability": "nonpayable",
      "type": "function"
    },
    {
      "inputs": [
        {
          "internalType": "bytes",
          "name": "encodedResult",
          "type": "bytes"
        }
      ],
      "name": "updateBestYield",
      "outputs": [],
      "stateMutability": "nonpayable",
      "type": "function"
    },
    {
      "inputs": [],
      "name": "usdcToken",
      "outputs": [
        {
          "internalType": "contract IERC20",
          "name": "",
          "type": "address"
        }
      ],
      "stateMutability": "view",
      "type": "function"
    },
    {
      "inputs": [
        {
          "internalType": "address",
          "name": "",
          "type": "address"
        }
      ],
      "name": "userBalances",
      "outputs": [
        {
          "internalType": "uint256",
          "name": "",
          "type": "uint256"
        }
      ],
      "stateMutability": "view",
      "type": "function"
    },
    {
      "inputs": [
        {
          "internalType": "uint256",
          "name": "",
          "type": "uint256"
        }
      ],
      "name": "users",
      "outputs": [
        {
          "internalType": "address",
          "name": "user",
          "type": "address"
        },
        {
          "internalType": "bool",
          "name": "isRegistered",
          "type": "bool"
        },
        {
          "internalType": "uint256",
          "name": "balance",
          "type": "uint256"
        }
      ],
      "stateMutability": "view",
      "type": "function"
    }
  ],
  "bytecode": "0x61010060405234801561001157600080fd5b506040516131de3803806131de83398181016040528101906100339190610179565b8060016000819055508073ffffffffffffffffffffffffffffffffffffffff1660808173ffffffffffffffffffffffffffffffffffffffff1681525050508373ffffffffffffffffffffffffffffffffffffffff1660c08173ffffffffffffffffffffffffffffffffffffffff16815250508273ffffffffffffffffffffffffffffffffffffffff1660a08173ffffffffffffffffffffffffffffffffffffffff16815250508173ffffffffffffffffffffffffffffffffffffffff1660e08173ffffffffffffffffffffffffffffffffffffffff1681525050505050506101e0565b600080fd5b600073ffffffffffffffffffffffffffffffffffffffff82169050919050565b60006101468261011b565b9050919050565b6101568161013b565b811461016157600080fd5b50565b6000815190506101738161014d565b92915050565b6000806000806080858703121561019357610192610116565b5b60006101a187828801610164565b94505060206101b287828801610164565b93505060406101c387828801610164565b92505060606101d487828801610164565b91505092959194509250565b60805160a05160c05160e051612f86610258600039600081816103ea01528181610a23015261108a01526000818161088b01528181610aea01528181610be601528181610cc10152610efa0152600081816103c601528181610b4701528181610cfd0152610dbe015260006103040152612f866000f3fe608060405234801561001057600080fd5b50600436106100f55760003560e01c806357970e9311610097578063b6b55f2511610066578063b6b55f251461027a578063b7013dc114610296578063c3c5a547146102b4578063fc2a88c3146102e4576100f5565b806357970e93146101e0578063722cee10146101fe578063966273051461022e578063b62072141461024a576100f5565b80631c4a76c6116100d35780631c4a76c61461015257806326224c6414610174578063365b98b2146101a45780634d3820eb146101d6576100f5565b80630ca76175146100fa5780630de229841461011657806311eac85514610134575b600080fd5b610114600480360381019061010f91906118d3565b610302565b005b61011e6103c4565b60405161012b91906119dd565b60405180910390f35b61013c6103e8565b6040516101499190611a19565b60405180910390f35b61015a61040c565b60405161016b959493929190611acc565b60405180910390f35b61018e60048036038101906101899190611b79565b610650565b60405161019b9190611ba6565b60405180910390f35b6101be60048036038101906101b99190611bed565b610668565b6040516101cd93929190611c44565b60405180910390f35b6101de6106cf565b005b6101e8610889565b6040516101f59190611c9c565b60405180910390f35b61021860048036038101906102139190611d57565b6108ad565b6040516102259190611dee565b60405180910390f35b61024860048036038101906102439190611e09565b610f43565b005b610264600480360381019061025f9190611e09565b61101a565b6040516102719190611f36565b60405180910390f35b610294600480360381019061028f9190611bed565b61103d565b005b61029e61131a565b6040516102ab9190612067565b60405180910390f35b6102ce60048036038101906102c99190611b79565b6113f4565b6040516102db9190612089565b60405180910390f35b6102ec611414565b6040516102f99190611dee565b60405180910390f35b7f000000000000000000000000000000000000000000000000000000000000000073ffffffffffffffffffffffffffffffffffffffff163373ffffffffffffffffffffffffffffffffffffffff1614610387576040517fc6829f8300000000000000000000000000000000000000000000000000000000815260040160405180910390fd5b61039283838361141a565b827f85e1543bf2f84fe80c6badbce3648c8539ad1df4d2b3d822938ca0538be727e660405160405180910390a2505050565b7f000000000000000000000000000000000000000000000000000000000000000081565b7f000000000000000000000000000000000000000000000000000000000000000081565b600180600001805461041d906120d3565b80601f0160208091040260200160405190810160405280929190818152602001828054610449906120d3565b80156104965780601f1061046b57610100808354040283529160200191610496565b820191906000526020600020905b81548152906001019060200180831161047957829003601f168201915b5050505050908060010180546104ab906120d3565b80601f01602080910402602001604051908101604052809291908181526020018280546104d7906120d3565b80156105245780601f106104f957610100808354040283529160200191610524565b820191906000526020600020905b81548152906001019060200180831161050757829003601f168201915b505050505090806002018054610539906120d3565b80601f0160208091040260200160405190810160405280929190818152602001828054610565906120d3565b80156105b25780601f10610587576101008083540402835291602001916105b2565b820191906000526020600020905b81548152906001019060200180831161059557829003601f168201915b5050505050908060030180546105c7906120d3565b80601f01602080910402602001604051908101604052809291908181526020018280546105f3906120d3565b80156106405780601f1061061557610100808354040283529160200191610640565b820191906000526020600020905b81548152906001019060200180831161062357829003601f168201915b5050505050908060040154905085565b60086020528060005260406000206000915090505481565b6007818154811061067857600080fd5b90600052602060002090600202016000915090508060000160009054906101000a900473ffffffffffffffffffffffffffffffffffffffff16908060000160149054906101000a900460ff16908060010154905083565b600960003373ffffffffffffffffffffffffffffffffffffffff1673ffffffffffffffffffffffffffffffffffffffff16815260200190815260200160002060009054906101000a900460ff161561075c576040517f08c379a000000000000000000000000000000000000000000000000000000000815260040161075390612150565b60405180910390fd5b600760405180606001604052803373ffffffffffffffffffffffffffffffffffffffff1681526020016001151581526020016000815250908060018154018082558091505060019003906000526020600020906002020160009091909190915060008201518160000160006101000a81548173ffffffffffffffffffffffffffffffffffffffff021916908373ffffffffffffffffffffffffffffffffffffffff16021790555060208201518160000160146101000a81548160ff0219169083151502179055506040820151816001015550506001600960003373ffffffffffffffffffffffffffffffffffffffff1673ffffffffffffffffffffffffffffffffffffffff16815260200190815260200160002060006101000a81548160ff021916908315150217905550565b7f000000000000000000000000000000000000000000000000000000000000000081565b600083600860003373ffffffffffffffffffffffffffffffffffffffff1673ffffffffffffffffffffffffffffffffffffffff168152602001908152602001600020541015610931576040517f08c379a0000000000000000000000000000000000000000000000000000000008152600401610928906121bc565b60405180910390fd5b600960003373ffffffffffffffffffffffffffffffffffffffff1673ffffffffffffffffffffffffffffffffffffffff16815260200190815260200160002060009054906101000a900460ff166109bd576040517f08c379a00000000000000000000000000000000000000000000000000000000081526004016109b490612228565b60405180910390fd5b6000600167ffffffffffffffff8111156109da576109d96117a8565b5b604051908082528060200260200182016040528015610a1357816020015b610a006116e4565b8152602001906001900390816109f85790505b50905060405180604001604052807f000000000000000000000000000000000000000000000000000000000000000073ffffffffffffffffffffffffffffffffffffffff1681526020018681525081600081518110610a7557610a74612248565b5b6020026020010181905250600033868686604051602001610a9994939291906122a4565b604051602081830303815290604052905060006040518060a001604052808a604051602001610ac891906122e4565b60405160208183030381529060405281526020018381526020018481526020017f000000000000000000000000000000000000000000000000000000000000000073ffffffffffffffffffffffffffffffffffffffff168152602001610b3e60405180602001604052806207a120815250611615565b815250905060007f000000000000000000000000000000000000000000000000000000000000000073ffffffffffffffffffffffffffffffffffffffff166320487ded8a846040518363ffffffff1660e01b8152600401610ba09291906124cc565b602060405180830381865afa158015610bbd573d6000803e3d6000fd5b505050506040513d601f19601f82011682018060405250810190610be19190612511565b9050807f000000000000000000000000000000000000000000000000000000000000000073ffffffffffffffffffffffffffffffffffffffff166370a08231306040518263ffffffff1660e01b8152600401610c3d91906122e4565b602060405180830381865afa158015610c5a573d6000803e3d6000fd5b505050506040513d601f19601f82011682018060405250810190610c7e9190612511565b1015610cbf576040517f08c379a0000000000000000000000000000000000000000000000000000000008152600401610cb69061258a565b60405180910390fd5b7f000000000000000000000000000000000000000000000000000000000000000073ffffffffffffffffffffffffffffffffffffffff1663095ea7b37f0000000000000000000000000000000000000000000000000000000000000000836040518363ffffffff1660e01b8152600401610d3a9291906125aa565b6020604051808303816000875af1158015610d59573d6000803e3d6000fd5b505050506040513d601f19601f82011682018060405250810190610d7d91906125ff565b610dbc576040517f08c379a0000000000000000000000000000000000000000000000000000000008152600401610db390612678565b60405180910390fd5b7f000000000000000000000000000000000000000000000000000000000000000073ffffffffffffffffffffffffffffffffffffffff166396f4e9f98a846040518363ffffffff1660e01b8152600401610e179291906124cc565b6020604051808303816000875af1158015610e36573d6000803e3d6000fd5b505050506040513d601f19601f82011682018060405250810190610e5a91906126ad565b945087600860003373ffffffffffffffffffffffffffffffffffffffff1673ffffffffffffffffffffffffffffffffffffffff1681526020019081526020016000206000828254610eab9190612709565b925050819055503373ffffffffffffffffffffffffffffffffffffffff168967ffffffffffffffff16867fa604749b54572bada560788913f85fc833b3dab5c52562b68b16dd2ceff4d2218d8c7f0000000000000000000000000000000000000000000000000000000000000000878e8e604051610f2e9695949392919061273d565b60405180910390a45050505095945050505050565b600081806020019051810190610f599190612940565b90508060016000820151816000019081610f739190612b2b565b506020820151816001019081610f899190612b2b565b506040820151816002019081610f9f9190612b2b565b506060820151816003019081610fb59190612b2b565b50608082015181600401559050507f73f4b0a22239eb8986fd770d90ee9d6923ed8cf684123ce1e526217c0f9ffe9d8160000151826020015183608001518460400151856060015160405161100e959493929190612bfd565b60405180910390a15050565b611022611714565b818060200190518101906110369190612940565b9050919050565b611045611694565b60008111611088576040517f08c379a000000000000000000000000000000000000000000000000000000000815260040161107f90612cde565b60405180910390fd5b7f000000000000000000000000000000000000000000000000000000000000000073ffffffffffffffffffffffffffffffffffffffff166323b872dd3330846040518463ffffffff1660e01b81526004016110e593929190612cfe565b6020604051808303816000875af1158015611104573d6000803e3d6000fd5b505050506040513d601f19601f8201168201806040525081019061112891906125ff565b611167576040517f08c379a000000000000000000000000000000000000000000000000000000000815260040161115e90612d81565b60405180910390fd5b80600860003373ffffffffffffffffffffffffffffffffffffffff1673ffffffffffffffffffffffffffffffffffffffff16815260200190815260200160002060008282546111b69190612da1565b9250508190555060005b6007805490508110156112c0573373ffffffffffffffffffffffffffffffffffffffff16600782815481106111f8576111f7612248565b5b906000526020600020906002020160000160009054906101000a900473ffffffffffffffffffffffffffffffffffffffff1673ffffffffffffffffffffffffffffffffffffffff16036112b357600860003373ffffffffffffffffffffffffffffffffffffffff1673ffffffffffffffffffffffffffffffffffffffff168152602001908152602001600020546007828154811061129957611298612248565b5b9060005260206000209060020201600101819055506112c0565b80806001019150506111c0565b503373ffffffffffffffffffffffffffffffffffffffff167f2da466a7b24304f47e87fa2e1e5a81b9831ce54fec19055ce277ca2f39ba42c4826040516113079190611ba6565b60405180910390a26113176116da565b50565b60606007805480602002602001604051908101604052809291908181526020016000905b828210156113eb57838290600052602060002090600202016040518060600160405290816000820160009054906101000a900473ffffffffffffffffffffffffffffffffffffffff1673ffffffffffffffffffffffffffffffffffffffff1673ffffffffffffffffffffffffffffffffffffffff1681526020016000820160149054906101000a900460ff161515151581526020016001820154815250508152602001906001019061133e565b50505050905090565b60096020528060005260406000206000915054906101000a900460ff1681565b60065481565b7ff6beaea7d7fb7eba875baa4a71d7675d65c60d71f652ab7d2f3eb4da08a68b90826040516114499190612e1f565b60405180910390a1600081511115611495577f6037b916fc71ff5c87f0f234428eae758be459fdcf0bca357f169274cb51c52e60405161148890612e8d565b60405180910390a1611610565b3073ffffffffffffffffffffffffffffffffffffffff1663b6207214836040518263ffffffff1660e01b81526004016114ce9190612e1f565b600060405180830381865afa92505050801561150d57506040513d6000823e3d601f19601f8201168201806040525081019061150a9190612940565b60015b61154b577f6037b916fc71ff5c87f0f234428eae758be459fdcf0bca357f169274cb51c52e60405161153e90612ef9565b60405180910390a161160f565b80600160008201518160000190816115639190612b2b565b5060208201518160010190816115799190612b2b565b50604082015181600201908161158f9190612b2b565b5060608201518160030190816115a59190612b2b565b5060808201518160040155905050836006819055507f73f4b0a22239eb8986fd770d90ee9d6923ed8cf684123ce1e526217c0f9ffe9d81600001518260200151836080015184604001518560600151604051611605959493929190612bfd565b60405180910390a1505b5b505050565b60606397a657c960e01b826040516024016116309190612f35565b604051602081830303815290604052907bffffffffffffffffffffffffffffffffffffffffffffffffffffffff19166020820180517bffffffffffffffffffffffffffffffffffffffffffffffffffffffff83818316178352505050509050919050565b6002600054036116d0576040517f3ee5aeb500000000000000000000000000000000000000000000000000000000815260040160405180910390fd5b6002600081905550565b6001600081905550565b6040518060400160405280600073ffffffffffffffffffffffffffffffffffffffff168152602001600081525090565b6040518060a0016040528060608152602001606081526020016060815260200160608152602001600081525090565b6000604051905090565b600080fd5b600080fd5b6000819050919050565b61176a81611757565b811461177557600080fd5b50565b60008135905061178781611761565b92915050565b600080fd5b600080fd5b6000601f19601f8301169050919050565b7f4e487b7100000000000000000000000000000000000000000000000000000000600052604160045260246000fd5b6117e082611797565b810181811067ffffffffffffffff821117156117ff576117fe6117a8565b5b80604052505050565b6000611812611743565b905061181e82826117d7565b919050565b600067ffffffffffffffff82111561183e5761183d6117a8565b5b61184782611797565b9050602081019050919050565b82818337600083830152505050565b600061187661187184611823565b611808565b90508281526020810184848401111561189257611891611792565b5b61189d848285611854565b509392505050565b600082601f8301126118ba576118b961178d565b5b81356118ca848260208601611863565b91505092915050565b6000806000606084860312156118ec576118eb61174d565b5b60006118fa86828701611778565b935050602084013567ffffffffffffffff81111561191b5761191a611752565b5b611927868287016118a5565b925050604084013567ffffffffffffffff81111561194857611947611752565b5b611954868287016118a5565b9150509250925092565b600073ffffffffffffffffffffffffffffffffffffffff82169050919050565b6000819050919050565b60006119a361199e6119998461195e565b61197e565b61195e565b9050919050565b60006119b582611988565b9050919050565b60006119c7826119aa565b9050919050565b6119d7816119bc565b82525050565b60006020820190506119f260008301846119ce565b92915050565b6000611a03826119aa565b9050919050565b611a13816119f8565b82525050565b6000602082019050611a2e6000830184611a0a565b92915050565b600081519050919050565b600082825260208201905092915050565b60005b83811015611a6e578082015181840152602081019050611a53565b60008484015250505050565b6000611a8582611a34565b611a8f8185611a3f565b9350611a9f818560208601611a50565b611aa881611797565b840191505092915050565b6000819050919050565b611ac681611ab3565b82525050565b600060a0820190508181036000830152611ae68188611a7a565b90508181036020830152611afa8187611a7a565b90508181036040830152611b0e8186611a7a565b90508181036060830152611b228185611a7a565b9050611b316080830184611abd565b9695505050505050565b6000611b468261195e565b9050919050565b611b5681611b3b565b8114611b6157600080fd5b50565b600081359050611b7381611b4d565b92915050565b600060208284031215611b8f57611b8e61174d565b5b6000611b9d84828501611b64565b91505092915050565b6000602082019050611bbb6000830184611abd565b92915050565b611bca81611ab3565b8114611bd557600080fd5b50565b600081359050611be781611bc1565b92915050565b600060208284031215611c0357611c0261174d565b5b6000611c1184828501611bd8565b91505092915050565b611c2381611b3b565b82525050565b60008115159050919050565b611c3e81611c29565b82525050565b6000606082019050611c596000830186611c1a565b611c666020830185611c35565b611c736040830184611abd565b949350505050565b6000611c86826119aa565b9050919050565b611c9681611c7b565b82525050565b6000602082019050611cb16000830184611c8d565b92915050565b600067ffffffffffffffff82169050919050565b611cd481611cb7565b8114611cdf57600080fd5b50565b600081359050611cf181611ccb565b92915050565b600080fd5b600080fd5b60008083601f840112611d1757611d1661178d565b5b8235905067ffffffffffffffff811115611d3457611d33611cf7565b5b602083019150836001820283011115611d5057611d4f611cfc565b5b9250929050565b600080600080600060808688031215611d7357611d7261174d565b5b6000611d8188828901611b64565b9550506020611d9288828901611ce2565b9450506040611da388828901611bd8565b935050606086013567ffffffffffffffff811115611dc457611dc3611752565b5b611dd088828901611d01565b92509250509295509295909350565b611de881611757565b82525050565b6000602082019050611e036000830184611ddf565b92915050565b600060208284031215611e1f57611e1e61174d565b5b600082013567ffffffffffffffff811115611e3d57611e3c611752565b5b611e49848285016118a5565b91505092915050565b600082825260208201905092915050565b6000611e6e82611a34565b611e788185611e52565b9350611e88818560208601611a50565b611e9181611797565b840191505092915050565b611ea581611ab3565b82525050565b600060a0830160008301518482036000860152611ec88282611e63565b91505060208301518482036020860152611ee28282611e63565b91505060408301518482036040860152611efc8282611e63565b91505060608301518482036060860152611f168282611e63565b9150506080830151611f2b6080860182611e9c565b508091505092915050565b60006020820190508181036000830152611f508184611eab565b905092915050565b600081519050919050565b600082825260208201905092915050565b6000819050602082019050919050565b611f8d81611b3b565b82525050565b611f9c81611c29565b82525050565b606082016000820151611fb86000850182611f84565b506020820151611fcb6020850182611f93565b506040820151611fde6040850182611e9c565b50505050565b6000611ff08383611fa2565b60608301905092915050565b6000602082019050919050565b600061201482611f58565b61201e8185611f63565b935061202983611f74565b8060005b8381101561205a5781516120418882611fe4565b975061204c83611ffc565b92505060018101905061202d565b5085935050505092915050565b600060208201905081810360008301526120818184612009565b905092915050565b600060208201905061209e6000830184611c35565b92915050565b7f4e487b7100000000000000000000000000000000000000000000000000000000600052602260045260246000fd5b600060028204905060018216806120eb57607f821691505b6020821081036120fe576120fd6120a4565b5b50919050565b7f5573657220526567697374657265640000000000000000000000000000000000600082015250565b600061213a600f83611a3f565b915061214582612104565b602082019050919050565b600060208201905081810360008301526121698161212d565b9050919050565b7f496e73756666696369656e742062616c616e6365000000000000000000000000600082015250565b60006121a6601483611a3f565b91506121b182612170565b602082019050919050565b600060208201905081810360008301526121d581612199565b9050919050565b7f55736572206e6f74207265676973746572656400000000000000000000000000600082015250565b6000612212601383611a3f565b915061221d826121dc565b602082019050919050565b6000602082019050818103600083015261224181612205565b9050919050565b7f4e487b7100000000000000000000000000000000000000000000000000000000600052603260045260246000fd5b60006122838385611a3f565b9350612290838584611854565b61229983611797565b840190509392505050565b60006060820190506122b96000830187611c1a565b6122c66020830186611abd565b81810360408301526122d9818486612277565b905095945050505050565b60006020820190506122f96000830184611c1a565b92915050565b61230881611cb7565b82525050565b600081519050919050565b600082825260208201905092915050565b60006123358261230e565b61233f8185612319565b935061234f818560208601611a50565b61235881611797565b840191505092915050565b600081519050919050565b600082825260208201905092915050565b6000819050602082019050919050565b6040820160008201516123a56000850182611f84565b5060208201516123b86020850182611e9c565b50505050565b60006123ca838361238f565b60408301905092915050565b6000602082019050919050565b60006123ee82612363565b6123f8818561236e565b93506124038361237f565b8060005b8381101561243457815161241b88826123be565b9750612426836123d6565b925050600181019050612407565b5085935050505092915050565b600060a083016000830151848203600086015261245e828261232a565b91505060208301518482036020860152612478828261232a565b9150506040830151848203604086015261249282826123e3565b91505060608301516124a76060860182611f84565b50608083015184820360808601526124bf828261232a565b9150508091505092915050565b60006040820190506124e160008301856122ff565b81810360208301526124f38184612441565b90509392505050565b60008151905061250b81611bc1565b92915050565b6000602082840312156125275761252661174d565b5b6000612535848285016124fc565b91505092915050565b7f4e6f7420656e6f756768204c494e4b20746f2070617920434349502066656500600082015250565b6000612574601f83611a3f565b915061257f8261253e565b602082019050919050565b600060208201905081810360008301526125a381612567565b9050919050565b60006040820190506125bf6000830185611c1a565b6125cc6020830184611abd565b9392505050565b6125dc81611c29565b81146125e757600080fd5b50565b6000815190506125f9816125d3565b92915050565b6000602082840312156126155761261461174d565b5b6000612623848285016125ea565b91505092915050565b7f4e6f7420417070726f7665640000000000000000000000000000000000000000600082015250565b6000612662600c83611a3f565b915061266d8261262c565b602082019050919050565b6000602082019050818103600083015261269181612655565b9050919050565b6000815190506126a781611761565b92915050565b6000602082840312156126c3576126c261174d565b5b60006126d184828501612698565b91505092915050565b7f4e487b7100000000000000000000000000000000000000000000000000000000600052601160045260246000fd5b600061271482611ab3565b915061271f83611ab3565b9250828203905081811115612737576127366126da565b5b92915050565b600060a0820190506127526000830189611c1a565b61275f6020830188611abd565b61276c6040830187611c1a565b6127796060830186611abd565b818103608083015261278c818486612277565b9050979650505050505050565b600080fd5b600080fd5b600067ffffffffffffffff8211156127be576127bd6117a8565b5b6127c782611797565b9050602081019050919050565b60006127e76127e2846127a3565b611808565b90508281526020810184848401111561280357612802611792565b5b61280e848285611a50565b509392505050565b600082601f83011261282b5761282a61178d565b5b815161283b8482602086016127d4565b91505092915050565b600060a0828403121561285a57612859612799565b5b61286460a0611808565b9050600082015167ffffffffffffffff8111156128845761288361279e565b5b61289084828501612816565b600083015250602082015167ffffffffffffffff8111156128b4576128b361279e565b5b6128c084828501612816565b602083015250604082015167ffffffffffffffff8111156128e4576128e361279e565b5b6128f084828501612816565b604083015250606082015167ffffffffffffffff8111156129145761291361279e565b5b61292084828501612816565b6060830152506080612934848285016124fc565b60808301525092915050565b6000602082840312156129565761295561174d565b5b600082015167ffffffffffffffff81111561297457612973611752565b5b61298084828501612844565b91505092915050565b60008190508160005260206000209050919050565b60006020601f8301049050919050565b600082821b905092915050565b6000600883026129eb7fffffffffffffffffffffffffffffffffffffffffffffffffffffffffffffffff826129ae565b6129f586836129ae565b95508019841693508086168417925050509392505050565b6000612a28612a23612a1e84611ab3565b61197e565b611ab3565b9050919050565b6000819050919050565b612a4283612a0d565b612a56612a4e82612a2f565b8484546129bb565b825550505050565b600090565b612a6b612a5e565b612a76818484612a39565b505050565b5b81811015612a9a57612a8f600082612a63565b600181019050612a7c565b5050565b601f821115612adf57612ab081612989565b612ab98461299e565b81016020851015612ac8578190505b612adc612ad48561299e565b830182612a7b565b50505b505050565b600082821c905092915050565b6000612b0260001984600802612ae4565b1980831691505092915050565b6000612b1b8383612af1565b9150826002028217905092915050565b612b3482611a34565b67ffffffffffffffff811115612b4d57612b4c6117a8565b5b612b5782546120d3565b612b62828285612a9e565b600060209050601f831160018114612b955760008415612b83578287015190505b612b8d8582612b0f565b865550612bf5565b601f198416612ba386612989565b60005b82811015612bcb57848901518255600182019150602085019450602081019050612ba6565b86831015612be85784890151612be4601f891682612af1565b8355505b6001600288020188555050505b505050505050565b600060a0820190508181036000830152612c178188611a7a565b90508181036020830152612c2b8187611a7a565b9050612c3a6040830186611abd565b8181036060830152612c4c8185611a7a565b90508181036080830152612c608184611a7a565b90509695505050505050565b7f4465706f73697420616d6f756e74206d7573742062652067726561746572207460008201527f68616e2030000000000000000000000000000000000000000000000000000000602082015250565b6000612cc8602583611a3f565b9150612cd382612c6c565b604082019050919050565b60006020820190508181036000830152612cf781612cbb565b9050919050565b6000606082019050612d136000830186611c1a565b612d206020830185611c1a565b612d2d6040830184611abd565b949350505050565b7f55534443207472616e73666572206661696c6564000000000000000000000000600082015250565b6000612d6b601483611a3f565b9150612d7682612d35565b602082019050919050565b60006020820190508181036000830152612d9a81612d5e565b9050919050565b6000612dac82611ab3565b9150612db783611ab3565b9250828201905080821115612dcf57612dce6126da565b5b92915050565b600082825260208201905092915050565b6000612df18261230e565b612dfb8185612dd5565b9350612e0b818560208601611a50565b612e1481611797565b840191505092915050565b60006020820190508181036000830152612e398184612de6565b905092915050565b7f436861696e6c696e6b2072657475726e6564206572726f720000000000000000600082015250565b6000612e77601883611a3f565b9150612e8282612e41565b602082019050919050565b60006020820190508181036000830152612ea681612e6a565b9050919050565b7f4465636f64696e67206661696c65640000000000000000000000000000000000600082015250565b6000612ee3600f83611a3f565b9150612eee82612ead565b602082019050919050565b60006020820190508181036000830152612f1281612ed6565b9050919050565b602082016000820151612f2f6000850182611e9c565b50505050565b6000602082019050612f4a6000830184612f19565b9291505056fea264697066735822122041412a968a0157f2c221b72e7a75d44c687a8f1132975f82289f63aa748393f964736f6c634300081c0033",
  "linkReferences": {},
  "deployedLinkReferences": {}
}