{
  "_format": "hh-sol-artifact-1",
  "contractName": "CCIPSender",
  "sourceName": "contracts/sender/AutoCCIPSender.sol",
  "abi": [
    {
      "inputs": [
        {
          "internalType": "address",
          "name": "_linkToken",
          "type": "address"
        },
        {
          "internalType": "address",
          "name": "_ccipRouter",
          "type": "address"
        },
        {
          "internalType": "address",
          "name": "_usdcToken",
          "type": "address"
        },
        {
          "internalType": "address",
          "name": "oracle",
          "type": "address"
        }
      ],
      "stateMutability": "nonpayable",
      "type": "constructor"
    },
    {
      "inputs": [],
      "name": "OnlyRouterCanFulfill",
      "type": "error"
    },
    {
      "inputs": [],
      "name": "ReentrancyGuardReentrantCall",
      "type": "error"
    },
    {
      "anonymous": false,
      "inputs": [
        {
          "indexed": false,
          "internalType": "string",
          "name": "project",
          "type": "string"
        },
        {
          "indexed": false,
          "internalType": "string",
          "name": "chain",
          "type": "string"
        },
        {
          "indexed": false,
          "internalType": "uint256",
          "name": "apy",
          "type": "uint256"
        },
        {
          "indexed": false,
          "internalType": "string",
          "name": "symbol",
          "type": "string"
        },
        {
          "indexed": false,
          "internalType": "string",
          "name": "poolAddress",
          "type": "string"
        }
      ],
      "name": "BestYieldUpdated",
      "type": "event"
    },
    {
      "anonymous": false,
      "inputs": [
        {
          "indexed": true,
          "internalType": "bytes32",
          "name": "messageId",
          "type": "bytes32"
        },
        {
          "indexed": true,
          "internalType": "uint64",
          "name": "destinationChainSelector",
          "type": "uint64"
        },
        {
          "indexed": true,
          "internalType": "address",
          "name": "user",
          "type": "address"
        },
        {
          "indexed": false,
          "internalType": "address",
          "name": "receiver",
          "type": "address"
        },
        {
          "indexed": false,
          "internalType": "uint256",
          "name": "amount",
          "type": "uint256"
        },
        {
          "indexed": false,
          "internalType": "address",
          "name": "token",
          "type": "address"
        },
        {
          "indexed": false,
          "internalType": "uint256",
          "name": "fees",
          "type": "uint256"
        },
        {
          "indexed": false,
          "internalType": "string",
          "name": "preferredStrategy",
          "type": "string"
        }
      ],
      "name": "CrossChainSent",
      "type": "event"
    },
    {
      "anonymous": false,
      "inputs": [
        {
          "indexed": true,
          "internalType": "address",
          "name": "user",
          "type": "address"
        },
        {
          "indexed": false,
          "internalType": "uint256",
          "name": "amount",
          "type": "uint256"
        }
      ],
      "name": "Deposited",
      "type": "event"
    },
    {
      "anonymous": false,
      "inputs": [
        {
          "indexed": false,
          "internalType": "string",
          "name": "reason",
          "type": "string"
        }
      ],
      "name": "FulfillFailed",
      "type": "event"
    },
    {
      "anonymous": false,
      "inputs": [
        {
          "indexed": true,
          "internalType": "bytes32",
          "name": "id",
          "type": "bytes32"
        }
      ],
      "name": "RequestFulfilled",
      "type": "event"
    },
    {
      "anonymous": false,
      "inputs": [
        {
          "indexed": true,
          "internalType": "bytes32",
          "name": "id",
          "type": "bytes32"
        }
      ],
      "name": "RequestSent",
      "type": "event"
    },
    {
      "anonymous": false,
      "inputs": [
        {
          "indexed": false,
          "internalType": "bytes",
          "name": "response",
          "type": "bytes"
        }
      ],
      "name": "ResponseRaw",
      "type": "event"
    },
    {
      "inputs": [
        {
          "internalType": "address",
          "name": "receiver",
          "type": "address"
        },
        {
          "internalType": "uint64",
          "name": "destinationChainSelector",
          "type": "uint64"
        },
        {
          "internalType": "uint256",
          "name": "amount",
          "type": "uint256"
        },
        {
          "internalType": "string",
          "name": "preferredStrategy",
          "type": "string"
        }
      ],
      "name": "_ccipSendToken",
      "outputs": [
        {
          "internalType": "bytes32",
          "name": "messageId",
          "type": "bytes32"
        }
      ],
      "stateMutability": "nonpayable",
      "type": "function"
    },
    {
      "inputs": [],
      "name": "bestYield",
      "outputs": [
        {
          "internalType": "string",
          "name": "project",
          "type": "string"
        },
        {
          "internalType": "string",
          "name": "chain",
          "type": "string"
        },
        {
          "internalType": "string",
          "name": "symbol",
          "type": "string"
        },
        {
          "internalType": "string",
          "name": "poolAddress",
          "type": "string"
        },
        {
          "internalType": "uint256",
          "name": "apy",
          "type": "uint256"
        }
      ],
      "stateMutability": "view",
      "type": "function"
    },
    {
      "inputs": [],
      "name": "ccipRouter",
      "outputs": [
        {
          "internalType": "contract IRouterClient",
          "name": "",
          "type": "address"
        }
      ],
      "stateMutability": "view",
      "type": "function"
    },
    {
      "inputs": [
        {
          "internalType": "bytes",
          "name": "response",
          "type": "bytes"
        }
      ],
      "name": "decodeYield",
      "outputs": [
        {
          "components": [
            {
              "internalType": "string",
              "name": "project",
              "type": "string"
            },
            {
              "internalType": "string",
              "name": "chain",
              "type": "string"
            },
            {
              "internalType": "string",
              "name": "symbol",
              "type": "string"
            },
            {
              "internalType": "string",
              "name": "poolAddress",
              "type": "string"
            },
            {
              "internalType": "uint256",
              "name": "apy",
              "type": "uint256"
            }
          ],
          "internalType": "struct CCIPSender.YieldData",
          "name": "",
          "type": "tuple"
        }
      ],
      "stateMutability": "pure",
      "type": "function"
    },
    {
      "inputs": [
        {
          "internalType": "uint256",
          "name": "amount",
          "type": "uint256"
        }
      ],
      "name": "deposit",
      "outputs": [],
      "stateMutability": "nonpayable",
      "type": "function"
    },
    {
      "inputs": [],
      "name": "getUserBalance",
      "outputs": [
        {
          "components": [
            {
              "internalType": "address",
              "name": "user",
              "type": "address"
            },
            {
              "internalType": "bool",
              "name": "isRegistered",
              "type": "bool"
            },
            {
              "internalType": "uint256",
              "name": "balance",
              "type": "uint256"
            }
          ],
          "internalType": "struct CCIPSender.User[]",
          "name": "",
          "type": "tuple[]"
        }
      ],
      "stateMutability": "view",
      "type": "function"
    },
    {
      "inputs": [
        {
          "internalType": "bytes32",
          "name": "requestId",
          "type": "bytes32"
        },
        {
          "internalType": "bytes",
          "name": "response",
          "type": "bytes"
        },
        {
          "internalType": "bytes",
          "name": "err",
          "type": "bytes"
        }
      ],
      "name": "handleOracleFulfillment",
      "outputs": [],
      "stateMutability": "nonpayable",
      "type": "function"
    },
    {
      "inputs": [],
      "name": "interval",
      "outputs": [
        {
          "internalType": "uint256",
          "name": "",
          "type": "uint256"
        }
      ],
      "stateMutability": "view",
      "type": "function"
    },
    {
      "inputs": [
        {
          "internalType": "address",
          "name": "",
          "type": "address"
        }
      ],
      "name": "isRegistered",
      "outputs": [
        {
          "internalType": "bool",
          "name": "",
          "type": "bool"
        }
      ],
      "stateMutability": "view",
      "type": "function"
    },
    {
      "inputs": [],
      "name": "lastRequestId",
      "outputs": [
        {
          "internalType": "bytes32",
          "name": "",
          "type": "bytes32"
        }
      ],
      "stateMutability": "view",
      "type": "function"
    },
    {
      "inputs": [],
      "name": "lastUpdateTimestamp",
      "outputs": [
        {
          "internalType": "uint256",
          "name": "",
          "type": "uint256"
        }
      ],
      "stateMutability": "view",
      "type": "function"
    },
    {
      "inputs": [],
      "name": "linkToken",
      "outputs": [
        {
          "internalType": "contract LinkTokenInterface",
          "name": "",
          "type": "address"
        }
      ],
      "stateMutability": "view",
      "type": "function"
    },
    {
      "inputs": [],
      "name": "registerUser",
      "outputs": [],
      "stateMutability": "nonpayable",
      "type": "function"
    },
    {
      "inputs": [
        {
          "internalType": "bytes",
          "name": "encodedResult",
          "type": "bytes"
        }
      ],
      "name": "updateBestYield",
      "outputs": [],
      "stateMutability": "nonpayable",
      "type": "function"
    },
    {
      "inputs": [],
      "name": "usdcToken",
      "outputs": [
        {
          "internalType": "contract IERC20",
          "name": "",
          "type": "address"
        }
      ],
      "stateMutability": "view",
      "type": "function"
    },
    {
      "inputs": [
        {
          "internalType": "address",
          "name": "",
          "type": "address"
        }
      ],
      "name": "userBalances",
      "outputs": [
        {
          "internalType": "uint256",
          "name": "",
          "type": "uint256"
        }
      ],
      "stateMutability": "view",
      "type": "function"
    },
    {
      "inputs": [
        {
          "internalType": "uint256",
          "name": "",
          "type": "uint256"
        }
      ],
      "name": "users",
      "outputs": [
        {
          "internalType": "address",
          "name": "user",
          "type": "address"
        },
        {
          "internalType": "bool",
          "name": "isRegistered",
          "type": "bool"
        },
        {
          "internalType": "uint256",
          "name": "balance",
          "type": "uint256"
        }
      ],
      "stateMutability": "view",
      "type": "function"
    }
  ],
  "bytecode": "0x610100604052610e10600b5534801561001757600080fd5b5060405161324938038061324983398181016040528101906100399190610186565b8060016000819055508073ffffffffffffffffffffffffffffffffffffffff1660808173ffffffffffffffffffffffffffffffffffffffff1681525050508373ffffffffffffffffffffffffffffffffffffffff1660c08173ffffffffffffffffffffffffffffffffffffffff16815250508273ffffffffffffffffffffffffffffffffffffffff1660a08173ffffffffffffffffffffffffffffffffffffffff16815250508173ffffffffffffffffffffffffffffffffffffffff1660e08173ffffffffffffffffffffffffffffffffffffffff168152505042600a81905550505050506101ed565b600080fd5b600073ffffffffffffffffffffffffffffffffffffffff82169050919050565b600061015382610128565b9050919050565b61016381610148565b811461016e57600080fd5b50565b6000815190506101808161015a565b92915050565b600080600080608085870312156101a05761019f610123565b5b60006101ae87828801610171565b94505060206101bf87828801610171565b93505060406101d087828801610171565b92505060606101e187828801610171565b91505092959194509250565b60805160a05160c05160e051612fe46102656000396000818161043c01528181610a7b01526110e80152600081816108e301528181610b4201528181610c3e01528181610d190152610f5201526000818161041801528181610b9f01528181610d550152610e16015260006103560152612fe46000f3fe608060405234801561001057600080fd5b506004361061010b5760003560e01c806357970e93116100a2578063b620721411610071578063b62072141461029c578063b6b55f25146102cc578063b7013dc1146102e8578063c3c5a54714610306578063fc2a88c3146103365761010b565b806357970e9314610214578063722cee1014610232578063947a36fb1461026257806396627305146102805761010b565b80631c4a76c6116100de5780631c4a76c61461018657806326224c64146101a8578063365b98b2146101d85780634d3820eb1461020a5761010b565b80630ca76175146101105780630de229841461012c57806311eac8551461014a57806314bcec9f14610168575b600080fd5b61012a60048036038101906101259190611931565b610354565b005b610134610416565b6040516101419190611a3b565b60405180910390f35b61015261043a565b60405161015f9190611a77565b60405180910390f35b61017061045e565b60405161017d9190611aab565b60405180910390f35b61018e610464565b60405161019f959493929190611b45565b60405180910390f35b6101c260048036038101906101bd9190611bf2565b6106a8565b6040516101cf9190611aab565b60405180910390f35b6101f260048036038101906101ed9190611c4b565b6106c0565b60405161020193929190611ca2565b60405180910390f35b610212610727565b005b61021c6108e1565b6040516102299190611cfa565b60405180910390f35b61024c60048036038101906102479190611db5565b610905565b6040516102599190611e4c565b60405180910390f35b61026a610f9b565b6040516102779190611aab565b60405180910390f35b61029a60048036038101906102959190611e67565b610fa1565b005b6102b660048036038101906102b19190611e67565b611078565b6040516102c39190611f94565b60405180910390f35b6102e660048036038101906102e19190611c4b565b61109b565b005b6102f0611378565b6040516102fd91906120c5565b60405180910390f35b610320600480360381019061031b9190611bf2565b611452565b60405161032d91906120e7565b60405180910390f35b61033e611472565b60405161034b9190611e4c565b60405180910390f35b7f000000000000000000000000000000000000000000000000000000000000000073ffffffffffffffffffffffffffffffffffffffff163373ffffffffffffffffffffffffffffffffffffffff16146103d9576040517fc6829f8300000000000000000000000000000000000000000000000000000000815260040160405180910390fd5b6103e4838383611478565b827f85e1543bf2f84fe80c6badbce3648c8539ad1df4d2b3d822938ca0538be727e660405160405180910390a2505050565b7f000000000000000000000000000000000000000000000000000000000000000081565b7f000000000000000000000000000000000000000000000000000000000000000081565b600a5481565b600180600001805461047590612131565b80601f01602080910402602001604051908101604052809291908181526020018280546104a190612131565b80156104ee5780601f106104c3576101008083540402835291602001916104ee565b820191906000526020600020905b8154815290600101906020018083116104d157829003601f168201915b50505050509080600101805461050390612131565b80601f016020809104026020016040519081016040528092919081815260200182805461052f90612131565b801561057c5780601f106105515761010080835404028352916020019161057c565b820191906000526020600020905b81548152906001019060200180831161055f57829003601f168201915b50505050509080600201805461059190612131565b80601f01602080910402602001604051908101604052809291908181526020018280546105bd90612131565b801561060a5780601f106105df5761010080835404028352916020019161060a565b820191906000526020600020905b8154815290600101906020018083116105ed57829003601f168201915b50505050509080600301805461061f90612131565b80601f016020809104026020016040519081016040528092919081815260200182805461064b90612131565b80156106985780601f1061066d57610100808354040283529160200191610698565b820191906000526020600020905b81548152906001019060200180831161067b57829003601f168201915b5050505050908060040154905085565b60086020528060005260406000206000915090505481565b600781815481106106d057600080fd5b90600052602060002090600202016000915090508060000160009054906101000a900473ffffffffffffffffffffffffffffffffffffffff16908060000160149054906101000a900460ff16908060010154905083565b600960003373ffffffffffffffffffffffffffffffffffffffff1673ffffffffffffffffffffffffffffffffffffffff16815260200190815260200160002060009054906101000a900460ff16156107b4576040517f08c379a00000000000000000000000000000000000000000000000000000000081526004016107ab906121ae565b60405180910390fd5b600760405180606001604052803373ffffffffffffffffffffffffffffffffffffffff1681526020016001151581526020016000815250908060018154018082558091505060019003906000526020600020906002020160009091909190915060008201518160000160006101000a81548173ffffffffffffffffffffffffffffffffffffffff021916908373ffffffffffffffffffffffffffffffffffffffff16021790555060208201518160000160146101000a81548160ff0219169083151502179055506040820151816001015550506001600960003373ffffffffffffffffffffffffffffffffffffffff1673ffffffffffffffffffffffffffffffffffffffff16815260200190815260200160002060006101000a81548160ff021916908315150217905550565b7f000000000000000000000000000000000000000000000000000000000000000081565b600083600860003373ffffffffffffffffffffffffffffffffffffffff1673ffffffffffffffffffffffffffffffffffffffff168152602001908152602001600020541015610989576040517f08c379a00000000000000000000000000000000000000000000000000000000081526004016109809061221a565b60405180910390fd5b600960003373ffffffffffffffffffffffffffffffffffffffff1673ffffffffffffffffffffffffffffffffffffffff16815260200190815260200160002060009054906101000a900460ff16610a15576040517f08c379a0000000000000000000000000000000000000000000000000000000008152600401610a0c90612286565b60405180910390fd5b6000600167ffffffffffffffff811115610a3257610a31611806565b5b604051908082528060200260200182016040528015610a6b57816020015b610a58611742565b815260200190600190039081610a505790505b50905060405180604001604052807f000000000000000000000000000000000000000000000000000000000000000073ffffffffffffffffffffffffffffffffffffffff1681526020018681525081600081518110610acd57610acc6122a6565b5b6020026020010181905250600033868686604051602001610af19493929190612302565b604051602081830303815290604052905060006040518060a001604052808a604051602001610b209190612342565b60405160208183030381529060405281526020018381526020018481526020017f000000000000000000000000000000000000000000000000000000000000000073ffffffffffffffffffffffffffffffffffffffff168152602001610b9660405180602001604052806207a120815250611673565b815250905060007f000000000000000000000000000000000000000000000000000000000000000073ffffffffffffffffffffffffffffffffffffffff166320487ded8a846040518363ffffffff1660e01b8152600401610bf892919061252a565b602060405180830381865afa158015610c15573d6000803e3d6000fd5b505050506040513d601f19601f82011682018060405250810190610c39919061256f565b9050807f000000000000000000000000000000000000000000000000000000000000000073ffffffffffffffffffffffffffffffffffffffff166370a08231306040518263ffffffff1660e01b8152600401610c959190612342565b602060405180830381865afa158015610cb2573d6000803e3d6000fd5b505050506040513d601f19601f82011682018060405250810190610cd6919061256f565b1015610d17576040517f08c379a0000000000000000000000000000000000000000000000000000000008152600401610d0e906125e8565b60405180910390fd5b7f000000000000000000000000000000000000000000000000000000000000000073ffffffffffffffffffffffffffffffffffffffff1663095ea7b37f0000000000000000000000000000000000000000000000000000000000000000836040518363ffffffff1660e01b8152600401610d92929190612608565b6020604051808303816000875af1158015610db1573d6000803e3d6000fd5b505050506040513d601f19601f82011682018060405250810190610dd5919061265d565b610e14576040517f08c379a0000000000000000000000000000000000000000000000000000000008152600401610e0b906126d6565b60405180910390fd5b7f000000000000000000000000000000000000000000000000000000000000000073ffffffffffffffffffffffffffffffffffffffff166396f4e9f98a846040518363ffffffff1660e01b8152600401610e6f92919061252a565b6020604051808303816000875af1158015610e8e573d6000803e3d6000fd5b505050506040513d601f19601f82011682018060405250810190610eb2919061270b565b945087600860003373ffffffffffffffffffffffffffffffffffffffff1673ffffffffffffffffffffffffffffffffffffffff1681526020019081526020016000206000828254610f039190612767565b925050819055503373ffffffffffffffffffffffffffffffffffffffff168967ffffffffffffffff16867fa604749b54572bada560788913f85fc833b3dab5c52562b68b16dd2ceff4d2218d8c7f0000000000000000000000000000000000000000000000000000000000000000878e8e604051610f869695949392919061279b565b60405180910390a45050505095945050505050565b600b5481565b600081806020019051810190610fb7919061299e565b90508060016000820151816000019081610fd19190612b89565b506020820151816001019081610fe79190612b89565b506040820151816002019081610ffd9190612b89565b5060608201518160030190816110139190612b89565b50608082015181600401559050507f73f4b0a22239eb8986fd770d90ee9d6923ed8cf684123ce1e526217c0f9ffe9d8160000151826020015183608001518460400151856060015160405161106c959493929190612c5b565b60405180910390a15050565b611080611772565b81806020019051810190611094919061299e565b9050919050565b6110a36116f2565b600081116110e6576040517f08c379a00000000000000000000000000000000000000000000000000000000081526004016110dd90612d3c565b60405180910390fd5b7f000000000000000000000000000000000000000000000000000000000000000073ffffffffffffffffffffffffffffffffffffffff166323b872dd3330846040518463ffffffff1660e01b815260040161114393929190612d5c565b6020604051808303816000875af1158015611162573d6000803e3d6000fd5b505050506040513d601f19601f82011682018060405250810190611186919061265d565b6111c5576040517f08c379a00000000000000000000000000000000000000000000000000000000081526004016111bc90612ddf565b60405180910390fd5b80600860003373ffffffffffffffffffffffffffffffffffffffff1673ffffffffffffffffffffffffffffffffffffffff16815260200190815260200160002060008282546112149190612dff565b9250508190555060005b60078054905081101561131e573373ffffffffffffffffffffffffffffffffffffffff1660078281548110611256576112556122a6565b5b906000526020600020906002020160000160009054906101000a900473ffffffffffffffffffffffffffffffffffffffff1673ffffffffffffffffffffffffffffffffffffffff160361131157600860003373ffffffffffffffffffffffffffffffffffffffff1673ffffffffffffffffffffffffffffffffffffffff16815260200190815260200160002054600782815481106112f7576112f66122a6565b5b90600052602060002090600202016001018190555061131e565b808060010191505061121e565b503373ffffffffffffffffffffffffffffffffffffffff167f2da466a7b24304f47e87fa2e1e5a81b9831ce54fec19055ce277ca2f39ba42c4826040516113659190611aab565b60405180910390a2611375611738565b50565b60606007805480602002602001604051908101604052809291908181526020016000905b8282101561144957838290600052602060002090600202016040518060600160405290816000820160009054906101000a900473ffffffffffffffffffffffffffffffffffffffff1673ffffffffffffffffffffffffffffffffffffffff1673ffffffffffffffffffffffffffffffffffffffff1681526020016000820160149054906101000a900460ff161515151581526020016001820154815250508152602001906001019061139c565b50505050905090565b60096020528060005260406000206000915054906101000a900460ff1681565b60065481565b7ff6beaea7d7fb7eba875baa4a71d7675d65c60d71f652ab7d2f3eb4da08a68b90826040516114a79190612e7d565b60405180910390a16000815111156114f3577f6037b916fc71ff5c87f0f234428eae758be459fdcf0bca357f169274cb51c52e6040516114e690612eeb565b60405180910390a161166e565b3073ffffffffffffffffffffffffffffffffffffffff1663b6207214836040518263ffffffff1660e01b815260040161152c9190612e7d565b600060405180830381865afa92505050801561156b57506040513d6000823e3d601f19601f82011682018060405250810190611568919061299e565b60015b6115a9577f6037b916fc71ff5c87f0f234428eae758be459fdcf0bca357f169274cb51c52e60405161159c90612f57565b60405180910390a161166d565b80600160008201518160000190816115c19190612b89565b5060208201518160010190816115d79190612b89565b5060408201518160020190816115ed9190612b89565b5060608201518160030190816116039190612b89565b5060808201518160040155905050836006819055507f73f4b0a22239eb8986fd770d90ee9d6923ed8cf684123ce1e526217c0f9ffe9d81600001518260200151836080015184604001518560600151604051611663959493929190612c5b565b60405180910390a1505b5b505050565b60606397a657c960e01b8260405160240161168e9190612f93565b604051602081830303815290604052907bffffffffffffffffffffffffffffffffffffffffffffffffffffffff19166020820180517bffffffffffffffffffffffffffffffffffffffffffffffffffffffff83818316178352505050509050919050565b60026000540361172e576040517f3ee5aeb500000000000000000000000000000000000000000000000000000000815260040160405180910390fd5b6002600081905550565b6001600081905550565b6040518060400160405280600073ffffffffffffffffffffffffffffffffffffffff168152602001600081525090565b6040518060a0016040528060608152602001606081526020016060815260200160608152602001600081525090565b6000604051905090565b600080fd5b600080fd5b6000819050919050565b6117c8816117b5565b81146117d357600080fd5b50565b6000813590506117e5816117bf565b92915050565b600080fd5b600080fd5b6000601f19601f8301169050919050565b7f4e487b7100000000000000000000000000000000000000000000000000000000600052604160045260246000fd5b61183e826117f5565b810181811067ffffffffffffffff8211171561185d5761185c611806565b5b80604052505050565b60006118706117a1565b905061187c8282611835565b919050565b600067ffffffffffffffff82111561189c5761189b611806565b5b6118a5826117f5565b9050602081019050919050565b82818337600083830152505050565b60006118d46118cf84611881565b611866565b9050828152602081018484840111156118f0576118ef6117f0565b5b6118fb8482856118b2565b509392505050565b600082601f830112611918576119176117eb565b5b81356119288482602086016118c1565b91505092915050565b60008060006060848603121561194a576119496117ab565b5b6000611958868287016117d6565b935050602084013567ffffffffffffffff811115611979576119786117b0565b5b61198586828701611903565b925050604084013567ffffffffffffffff8111156119a6576119a56117b0565b5b6119b286828701611903565b9150509250925092565b600073ffffffffffffffffffffffffffffffffffffffff82169050919050565b6000819050919050565b6000611a016119fc6119f7846119bc565b6119dc565b6119bc565b9050919050565b6000611a13826119e6565b9050919050565b6000611a2582611a08565b9050919050565b611a3581611a1a565b82525050565b6000602082019050611a506000830184611a2c565b92915050565b6000611a6182611a08565b9050919050565b611a7181611a56565b82525050565b6000602082019050611a8c6000830184611a68565b92915050565b6000819050919050565b611aa581611a92565b82525050565b6000602082019050611ac06000830184611a9c565b92915050565b600081519050919050565b600082825260208201905092915050565b60005b83811015611b00578082015181840152602081019050611ae5565b60008484015250505050565b6000611b1782611ac6565b611b218185611ad1565b9350611b31818560208601611ae2565b611b3a816117f5565b840191505092915050565b600060a0820190508181036000830152611b5f8188611b0c565b90508181036020830152611b738187611b0c565b90508181036040830152611b878186611b0c565b90508181036060830152611b9b8185611b0c565b9050611baa6080830184611a9c565b9695505050505050565b6000611bbf826119bc565b9050919050565b611bcf81611bb4565b8114611bda57600080fd5b50565b600081359050611bec81611bc6565b92915050565b600060208284031215611c0857611c076117ab565b5b6000611c1684828501611bdd565b91505092915050565b611c2881611a92565b8114611c3357600080fd5b50565b600081359050611c4581611c1f565b92915050565b600060208284031215611c6157611c606117ab565b5b6000611c6f84828501611c36565b91505092915050565b611c8181611bb4565b82525050565b60008115159050919050565b611c9c81611c87565b82525050565b6000606082019050611cb76000830186611c78565b611cc46020830185611c93565b611cd16040830184611a9c565b949350505050565b6000611ce482611a08565b9050919050565b611cf481611cd9565b82525050565b6000602082019050611d0f6000830184611ceb565b92915050565b600067ffffffffffffffff82169050919050565b611d3281611d15565b8114611d3d57600080fd5b50565b600081359050611d4f81611d29565b92915050565b600080fd5b600080fd5b60008083601f840112611d7557611d746117eb565b5b8235905067ffffffffffffffff811115611d9257611d91611d55565b5b602083019150836001820283011115611dae57611dad611d5a565b5b9250929050565b600080600080600060808688031215611dd157611dd06117ab565b5b6000611ddf88828901611bdd565b9550506020611df088828901611d40565b9450506040611e0188828901611c36565b935050606086013567ffffffffffffffff811115611e2257611e216117b0565b5b611e2e88828901611d5f565b92509250509295509295909350565b611e46816117b5565b82525050565b6000602082019050611e616000830184611e3d565b92915050565b600060208284031215611e7d57611e7c6117ab565b5b600082013567ffffffffffffffff811115611e9b57611e9a6117b0565b5b611ea784828501611903565b91505092915050565b600082825260208201905092915050565b6000611ecc82611ac6565b611ed68185611eb0565b9350611ee6818560208601611ae2565b611eef816117f5565b840191505092915050565b611f0381611a92565b82525050565b600060a0830160008301518482036000860152611f268282611ec1565b91505060208301518482036020860152611f408282611ec1565b91505060408301518482036040860152611f5a8282611ec1565b91505060608301518482036060860152611f748282611ec1565b9150506080830151611f896080860182611efa565b508091505092915050565b60006020820190508181036000830152611fae8184611f09565b905092915050565b600081519050919050565b600082825260208201905092915050565b6000819050602082019050919050565b611feb81611bb4565b82525050565b611ffa81611c87565b82525050565b6060820160008201516120166000850182611fe2565b5060208201516120296020850182611ff1565b50604082015161203c6040850182611efa565b50505050565b600061204e8383612000565b60608301905092915050565b6000602082019050919050565b600061207282611fb6565b61207c8185611fc1565b935061208783611fd2565b8060005b838110156120b857815161209f8882612042565b97506120aa8361205a565b92505060018101905061208b565b5085935050505092915050565b600060208201905081810360008301526120df8184612067565b905092915050565b60006020820190506120fc6000830184611c93565b92915050565b7f4e487b7100000000000000000000000000000000000000000000000000000000600052602260045260246000fd5b6000600282049050600182168061214957607f821691505b60208210810361215c5761215b612102565b5b50919050565b7f5573657220526567697374657265640000000000000000000000000000000000600082015250565b6000612198600f83611ad1565b91506121a382612162565b602082019050919050565b600060208201905081810360008301526121c78161218b565b9050919050565b7f496e73756666696369656e742062616c616e6365000000000000000000000000600082015250565b6000612204601483611ad1565b915061220f826121ce565b602082019050919050565b60006020820190508181036000830152612233816121f7565b9050919050565b7f55736572206e6f74207265676973746572656400000000000000000000000000600082015250565b6000612270601383611ad1565b915061227b8261223a565b602082019050919050565b6000602082019050818103600083015261229f81612263565b9050919050565b7f4e487b7100000000000000000000000000000000000000000000000000000000600052603260045260246000fd5b60006122e18385611ad1565b93506122ee8385846118b2565b6122f7836117f5565b840190509392505050565b60006060820190506123176000830187611c78565b6123246020830186611a9c565b81810360408301526123378184866122d5565b905095945050505050565b60006020820190506123576000830184611c78565b92915050565b61236681611d15565b82525050565b600081519050919050565b600082825260208201905092915050565b60006123938261236c565b61239d8185612377565b93506123ad818560208601611ae2565b6123b6816117f5565b840191505092915050565b600081519050919050565b600082825260208201905092915050565b6000819050602082019050919050565b6040820160008201516124036000850182611fe2565b5060208201516124166020850182611efa565b50505050565b600061242883836123ed565b60408301905092915050565b6000602082019050919050565b600061244c826123c1565b61245681856123cc565b9350612461836123dd565b8060005b83811015612492578151612479888261241c565b975061248483612434565b925050600181019050612465565b5085935050505092915050565b600060a08301600083015184820360008601526124bc8282612388565b915050602083015184820360208601526124d68282612388565b915050604083015184820360408601526124f08282612441565b91505060608301516125056060860182611fe2565b506080830151848203608086015261251d8282612388565b9150508091505092915050565b600060408201905061253f600083018561235d565b8181036020830152612551818461249f565b90509392505050565b60008151905061256981611c1f565b92915050565b600060208284031215612585576125846117ab565b5b60006125938482850161255a565b91505092915050565b7f4e6f7420656e6f756768204c494e4b20746f2070617920434349502066656500600082015250565b60006125d2601f83611ad1565b91506125dd8261259c565b602082019050919050565b60006020820190508181036000830152612601816125c5565b9050919050565b600060408201905061261d6000830185611c78565b61262a6020830184611a9c565b9392505050565b61263a81611c87565b811461264557600080fd5b50565b60008151905061265781612631565b92915050565b600060208284031215612673576126726117ab565b5b600061268184828501612648565b91505092915050565b7f4e6f7420417070726f7665640000000000000000000000000000000000000000600082015250565b60006126c0600c83611ad1565b91506126cb8261268a565b602082019050919050565b600060208201905081810360008301526126ef816126b3565b9050919050565b600081519050612705816117bf565b92915050565b600060208284031215612721576127206117ab565b5b600061272f848285016126f6565b91505092915050565b7f4e487b7100000000000000000000000000000000000000000000000000000000600052601160045260246000fd5b600061277282611a92565b915061277d83611a92565b925082820390508181111561279557612794612738565b5b92915050565b600060a0820190506127b06000830189611c78565b6127bd6020830188611a9c565b6127ca6040830187611c78565b6127d76060830186611a9c565b81810360808301526127ea8184866122d5565b9050979650505050505050565b600080fd5b600080fd5b600067ffffffffffffffff82111561281c5761281b611806565b5b612825826117f5565b9050602081019050919050565b600061284561284084612801565b611866565b905082815260208101848484011115612861576128606117f0565b5b61286c848285611ae2565b509392505050565b600082601f830112612889576128886117eb565b5b8151612899848260208601612832565b91505092915050565b600060a082840312156128b8576128b76127f7565b5b6128c260a0611866565b9050600082015167ffffffffffffffff8111156128e2576128e16127fc565b5b6128ee84828501612874565b600083015250602082015167ffffffffffffffff811115612912576129116127fc565b5b61291e84828501612874565b602083015250604082015167ffffffffffffffff811115612942576129416127fc565b5b61294e84828501612874565b604083015250606082015167ffffffffffffffff811115612972576129716127fc565b5b61297e84828501612874565b60608301525060806129928482850161255a565b60808301525092915050565b6000602082840312156129b4576129b36117ab565b5b600082015167ffffffffffffffff8111156129d2576129d16117b0565b5b6129de848285016128a2565b91505092915050565b60008190508160005260206000209050919050565b60006020601f8301049050919050565b600082821b905092915050565b600060088302612a497fffffffffffffffffffffffffffffffffffffffffffffffffffffffffffffffff82612a0c565b612a538683612a0c565b95508019841693508086168417925050509392505050565b6000612a86612a81612a7c84611a92565b6119dc565b611a92565b9050919050565b6000819050919050565b612aa083612a6b565b612ab4612aac82612a8d565b848454612a19565b825550505050565b600090565b612ac9612abc565b612ad4818484612a97565b505050565b5b81811015612af857612aed600082612ac1565b600181019050612ada565b5050565b601f821115612b3d57612b0e816129e7565b612b17846129fc565b81016020851015612b26578190505b612b3a612b32856129fc565b830182612ad9565b50505b505050565b600082821c905092915050565b6000612b6060001984600802612b42565b1980831691505092915050565b6000612b798383612b4f565b9150826002028217905092915050565b612b9282611ac6565b67ffffffffffffffff811115612bab57612baa611806565b5b612bb58254612131565b612bc0828285612afc565b600060209050601f831160018114612bf35760008415612be1578287015190505b612beb8582612b6d565b865550612c53565b601f198416612c01866129e7565b60005b82811015612c2957848901518255600182019150602085019450602081019050612c04565b86831015612c465784890151612c42601f891682612b4f565b8355505b6001600288020188555050505b505050505050565b600060a0820190508181036000830152612c758188611b0c565b90508181036020830152612c898187611b0c565b9050612c986040830186611a9c565b8181036060830152612caa8185611b0c565b90508181036080830152612cbe8184611b0c565b90509695505050505050565b7f4465706f73697420616d6f756e74206d7573742062652067726561746572207460008201527f68616e2030000000000000000000000000000000000000000000000000000000602082015250565b6000612d26602583611ad1565b9150612d3182612cca565b604082019050919050565b60006020820190508181036000830152612d5581612d19565b9050919050565b6000606082019050612d716000830186611c78565b612d7e6020830185611c78565b612d8b6040830184611a9c565b949350505050565b7f55534443207472616e73666572206661696c6564000000000000000000000000600082015250565b6000612dc9601483611ad1565b9150612dd482612d93565b602082019050919050565b60006020820190508181036000830152612df881612dbc565b9050919050565b6000612e0a82611a92565b9150612e1583611a92565b9250828201905080821115612e2d57612e2c612738565b5b92915050565b600082825260208201905092915050565b6000612e4f8261236c565b612e598185612e33565b9350612e69818560208601611ae2565b612e72816117f5565b840191505092915050565b60006020820190508181036000830152612e978184612e44565b905092915050565b7f436861696e6c696e6b2072657475726e6564206572726f720000000000000000600082015250565b6000612ed5601883611ad1565b9150612ee082612e9f565b602082019050919050565b60006020820190508181036000830152612f0481612ec8565b9050919050565b7f4465636f64696e67206661696c65640000000000000000000000000000000000600082015250565b6000612f41600f83611ad1565b9150612f4c82612f0b565b602082019050919050565b60006020820190508181036000830152612f7081612f34565b9050919050565b602082016000820151612f8d6000850182611efa565b50505050565b6000602082019050612fa86000830184612f77565b9291505056fea26469706673582212206dcced73068c923e978199dc011afca2a76692ded933fef44a27ac5c8d9fa47f64736f6c634300081c0033",
  "linkReferences": {},
  "deployedLinkReferences": {}
}