{
  "_format": "hh-sol-artifact-1",
  "contractName": "CCIPSender",
  "sourceName": "contracts/sender/CCIPSender.sol",
  "abi": [
    {
      "inputs": [
        {
          "internalType": "address",
          "name": "_linkToken",
          "type": "address"
        },
        {
          "internalType": "address",
          "name": "_ccipRouter",
          "type": "address"
        },
        {
          "internalType": "address",
          "name": "_usdcToken",
          "type": "address"
        },
        {
          "internalType": "address",
          "name": "oracle",
          "type": "address"
        }
      ],
      "stateMutability": "nonpayable",
      "type": "constructor"
    },
    {
      "inputs": [],
      "name": "OnlyRouterCanFulfill",
      "type": "error"
    },
    {
      "inputs": [],
      "name": "ReentrancyGuardReentrantCall",
      "type": "error"
    },
    {
      "anonymous": false,
      "inputs": [
        {
          "indexed": false,
          "internalType": "string",
          "name": "project",
          "type": "string"
        },
        {
          "indexed": false,
          "internalType": "string",
          "name": "chain",
          "type": "string"
        },
        {
          "indexed": false,
          "internalType": "uint256",
          "name": "apy",
          "type": "uint256"
        },
        {
          "indexed": false,
          "internalType": "string",
          "name": "symbol",
          "type": "string"
        },
        {
          "indexed": false,
          "internalType": "string",
          "name": "poolAddress",
          "type": "string"
        }
      ],
      "name": "BestYieldUpdated",
      "type": "event"
    },
    {
      "anonymous": false,
      "inputs": [
        {
          "indexed": true,
          "internalType": "bytes32",
          "name": "messageId",
          "type": "bytes32"
        },
        {
          "indexed": true,
          "internalType": "uint64",
          "name": "destinationChainSelector",
          "type": "uint64"
        },
        {
          "indexed": true,
          "internalType": "address",
          "name": "user",
          "type": "address"
        },
        {
          "indexed": false,
          "internalType": "address",
          "name": "receiver",
          "type": "address"
        },
        {
          "indexed": false,
          "internalType": "uint256",
          "name": "amount",
          "type": "uint256"
        },
        {
          "indexed": false,
          "internalType": "address",
          "name": "token",
          "type": "address"
        },
        {
          "indexed": false,
          "internalType": "uint256",
          "name": "fees",
          "type": "uint256"
        },
        {
          "indexed": false,
          "internalType": "string",
          "name": "preferredStrategy",
          "type": "string"
        }
      ],
      "name": "CrossChainSent",
      "type": "event"
    },
    {
      "anonymous": false,
      "inputs": [
        {
          "indexed": true,
          "internalType": "address",
          "name": "user",
          "type": "address"
        },
        {
          "indexed": false,
          "internalType": "uint256",
          "name": "amount",
          "type": "uint256"
        }
      ],
      "name": "Deposited",
      "type": "event"
    },
    {
      "anonymous": false,
      "inputs": [
        {
          "indexed": true,
          "internalType": "bytes32",
          "name": "id",
          "type": "bytes32"
        }
      ],
      "name": "RequestFulfilled",
      "type": "event"
    },
    {
      "anonymous": false,
      "inputs": [
        {
          "indexed": true,
          "internalType": "bytes32",
          "name": "id",
          "type": "bytes32"
        }
      ],
      "name": "RequestSent",
      "type": "event"
    },
    {
      "inputs": [
        {
          "internalType": "address",
          "name": "receiver",
          "type": "address"
        },
        {
          "internalType": "uint64",
          "name": "destinationChainSelector",
          "type": "uint64"
        },
        {
          "internalType": "uint256",
          "name": "amount",
          "type": "uint256"
        },
        {
          "internalType": "string",
          "name": "preferredStrategy",
          "type": "string"
        }
      ],
      "name": "_ccipSendToken",
      "outputs": [
        {
          "internalType": "bytes32",
          "name": "messageId",
          "type": "bytes32"
        }
      ],
      "stateMutability": "nonpayable",
      "type": "function"
    },
    {
      "inputs": [],
      "name": "bestYield",
      "outputs": [
        {
          "internalType": "string",
          "name": "project",
          "type": "string"
        },
        {
          "internalType": "string",
          "name": "chain",
          "type": "string"
        },
        {
          "internalType": "string",
          "name": "symbol",
          "type": "string"
        },
        {
          "internalType": "string",
          "name": "poolAddress",
          "type": "string"
        },
        {
          "internalType": "uint256",
          "name": "apy",
          "type": "uint256"
        }
      ],
      "stateMutability": "view",
      "type": "function"
    },
    {
      "inputs": [],
      "name": "ccipRouter",
      "outputs": [
        {
          "internalType": "contract IRouterClient",
          "name": "",
          "type": "address"
        }
      ],
      "stateMutability": "view",
      "type": "function"
    },
    {
      "inputs": [
        {
          "internalType": "uint256",
          "name": "amount",
          "type": "uint256"
        }
      ],
      "name": "deposit",
      "outputs": [],
      "stateMutability": "nonpayable",
      "type": "function"
    },
    {
      "inputs": [],
      "name": "getUserBalance",
      "outputs": [
        {
          "components": [
            {
              "internalType": "address",
              "name": "user",
              "type": "address"
            },
            {
              "internalType": "bool",
              "name": "isRegistered",
              "type": "bool"
            },
            {
              "internalType": "uint256",
              "name": "balance",
              "type": "uint256"
            }
          ],
          "internalType": "struct CCIPSender.User[]",
          "name": "",
          "type": "tuple[]"
        }
      ],
      "stateMutability": "view",
      "type": "function"
    },
    {
      "inputs": [
        {
          "internalType": "bytes32",
          "name": "requestId",
          "type": "bytes32"
        },
        {
          "internalType": "bytes",
          "name": "response",
          "type": "bytes"
        },
        {
          "internalType": "bytes",
          "name": "err",
          "type": "bytes"
        }
      ],
      "name": "handleOracleFulfillment",
      "outputs": [],
      "stateMutability": "nonpayable",
      "type": "function"
    },
    {
      "inputs": [
        {
          "internalType": "address",
          "name": "",
          "type": "address"
        }
      ],
      "name": "isRegistered",
      "outputs": [
        {
          "internalType": "bool",
          "name": "",
          "type": "bool"
        }
      ],
      "stateMutability": "view",
      "type": "function"
    },
    {
      "inputs": [],
      "name": "lastRequestId",
      "outputs": [
        {
          "internalType": "bytes32",
          "name": "",
          "type": "bytes32"
        }
      ],
      "stateMutability": "view",
      "type": "function"
    },
    {
      "inputs": [],
      "name": "linkToken",
      "outputs": [
        {
          "internalType": "contract LinkTokenInterface",
          "name": "",
          "type": "address"
        }
      ],
      "stateMutability": "view",
      "type": "function"
    },
    {
      "inputs": [],
      "name": "registerUser",
      "outputs": [],
      "stateMutability": "nonpayable",
      "type": "function"
    },
    {
      "inputs": [
        {
          "internalType": "bytes",
          "name": "encodedRequestData",
          "type": "bytes"
        },
        {
          "internalType": "uint64",
          "name": "subscriptionId",
          "type": "uint64"
        },
        {
          "internalType": "uint32",
          "name": "gasLimit",
          "type": "uint32"
        },
        {
          "internalType": "bytes32",
          "name": "donId",
          "type": "bytes32"
        }
      ],
      "name": "sendRequestToGetBestYield",
      "outputs": [
        {
          "internalType": "bytes32",
          "name": "requestId",
          "type": "bytes32"
        }
      ],
      "stateMutability": "nonpayable",
      "type": "function"
    },
    {
      "inputs": [],
      "name": "usdcToken",
      "outputs": [
        {
          "internalType": "contract IERC20",
          "name": "",
          "type": "address"
        }
      ],
      "stateMutability": "view",
      "type": "function"
    },
    {
      "inputs": [
        {
          "internalType": "address",
          "name": "",
          "type": "address"
        }
      ],
      "name": "userBalances",
      "outputs": [
        {
          "internalType": "uint256",
          "name": "",
          "type": "uint256"
        }
      ],
      "stateMutability": "view",
      "type": "function"
    },
    {
      "inputs": [
        {
          "internalType": "uint256",
          "name": "",
          "type": "uint256"
        }
      ],
      "name": "users",
      "outputs": [
        {
          "internalType": "address",
          "name": "user",
          "type": "address"
        },
        {
          "internalType": "bool",
          "name": "isRegistered",
          "type": "bool"
        },
        {
          "internalType": "uint256",
          "name": "balance",
          "type": "uint256"
        }
      ],
      "stateMutability": "view",
      "type": "function"
    }
  ],
  "bytecode": "0x61010060405234801561001157600080fd5b5060405161303038038061303083398181016040528101906100339190610179565b8060016000819055508073ffffffffffffffffffffffffffffffffffffffff1660808173ffffffffffffffffffffffffffffffffffffffff1681525050508373ffffffffffffffffffffffffffffffffffffffff1660c08173ffffffffffffffffffffffffffffffffffffffff16815250508273ffffffffffffffffffffffffffffffffffffffff1660a08173ffffffffffffffffffffffffffffffffffffffff16815250508173ffffffffffffffffffffffffffffffffffffffff1660e08173ffffffffffffffffffffffffffffffffffffffff1681525050505050506101e0565b600080fd5b600073ffffffffffffffffffffffffffffffffffffffff82169050919050565b60006101468261011b565b9050919050565b6101568161013b565b811461016157600080fd5b50565b6000815190506101738161014d565b92915050565b6000806000806080858703121561019357610192610116565b5b60006101a187828801610164565b94505060206101b287828801610164565b93505060406101c387828801610164565b92505060606101d487828801610164565b91505092959194509250565b60805160a05160c05160e051612dd161025f600039600081816103c3015281816109fc0152610f8101526000818161086401528181610ac301528181610bbf01528181610c9a0152610ed301526000818161039f01528181610b2001528181610cd60152610d970152600081816102dd01526114b90152612dd16000f3fe608060405234801561001057600080fd5b50600436106100ea5760003560e01c806357970e931161008c578063b6b55f2511610066578063b6b55f2514610253578063b7013dc11461026f578063c3c5a5471461028d578063fc2a88c3146102bd576100ea565b806357970e93146101d5578063722cee10146101f3578063b03f5b6314610223576100ea565b80631c4a76c6116100c85780631c4a76c61461014757806326224c6414610169578063365b98b2146101995780634d3820eb146101cb576100ea565b80630ca76175146100ef5780630de229841461010b57806311eac85514610129575b600080fd5b610109600480360381019061010491906117a7565b6102db565b005b61011361039d565b60405161012091906118b1565b60405180910390f35b6101316103c1565b60405161013e91906118ed565b60405180910390f35b61014f6103e5565b6040516101609594939291906119a0565b60405180910390f35b610183600480360381019061017e9190611a4d565b610629565b6040516101909190611a7a565b60405180910390f35b6101b360048036038101906101ae9190611ac1565b610641565b6040516101c293929190611b18565b60405180910390f35b6101d36106a8565b005b6101dd610862565b6040516101ea9190611b70565b60405180910390f35b61020d60048036038101906102089190611c2b565b610886565b60405161021a9190611cc2565b60405180910390f35b61023d60048036038101906102389190611d19565b610f1c565b60405161024a9190611cc2565b60405180910390f35b61026d60048036038101906102689190611ac1565b610f34565b005b610277611211565b6040516102849190611eba565b60405180910390f35b6102a760048036038101906102a29190611a4d565b6112eb565b6040516102b49190611edc565b60405180910390f35b6102c561130b565b6040516102d29190611cc2565b60405180910390f35b7f000000000000000000000000000000000000000000000000000000000000000073ffffffffffffffffffffffffffffffffffffffff163373ffffffffffffffffffffffffffffffffffffffff1614610360576040517fc6829f8300000000000000000000000000000000000000000000000000000000815260040160405180910390fd5b61036b838383611311565b827f85e1543bf2f84fe80c6badbce3648c8539ad1df4d2b3d822938ca0538be727e660405160405180910390a2505050565b7f000000000000000000000000000000000000000000000000000000000000000081565b7f000000000000000000000000000000000000000000000000000000000000000081565b60018060000180546103f690611f26565b80601f016020809104026020016040519081016040528092919081815260200182805461042290611f26565b801561046f5780601f106104445761010080835404028352916020019161046f565b820191906000526020600020905b81548152906001019060200180831161045257829003601f168201915b50505050509080600101805461048490611f26565b80601f01602080910402602001604051908101604052809291908181526020018280546104b090611f26565b80156104fd5780601f106104d2576101008083540402835291602001916104fd565b820191906000526020600020905b8154815290600101906020018083116104e057829003601f168201915b50505050509080600201805461051290611f26565b80601f016020809104026020016040519081016040528092919081815260200182805461053e90611f26565b801561058b5780601f106105605761010080835404028352916020019161058b565b820191906000526020600020905b81548152906001019060200180831161056e57829003601f168201915b5050505050908060030180546105a090611f26565b80601f01602080910402602001604051908101604052809291908181526020018280546105cc90611f26565b80156106195780601f106105ee57610100808354040283529160200191610619565b820191906000526020600020905b8154815290600101906020018083116105fc57829003601f168201915b5050505050908060040154905085565b60086020528060005260406000206000915090505481565b6007818154811061065157600080fd5b90600052602060002090600202016000915090508060000160009054906101000a900473ffffffffffffffffffffffffffffffffffffffff16908060000160149054906101000a900460ff16908060010154905083565b600960003373ffffffffffffffffffffffffffffffffffffffff1673ffffffffffffffffffffffffffffffffffffffff16815260200190815260200160002060009054906101000a900460ff1615610735576040517f08c379a000000000000000000000000000000000000000000000000000000000815260040161072c90611fa3565b60405180910390fd5b600760405180606001604052803373ffffffffffffffffffffffffffffffffffffffff1681526020016001151581526020016000815250908060018154018082558091505060019003906000526020600020906002020160009091909190915060008201518160000160006101000a81548173ffffffffffffffffffffffffffffffffffffffff021916908373ffffffffffffffffffffffffffffffffffffffff16021790555060208201518160000160146101000a81548160ff0219169083151502179055506040820151816001015550506001600960003373ffffffffffffffffffffffffffffffffffffffff1673ffffffffffffffffffffffffffffffffffffffff16815260200190815260200160002060006101000a81548160ff021916908315150217905550565b7f000000000000000000000000000000000000000000000000000000000000000081565b600083600860003373ffffffffffffffffffffffffffffffffffffffff1673ffffffffffffffffffffffffffffffffffffffff16815260200190815260200160002054101561090a576040517f08c379a00000000000000000000000000000000000000000000000000000000081526004016109019061200f565b60405180910390fd5b600960003373ffffffffffffffffffffffffffffffffffffffff1673ffffffffffffffffffffffffffffffffffffffff16815260200190815260200160002060009054906101000a900460ff16610996576040517f08c379a000000000000000000000000000000000000000000000000000000000815260040161098d9061207b565b60405180910390fd5b6000600167ffffffffffffffff8111156109b3576109b261167c565b5b6040519080825280602002602001820160405280156109ec57816020015b6109d96115e7565b8152602001906001900390816109d15790505b50905060405180604001604052807f000000000000000000000000000000000000000000000000000000000000000073ffffffffffffffffffffffffffffffffffffffff1681526020018681525081600081518110610a4e57610a4d61209b565b5b6020026020010181905250600033868686604051602001610a7294939291906120f7565b604051602081830303815290604052905060006040518060a001604052808a604051602001610aa19190612137565b60405160208183030381529060405281526020018381526020018481526020017f000000000000000000000000000000000000000000000000000000000000000073ffffffffffffffffffffffffffffffffffffffff168152602001610b1760405180602001604052806207a120815250611435565b815250905060007f000000000000000000000000000000000000000000000000000000000000000073ffffffffffffffffffffffffffffffffffffffff166320487ded8a846040518363ffffffff1660e01b8152600401610b7992919061231f565b602060405180830381865afa158015610b96573d6000803e3d6000fd5b505050506040513d601f19601f82011682018060405250810190610bba9190612364565b9050807f000000000000000000000000000000000000000000000000000000000000000073ffffffffffffffffffffffffffffffffffffffff166370a08231306040518263ffffffff1660e01b8152600401610c169190612137565b602060405180830381865afa158015610c33573d6000803e3d6000fd5b505050506040513d601f19601f82011682018060405250810190610c579190612364565b1015610c98576040517f08c379a0000000000000000000000000000000000000000000000000000000008152600401610c8f906123dd565b60405180910390fd5b7f000000000000000000000000000000000000000000000000000000000000000073ffffffffffffffffffffffffffffffffffffffff1663095ea7b37f0000000000000000000000000000000000000000000000000000000000000000836040518363ffffffff1660e01b8152600401610d139291906123fd565b6020604051808303816000875af1158015610d32573d6000803e3d6000fd5b505050506040513d601f19601f82011682018060405250810190610d569190612452565b610d95576040517f08c379a0000000000000000000000000000000000000000000000000000000008152600401610d8c906124cb565b60405180910390fd5b7f000000000000000000000000000000000000000000000000000000000000000073ffffffffffffffffffffffffffffffffffffffff166396f4e9f98a846040518363ffffffff1660e01b8152600401610df092919061231f565b6020604051808303816000875af1158015610e0f573d6000803e3d6000fd5b505050506040513d601f19601f82011682018060405250810190610e339190612500565b945087600860003373ffffffffffffffffffffffffffffffffffffffff1673ffffffffffffffffffffffffffffffffffffffff1681526020019081526020016000206000828254610e84919061255c565b925050819055503373ffffffffffffffffffffffffffffffffffffffff168967ffffffffffffffff16867fa604749b54572bada560788913f85fc833b3dab5c52562b68b16dd2ceff4d2218d8c7f0000000000000000000000000000000000000000000000000000000000000000878e8e604051610f0796959493929190612590565b60405180910390a45050505095945050505050565b6000610f2a858585856114b4565b9050949350505050565b610f3c611597565b60008111610f7f576040517f08c379a0000000000000000000000000000000000000000000000000000000008152600401610f769061265e565b60405180910390fd5b7f000000000000000000000000000000000000000000000000000000000000000073ffffffffffffffffffffffffffffffffffffffff166323b872dd3330846040518463ffffffff1660e01b8152600401610fdc9392919061267e565b6020604051808303816000875af1158015610ffb573d6000803e3d6000fd5b505050506040513d601f19601f8201168201806040525081019061101f9190612452565b61105e576040517f08c379a000000000000000000000000000000000000000000000000000000000815260040161105590612701565b60405180910390fd5b80600860003373ffffffffffffffffffffffffffffffffffffffff1673ffffffffffffffffffffffffffffffffffffffff16815260200190815260200160002060008282546110ad9190612721565b9250508190555060005b6007805490508110156111b7573373ffffffffffffffffffffffffffffffffffffffff16600782815481106110ef576110ee61209b565b5b906000526020600020906002020160000160009054906101000a900473ffffffffffffffffffffffffffffffffffffffff1673ffffffffffffffffffffffffffffffffffffffff16036111aa57600860003373ffffffffffffffffffffffffffffffffffffffff1673ffffffffffffffffffffffffffffffffffffffff16815260200190815260200160002054600782815481106111905761118f61209b565b5b9060005260206000209060020201600101819055506111b7565b80806001019150506110b7565b503373ffffffffffffffffffffffffffffffffffffffff167f2da466a7b24304f47e87fa2e1e5a81b9831ce54fec19055ce277ca2f39ba42c4826040516111fe9190611a7a565b60405180910390a261120e6115dd565b50565b60606007805480602002602001604051908101604052809291908181526020016000905b828210156112e257838290600052602060002090600202016040518060600160405290816000820160009054906101000a900473ffffffffffffffffffffffffffffffffffffffff1673ffffffffffffffffffffffffffffffffffffffff1673ffffffffffffffffffffffffffffffffffffffff1681526020016000820160149054906101000a900460ff1615151515815260200160018201548152505081526020019060010190611235565b50505050905090565b60096020528060005260406000206000915054906101000a900460ff1681565b60065481565b6000815114611355576040517f08c379a000000000000000000000000000000000000000000000000000000000815260040161134c906127a1565b60405180910390fd5b60008280602001905181019061136b9190612968565b905080600160008201518160000190816113859190612b53565b50602082015181600101908161139b9190612b53565b5060408201518160020190816113b19190612b53565b5060608201518160030190816113c79190612b53565b5060808201518160040155905050836006819055507f73f4b0a22239eb8986fd770d90ee9d6923ed8cf684123ce1e526217c0f9ffe9d81600001518260200151836080015184604001518560600151604051611427959493929190612c25565b60405180910390a150505050565b60606397a657c960e01b826040516024016114509190612cb0565b604051602081830303815290604052907bffffffffffffffffffffffffffffffffffffffffffffffffffffffff19166020820180517bffffffffffffffffffffffffffffffffffffffffffffffffffffffff83818316178352505050509050919050565b6000807f000000000000000000000000000000000000000000000000000000000000000073ffffffffffffffffffffffffffffffffffffffff1663461d27628688600188886040518663ffffffff1660e01b8152600401611519959493929190612d41565b6020604051808303816000875af1158015611538573d6000803e3d6000fd5b505050506040513d601f19601f8201168201806040525081019061155c9190612500565b9050807f1131472297a800fee664d1d89cfa8f7676ff07189ecc53f80bbb5f4969099db860405160405180910390a280915050949350505050565b6002600054036115d3576040517f3ee5aeb500000000000000000000000000000000000000000000000000000000815260040160405180910390fd5b6002600081905550565b6001600081905550565b6040518060400160405280600073ffffffffffffffffffffffffffffffffffffffff168152602001600081525090565b6000604051905090565b600080fd5b600080fd5b6000819050919050565b61163e8161162b565b811461164957600080fd5b50565b60008135905061165b81611635565b92915050565b600080fd5b600080fd5b6000601f19601f8301169050919050565b7f4e487b7100000000000000000000000000000000000000000000000000000000600052604160045260246000fd5b6116b48261166b565b810181811067ffffffffffffffff821117156116d3576116d261167c565b5b80604052505050565b60006116e6611617565b90506116f282826116ab565b919050565b600067ffffffffffffffff8211156117125761171161167c565b5b61171b8261166b565b9050602081019050919050565b82818337600083830152505050565b600061174a611745846116f7565b6116dc565b90508281526020810184848401111561176657611765611666565b5b611771848285611728565b509392505050565b600082601f83011261178e5761178d611661565b5b813561179e848260208601611737565b91505092915050565b6000806000606084860312156117c0576117bf611621565b5b60006117ce8682870161164c565b935050602084013567ffffffffffffffff8111156117ef576117ee611626565b5b6117fb86828701611779565b925050604084013567ffffffffffffffff81111561181c5761181b611626565b5b61182886828701611779565b9150509250925092565b600073ffffffffffffffffffffffffffffffffffffffff82169050919050565b6000819050919050565b600061187761187261186d84611832565b611852565b611832565b9050919050565b60006118898261185c565b9050919050565b600061189b8261187e565b9050919050565b6118ab81611890565b82525050565b60006020820190506118c660008301846118a2565b92915050565b60006118d78261187e565b9050919050565b6118e7816118cc565b82525050565b600060208201905061190260008301846118de565b92915050565b600081519050919050565b600082825260208201905092915050565b60005b83811015611942578082015181840152602081019050611927565b60008484015250505050565b600061195982611908565b6119638185611913565b9350611973818560208601611924565b61197c8161166b565b840191505092915050565b6000819050919050565b61199a81611987565b82525050565b600060a08201905081810360008301526119ba818861194e565b905081810360208301526119ce818761194e565b905081810360408301526119e2818661194e565b905081810360608301526119f6818561194e565b9050611a056080830184611991565b9695505050505050565b6000611a1a82611832565b9050919050565b611a2a81611a0f565b8114611a3557600080fd5b50565b600081359050611a4781611a21565b92915050565b600060208284031215611a6357611a62611621565b5b6000611a7184828501611a38565b91505092915050565b6000602082019050611a8f6000830184611991565b92915050565b611a9e81611987565b8114611aa957600080fd5b50565b600081359050611abb81611a95565b92915050565b600060208284031215611ad757611ad6611621565b5b6000611ae584828501611aac565b91505092915050565b611af781611a0f565b82525050565b60008115159050919050565b611b1281611afd565b82525050565b6000606082019050611b2d6000830186611aee565b611b3a6020830185611b09565b611b476040830184611991565b949350505050565b6000611b5a8261187e565b9050919050565b611b6a81611b4f565b82525050565b6000602082019050611b856000830184611b61565b92915050565b600067ffffffffffffffff82169050919050565b611ba881611b8b565b8114611bb357600080fd5b50565b600081359050611bc581611b9f565b92915050565b600080fd5b600080fd5b60008083601f840112611beb57611bea611661565b5b8235905067ffffffffffffffff811115611c0857611c07611bcb565b5b602083019150836001820283011115611c2457611c23611bd0565b5b9250929050565b600080600080600060808688031215611c4757611c46611621565b5b6000611c5588828901611a38565b9550506020611c6688828901611bb6565b9450506040611c7788828901611aac565b935050606086013567ffffffffffffffff811115611c9857611c97611626565b5b611ca488828901611bd5565b92509250509295509295909350565b611cbc8161162b565b82525050565b6000602082019050611cd76000830184611cb3565b92915050565b600063ffffffff82169050919050565b611cf681611cdd565b8114611d0157600080fd5b50565b600081359050611d1381611ced565b92915050565b60008060008060808587031215611d3357611d32611621565b5b600085013567ffffffffffffffff811115611d5157611d50611626565b5b611d5d87828801611779565b9450506020611d6e87828801611bb6565b9350506040611d7f87828801611d04565b9250506060611d908782880161164c565b91505092959194509250565b600081519050919050565b600082825260208201905092915050565b6000819050602082019050919050565b611dd181611a0f565b82525050565b611de081611afd565b82525050565b611def81611987565b82525050565b606082016000820151611e0b6000850182611dc8565b506020820151611e1e6020850182611dd7565b506040820151611e316040850182611de6565b50505050565b6000611e438383611df5565b60608301905092915050565b6000602082019050919050565b6000611e6782611d9c565b611e718185611da7565b9350611e7c83611db8565b8060005b83811015611ead578151611e948882611e37565b9750611e9f83611e4f565b925050600181019050611e80565b5085935050505092915050565b60006020820190508181036000830152611ed48184611e5c565b905092915050565b6000602082019050611ef16000830184611b09565b92915050565b7f4e487b7100000000000000000000000000000000000000000000000000000000600052602260045260246000fd5b60006002820490506001821680611f3e57607f821691505b602082108103611f5157611f50611ef7565b5b50919050565b7f5573657220526567697374657265640000000000000000000000000000000000600082015250565b6000611f8d600f83611913565b9150611f9882611f57565b602082019050919050565b60006020820190508181036000830152611fbc81611f80565b9050919050565b7f496e73756666696369656e742062616c616e6365000000000000000000000000600082015250565b6000611ff9601483611913565b915061200482611fc3565b602082019050919050565b6000602082019050818103600083015261202881611fec565b9050919050565b7f55736572206e6f74207265676973746572656400000000000000000000000000600082015250565b6000612065601383611913565b91506120708261202f565b602082019050919050565b6000602082019050818103600083015261209481612058565b9050919050565b7f4e487b7100000000000000000000000000000000000000000000000000000000600052603260045260246000fd5b60006120d68385611913565b93506120e3838584611728565b6120ec8361166b565b840190509392505050565b600060608201905061210c6000830187611aee565b6121196020830186611991565b818103604083015261212c8184866120ca565b905095945050505050565b600060208201905061214c6000830184611aee565b92915050565b61215b81611b8b565b82525050565b600081519050919050565b600082825260208201905092915050565b600061218882612161565b612192818561216c565b93506121a2818560208601611924565b6121ab8161166b565b840191505092915050565b600081519050919050565b600082825260208201905092915050565b6000819050602082019050919050565b6040820160008201516121f86000850182611dc8565b50602082015161220b6020850182611de6565b50505050565b600061221d83836121e2565b60408301905092915050565b6000602082019050919050565b6000612241826121b6565b61224b81856121c1565b9350612256836121d2565b8060005b8381101561228757815161226e8882612211565b975061227983612229565b92505060018101905061225a565b5085935050505092915050565b600060a08301600083015184820360008601526122b1828261217d565b915050602083015184820360208601526122cb828261217d565b915050604083015184820360408601526122e58282612236565b91505060608301516122fa6060860182611dc8565b5060808301518482036080860152612312828261217d565b9150508091505092915050565b60006040820190506123346000830185612152565b81810360208301526123468184612294565b90509392505050565b60008151905061235e81611a95565b92915050565b60006020828403121561237a57612379611621565b5b60006123888482850161234f565b91505092915050565b7f4e6f7420656e6f756768204c494e4b20746f2070617920434349502066656500600082015250565b60006123c7601f83611913565b91506123d282612391565b602082019050919050565b600060208201905081810360008301526123f6816123ba565b9050919050565b60006040820190506124126000830185611aee565b61241f6020830184611991565b9392505050565b61242f81611afd565b811461243a57600080fd5b50565b60008151905061244c81612426565b92915050565b60006020828403121561246857612467611621565b5b60006124768482850161243d565b91505092915050565b7f4e6f7420417070726f7665640000000000000000000000000000000000000000600082015250565b60006124b5600c83611913565b91506124c08261247f565b602082019050919050565b600060208201905081810360008301526124e4816124a8565b9050919050565b6000815190506124fa81611635565b92915050565b60006020828403121561251657612515611621565b5b6000612524848285016124eb565b91505092915050565b7f4e487b7100000000000000000000000000000000000000000000000000000000600052601160045260246000fd5b600061256782611987565b915061257283611987565b925082820390508181111561258a5761258961252d565b5b92915050565b600060a0820190506125a56000830189611aee565b6125b26020830188611991565b6125bf6040830187611aee565b6125cc6060830186611991565b81810360808301526125df8184866120ca565b9050979650505050505050565b7f4465706f73697420616d6f756e74206d7573742062652067726561746572207460008201527f68616e2030000000000000000000000000000000000000000000000000000000602082015250565b6000612648602583611913565b9150612653826125ec565b604082019050919050565b600060208201905081810360008301526126778161263b565b9050919050565b60006060820190506126936000830186611aee565b6126a06020830185611aee565b6126ad6040830184611991565b949350505050565b7f55534443207472616e73666572206661696c6564000000000000000000000000600082015250565b60006126eb601483611913565b91506126f6826126b5565b602082019050919050565b6000602082019050818103600083015261271a816126de565b9050919050565b600061272c82611987565b915061273783611987565b925082820190508082111561274f5761274e61252d565b5b92915050565b7f436861696e6c696e6b2046756e6374696f6e73204572726f7200000000000000600082015250565b600061278b601983611913565b915061279682612755565b602082019050919050565b600060208201905081810360008301526127ba8161277e565b9050919050565b600080fd5b600080fd5b600067ffffffffffffffff8211156127e6576127e561167c565b5b6127ef8261166b565b9050602081019050919050565b600061280f61280a846127cb565b6116dc565b90508281526020810184848401111561282b5761282a611666565b5b612836848285611924565b509392505050565b600082601f83011261285357612852611661565b5b81516128638482602086016127fc565b91505092915050565b600060a08284031215612882576128816127c1565b5b61288c60a06116dc565b9050600082015167ffffffffffffffff8111156128ac576128ab6127c6565b5b6128b88482850161283e565b600083015250602082015167ffffffffffffffff8111156128dc576128db6127c6565b5b6128e88482850161283e565b602083015250604082015167ffffffffffffffff81111561290c5761290b6127c6565b5b6129188482850161283e565b604083015250606082015167ffffffffffffffff81111561293c5761293b6127c6565b5b6129488482850161283e565b606083015250608061295c8482850161234f565b60808301525092915050565b60006020828403121561297e5761297d611621565b5b600082015167ffffffffffffffff81111561299c5761299b611626565b5b6129a88482850161286c565b91505092915050565b60008190508160005260206000209050919050565b60006020601f8301049050919050565b600082821b905092915050565b600060088302612a137fffffffffffffffffffffffffffffffffffffffffffffffffffffffffffffffff826129d6565b612a1d86836129d6565b95508019841693508086168417925050509392505050565b6000612a50612a4b612a4684611987565b611852565b611987565b9050919050565b6000819050919050565b612a6a83612a35565b612a7e612a7682612a57565b8484546129e3565b825550505050565b600090565b612a93612a86565b612a9e818484612a61565b505050565b5b81811015612ac257612ab7600082612a8b565b600181019050612aa4565b5050565b601f821115612b0757612ad8816129b1565b612ae1846129c6565b81016020851015612af0578190505b612b04612afc856129c6565b830182612aa3565b50505b505050565b600082821c905092915050565b6000612b2a60001984600802612b0c565b1980831691505092915050565b6000612b438383612b19565b9150826002028217905092915050565b612b5c82611908565b67ffffffffffffffff811115612b7557612b7461167c565b5b612b7f8254611f26565b612b8a828285612ac6565b600060209050601f831160018114612bbd5760008415612bab578287015190505b612bb58582612b37565b865550612c1d565b601f198416612bcb866129b1565b60005b82811015612bf357848901518255600182019150602085019450602081019050612bce565b86831015612c105784890151612c0c601f891682612b19565b8355505b6001600288020188555050505b505050505050565b600060a0820190508181036000830152612c3f818861194e565b90508181036020830152612c53818761194e565b9050612c626040830186611991565b8181036060830152612c74818561194e565b90508181036080830152612c88818461194e565b90509695505050505050565b602082016000820151612caa6000850182611de6565b50505050565b6000602082019050612cc56000830184612c94565b92915050565b600082825260208201905092915050565b6000612ce782612161565b612cf18185612ccb565b9350612d01818560208601611924565b612d0a8161166b565b840191505092915050565b600061ffff82169050919050565b612d2c81612d15565b82525050565b612d3b81611cdd565b82525050565b600060a082019050612d566000830188612152565b8181036020830152612d688187612cdc565b9050612d776040830186612d23565b612d846060830185612d32565b612d916080830184611cb3565b969550505050505056fea2646970667358221220f88e918f0f225f7b52b3224d50acf5f4f67f54eecdf94a201caae0603704bb6964736f6c634300081c0033",
  "linkReferences": {},
  "deployedLinkReferences": {}
}