{
  "_format": "hh-sol-artifact-1",
  "contractName": "AutoCCIPSender",
  "sourceName": "contracts/sender/CCIPSender.sol",
  "abi": [
    {
      "inputs": [
        {
          "internalType": "address",
          "name": "_linkToken",
          "type": "address"
        },
        {
          "internalType": "address",
          "name": "_ccipRouter",
          "type": "address"
        },
        {
          "internalType": "address",
          "name": "_usdcToken",
          "type": "address"
        },
        {
          "internalType": "address",
          "name": "_oracle",
          "type": "address"
        },
        {
          "internalType": "uint64",
          "name": "_subscriptionId",
          "type": "uint64"
        },
        {
          "internalType": "uint32",
          "name": "_gasLimit",
          "type": "uint32"
        },
        {
          "internalType": "bytes32",
          "name": "_donId",
          "type": "bytes32"
        }
      ],
      "stateMutability": "nonpayable",
      "type": "constructor"
    },
    {
      "inputs": [],
      "name": "EmptySource",
      "type": "error"
    },
    {
      "inputs": [],
      "name": "NoInlineSecrets",
      "type": "error"
    },
    {
      "inputs": [],
      "name": "OnlyRouterCanFulfill",
      "type": "error"
    },
    {
      "inputs": [],
      "name": "ReentrancyGuardReentrantCall",
      "type": "error"
    },
    {
      "anonymous": false,
      "inputs": [
        {
          "indexed": false,
          "internalType": "string",
          "name": "project",
          "type": "string"
        },
        {
          "indexed": false,
          "internalType": "string",
          "name": "chain",
          "type": "string"
        },
        {
          "indexed": false,
          "internalType": "uint256",
          "name": "apy",
          "type": "uint256"
        },
        {
          "indexed": false,
          "internalType": "string",
          "name": "symbol",
          "type": "string"
        },
        {
          "indexed": false,
          "internalType": "string",
          "name": "poolAddress",
          "type": "string"
        }
      ],
      "name": "BestYieldUpdated",
      "type": "event"
    },
    {
      "anonymous": false,
      "inputs": [
        {
          "indexed": true,
          "internalType": "bytes32",
          "name": "messageId",
          "type": "bytes32"
        },
        {
          "indexed": true,
          "internalType": "uint64",
          "name": "destinationChainSelector",
          "type": "uint64"
        },
        {
          "indexed": true,
          "internalType": "address",
          "name": "user",
          "type": "address"
        },
        {
          "indexed": false,
          "internalType": "address",
          "name": "receiver",
          "type": "address"
        },
        {
          "indexed": false,
          "internalType": "uint256",
          "name": "amount",
          "type": "uint256"
        },
        {
          "indexed": false,
          "internalType": "address",
          "name": "token",
          "type": "address"
        },
        {
          "indexed": false,
          "internalType": "uint256",
          "name": "fees",
          "type": "uint256"
        },
        {
          "indexed": false,
          "internalType": "string",
          "name": "preferredStrategy",
          "type": "string"
        }
      ],
      "name": "CrossChainSent",
      "type": "event"
    },
    {
      "anonymous": false,
      "inputs": [
        {
          "indexed": true,
          "internalType": "address",
          "name": "user",
          "type": "address"
        },
        {
          "indexed": false,
          "internalType": "uint256",
          "name": "amount",
          "type": "uint256"
        }
      ],
      "name": "Deposited",
      "type": "event"
    },
    {
      "anonymous": false,
      "inputs": [
        {
          "indexed": false,
          "internalType": "string",
          "name": "reason",
          "type": "string"
        }
      ],
      "name": "FulfillFailed",
      "type": "event"
    },
    {
      "anonymous": false,
      "inputs": [
        {
          "indexed": true,
          "internalType": "bytes32",
          "name": "id",
          "type": "bytes32"
        }
      ],
      "name": "RequestFulfilled",
      "type": "event"
    },
    {
      "anonymous": false,
      "inputs": [
        {
          "indexed": true,
          "internalType": "bytes32",
          "name": "id",
          "type": "bytes32"
        }
      ],
      "name": "RequestSent",
      "type": "event"
    },
    {
      "anonymous": false,
      "inputs": [
        {
          "indexed": false,
          "internalType": "bytes",
          "name": "response",
          "type": "bytes"
        }
      ],
      "name": "ResponseRaw",
      "type": "event"
    },
    {
      "anonymous": false,
      "inputs": [
        {
          "indexed": false,
          "internalType": "bytes32",
          "name": "requestId",
          "type": "bytes32"
        }
      ],
      "name": "requestSent",
      "type": "event"
    },
    {
      "inputs": [
        {
          "internalType": "address",
          "name": "receiver",
          "type": "address"
        },
        {
          "internalType": "uint64",
          "name": "destinationChainSelector",
          "type": "uint64"
        },
        {
          "internalType": "uint256",
          "name": "amount",
          "type": "uint256"
        },
        {
          "internalType": "string",
          "name": "preferredStrategy",
          "type": "string"
        }
      ],
      "name": "_ccipSendToken",
      "outputs": [
        {
          "internalType": "bytes32",
          "name": "messageId",
          "type": "bytes32"
        }
      ],
      "stateMutability": "nonpayable",
      "type": "function"
    },
    {
      "inputs": [],
      "name": "bestYield",
      "outputs": [
        {
          "internalType": "string",
          "name": "project",
          "type": "string"
        },
        {
          "internalType": "string",
          "name": "chain",
          "type": "string"
        },
        {
          "internalType": "string",
          "name": "symbol",
          "type": "string"
        },
        {
          "internalType": "string",
          "name": "poolAddress",
          "type": "string"
        },
        {
          "internalType": "uint256",
          "name": "apy",
          "type": "uint256"
        }
      ],
      "stateMutability": "view",
      "type": "function"
    },
    {
      "inputs": [],
      "name": "ccipRouter",
      "outputs": [
        {
          "internalType": "contract IRouterClient",
          "name": "",
          "type": "address"
        }
      ],
      "stateMutability": "view",
      "type": "function"
    },
    {
      "inputs": [
        {
          "internalType": "bytes",
          "name": "",
          "type": "bytes"
        }
      ],
      "name": "checkUpkeep",
      "outputs": [
        {
          "internalType": "bool",
          "name": "upkeepNeeded",
          "type": "bool"
        },
        {
          "internalType": "bytes",
          "name": "",
          "type": "bytes"
        }
      ],
      "stateMutability": "view",
      "type": "function"
    },
    {
      "inputs": [
        {
          "internalType": "bytes",
          "name": "response",
          "type": "bytes"
        }
      ],
      "name": "decodeYield",
      "outputs": [
        {
          "components": [
            {
              "internalType": "string",
              "name": "project",
              "type": "string"
            },
            {
              "internalType": "string",
              "name": "chain",
              "type": "string"
            },
            {
              "internalType": "string",
              "name": "symbol",
              "type": "string"
            },
            {
              "internalType": "string",
              "name": "poolAddress",
              "type": "string"
            },
            {
              "internalType": "uint256",
              "name": "apy",
              "type": "uint256"
            }
          ],
          "internalType": "struct AutoCCIPSender.YieldData",
          "name": "",
          "type": "tuple"
        }
      ],
      "stateMutability": "pure",
      "type": "function"
    },
    {
      "inputs": [
        {
          "internalType": "uint256",
          "name": "amount",
          "type": "uint256"
        }
      ],
      "name": "deposit",
      "outputs": [],
      "stateMutability": "nonpayable",
      "type": "function"
    },
    {
      "inputs": [],
      "name": "donId",
      "outputs": [
        {
          "internalType": "bytes32",
          "name": "",
          "type": "bytes32"
        }
      ],
      "stateMutability": "view",
      "type": "function"
    },
    {
      "inputs": [],
      "name": "gasLimit",
      "outputs": [
        {
          "internalType": "uint32",
          "name": "",
          "type": "uint32"
        }
      ],
      "stateMutability": "view",
      "type": "function"
    },
    {
      "inputs": [],
      "name": "getUserBalance",
      "outputs": [
        {
          "components": [
            {
              "internalType": "address",
              "name": "user",
              "type": "address"
            },
            {
              "internalType": "bool",
              "name": "isRegistered",
              "type": "bool"
            },
            {
              "internalType": "uint256",
              "name": "balance",
              "type": "uint256"
            }
          ],
          "internalType": "struct AutoCCIPSender.User[]",
          "name": "",
          "type": "tuple[]"
        }
      ],
      "stateMutability": "view",
      "type": "function"
    },
    {
      "inputs": [
        {
          "internalType": "bytes32",
          "name": "requestId",
          "type": "bytes32"
        },
        {
          "internalType": "bytes",
          "name": "response",
          "type": "bytes"
        },
        {
          "internalType": "bytes",
          "name": "err",
          "type": "bytes"
        }
      ],
      "name": "handleOracleFulfillment",
      "outputs": [],
      "stateMutability": "nonpayable",
      "type": "function"
    },
    {
      "inputs": [],
      "name": "interval",
      "outputs": [
        {
          "internalType": "uint256",
          "name": "",
          "type": "uint256"
        }
      ],
      "stateMutability": "view",
      "type": "function"
    },
    {
      "inputs": [
        {
          "internalType": "address",
          "name": "",
          "type": "address"
        }
      ],
      "name": "isRegistered",
      "outputs": [
        {
          "internalType": "bool",
          "name": "",
          "type": "bool"
        }
      ],
      "stateMutability": "view",
      "type": "function"
    },
    {
      "inputs": [],
      "name": "lastRequestId",
      "outputs": [
        {
          "internalType": "bytes32",
          "name": "",
          "type": "bytes32"
        }
      ],
      "stateMutability": "view",
      "type": "function"
    },
    {
      "inputs": [],
      "name": "lastUpdateTimestamp",
      "outputs": [
        {
          "internalType": "uint256",
          "name": "",
          "type": "uint256"
        }
      ],
      "stateMutability": "view",
      "type": "function"
    },
    {
      "inputs": [],
      "name": "linkToken",
      "outputs": [
        {
          "internalType": "contract LinkTokenInterface",
          "name": "",
          "type": "address"
        }
      ],
      "stateMutability": "view",
      "type": "function"
    },
    {
      "inputs": [
        {
          "internalType": "bytes",
          "name": "",
          "type": "bytes"
        }
      ],
      "name": "performUpkeep",
      "outputs": [],
      "stateMutability": "nonpayable",
      "type": "function"
    },
    {
      "inputs": [],
      "name": "registerUser",
      "outputs": [],
      "stateMutability": "nonpayable",
      "type": "function"
    },
    {
      "inputs": [],
      "name": "requestBestYieldUpdate",
      "outputs": [],
      "stateMutability": "nonpayable",
      "type": "function"
    },
    {
      "inputs": [],
      "name": "subscriptionId",
      "outputs": [
        {
          "internalType": "uint64",
          "name": "",
          "type": "uint64"
        }
      ],
      "stateMutability": "view",
      "type": "function"
    },
    {
      "inputs": [],
      "name": "usdcToken",
      "outputs": [
        {
          "internalType": "contract IERC20",
          "name": "",
          "type": "address"
        }
      ],
      "stateMutability": "view",
      "type": "function"
    },
    {
      "inputs": [
        {
          "internalType": "address",
          "name": "",
          "type": "address"
        }
      ],
      "name": "userBalances",
      "outputs": [
        {
          "internalType": "uint256",
          "name": "",
          "type": "uint256"
        }
      ],
      "stateMutability": "view",
      "type": "function"
    },
    {
      "inputs": [
        {
          "internalType": "uint256",
          "name": "",
          "type": "uint256"
        }
      ],
      "name": "users",
      "outputs": [
        {
          "internalType": "address",
          "name": "user",
          "type": "address"
        },
        {
          "internalType": "bool",
          "name": "isRegistered",
          "type": "bool"
        },
        {
          "internalType": "uint256",
          "name": "balance",
          "type": "uint256"
        }
      ],
      "stateMutability": "view",
      "type": "function"
    }
  ],
  "bytecode": "0x61010060405260f0600d5534801561001657600080fd5b50604051614c51380380614c518339818101604052810190610038919061028b565b8360016000819055508073ffffffffffffffffffffffffffffffffffffffff1660808173ffffffffffffffffffffffffffffffffffffffff1681525050508673ffffffffffffffffffffffffffffffffffffffff1660c08173ffffffffffffffffffffffffffffffffffffffff16815250508573ffffffffffffffffffffffffffffffffffffffff1660a08173ffffffffffffffffffffffffffffffffffffffff16815250508473ffffffffffffffffffffffffffffffffffffffff1660e08173ffffffffffffffffffffffffffffffffffffffff168152505082600a60006101000a81548167ffffffffffffffff021916908367ffffffffffffffff16021790555081600a60086101000a81548163ffffffff021916908363ffffffff16021790555080600b8190555042600c819055505050505050505061032d565b600080fd5b600073ffffffffffffffffffffffffffffffffffffffff82169050919050565b60006101a68261017b565b9050919050565b6101b68161019b565b81146101c157600080fd5b50565b6000815190506101d3816101ad565b92915050565b600067ffffffffffffffff82169050919050565b6101f6816101d9565b811461020157600080fd5b50565b600081519050610213816101ed565b92915050565b600063ffffffff82169050919050565b61023281610219565b811461023d57600080fd5b50565b60008151905061024f81610229565b92915050565b6000819050919050565b61026881610255565b811461027357600080fd5b50565b6000815190506102858161025f565b92915050565b600080600080600080600060e0888a0312156102aa576102a9610176565b5b60006102b88a828b016101c4565b97505060206102c98a828b016101c4565b96505060406102da8a828b016101c4565b95505060606102eb8a828b016101c4565b94505060806102fc8a828b01610204565b93505060a061030d8a828b01610240565b92505060c061031e8a828b01610276565b91505092959891949750929550565b60805160a05160c05160e0516148a56103ac6000396000818161052201528181610bf90152611195015260008181610a2d01528181610cc001528181610dbc01528181610e9701526110d00152600081816104fe01528181610d1d01528181610ed30152610f9401526000818161043c0152611ce901526148a56000f3fe608060405234801561001057600080fd5b50600436106101425760003560e01c80636e04ff0d116100b8578063b6b55f251161007c578063b6b55f2514610370578063b7013dc11461038c578063c3c5a547146103aa578063ed14272c146103da578063f68016b7146103e4578063fc2a88c31461040257610142565b80636e04ff0d146102a3578063722cee10146102d45780638dbe7b9d14610304578063947a36fb14610322578063b62072141461034057610142565b80631c4a76c61161010a5780631c4a76c6146101db57806326224c64146101fd578063365b98b21461022d5780634585e33b1461025f5780634d3820eb1461027b57806357970e931461028557610142565b806309c1ba2e146101475780630ca76175146101655780630de229841461018157806311eac8551461019f57806314bcec9f146101bd575b600080fd5b61014f610420565b60405161015c919061251a565b60405180910390f35b61017f600480360381019061017a91906126c5565b61043a565b005b6101896104fc565b60405161019691906127cf565b60405180910390f35b6101a7610520565b6040516101b4919061280b565b60405180910390f35b6101c5610544565b6040516101d2919061283f565b60405180910390f35b6101e361054a565b6040516101f49594939291906128d9565b60405180910390f35b61021760048036038101906102129190612986565b61078e565b604051610224919061283f565b60405180910390f35b610247600480360381019061024291906129df565b6107a6565b60405161025693929190612a36565b60405180910390f35b61027960048036038101906102749190612acd565b61080d565b005b610283610871565b005b61028d610a2b565b60405161029a9190612b3b565b60405180910390f35b6102bd60048036038101906102b89190612acd565b610a4f565b6040516102cb929190612bab565b60405180910390f35b6102ee60048036038101906102e99190612c5d565b610a83565b6040516102fb9190612cf4565b60405180910390f35b61030c611119565b6040516103199190612cf4565b60405180910390f35b61032a61111f565b604051610337919061283f565b60405180910390f35b61035a60048036038101906103559190612d0f565b611125565b6040516103679190612e3c565b60405180910390f35b61038a600480360381019061038591906129df565b611148565b005b610394611425565b6040516103a19190612f6d565b60405180910390f35b6103c460048036038101906103bf9190612986565b6114ff565b6040516103d19190612f8f565b60405180910390f35b6103e261151f565b005b6103ec6115dd565b6040516103f99190612fc9565b60405180910390f35b61040a6115f3565b6040516104179190612cf4565b60405180910390f35b600a60009054906101000a900467ffffffffffffffff1681565b7f000000000000000000000000000000000000000000000000000000000000000073ffffffffffffffffffffffffffffffffffffffff163373ffffffffffffffffffffffffffffffffffffffff16146104bf576040517fc6829f8300000000000000000000000000000000000000000000000000000000815260040160405180910390fd5b6104ca8383836115f9565b827f85e1543bf2f84fe80c6badbce3648c8539ad1df4d2b3d822938ca0538be727e660405160405180910390a2505050565b7f000000000000000000000000000000000000000000000000000000000000000081565b7f000000000000000000000000000000000000000000000000000000000000000081565b600c5481565b600180600001805461055b90613013565b80601f016020809104026020016040519081016040528092919081815260200182805461058790613013565b80156105d45780601f106105a9576101008083540402835291602001916105d4565b820191906000526020600020905b8154815290600101906020018083116105b757829003601f168201915b5050505050908060010180546105e990613013565b80601f016020809104026020016040519081016040528092919081815260200182805461061590613013565b80156106625780601f1061063757610100808354040283529160200191610662565b820191906000526020600020905b81548152906001019060200180831161064557829003601f168201915b50505050509080600201805461067790613013565b80601f01602080910402602001604051908101604052809291908181526020018280546106a390613013565b80156106f05780601f106106c5576101008083540402835291602001916106f0565b820191906000526020600020905b8154815290600101906020018083116106d357829003601f168201915b50505050509080600301805461070590613013565b80601f016020809104026020016040519081016040528092919081815260200182805461073190613013565b801561077e5780601f106107535761010080835404028352916020019161077e565b820191906000526020600020905b81548152906001019060200180831161076157829003601f168201915b5050505050908060040154905085565b60086020528060005260406000206000915090505481565b600781815481106107b657600080fd5b90600052602060002090600202016000915090508060000160009054906101000a900473ffffffffffffffffffffffffffffffffffffffff16908060000160149054906101000a900460ff16908060010154905083565b600d54600c544261081e9190613073565b1161085e576040517f08c379a0000000000000000000000000000000000000000000000000000000008152600401610855906130f3565b60405180910390fd5b42600c8190555061086d61151f565b5050565b600960003373ffffffffffffffffffffffffffffffffffffffff1673ffffffffffffffffffffffffffffffffffffffff16815260200190815260200160002060009054906101000a900460ff16156108fe576040517f08c379a00000000000000000000000000000000000000000000000000000000081526004016108f59061315f565b60405180910390fd5b600760405180606001604052803373ffffffffffffffffffffffffffffffffffffffff1681526020016001151581526020016000815250908060018154018082558091505060019003906000526020600020906002020160009091909190915060008201518160000160006101000a81548173ffffffffffffffffffffffffffffffffffffffff021916908373ffffffffffffffffffffffffffffffffffffffff16021790555060208201518160000160146101000a81548160ff0219169083151502179055506040820151816001015550506001600960003373ffffffffffffffffffffffffffffffffffffffff1673ffffffffffffffffffffffffffffffffffffffff16815260200190815260200160002060006101000a81548160ff021916908315150217905550565b7f000000000000000000000000000000000000000000000000000000000000000081565b60006060600d54600c5442610a649190613073565b1191508160405180602001604052806000815250915091509250929050565b600083600860003373ffffffffffffffffffffffffffffffffffffffff1673ffffffffffffffffffffffffffffffffffffffff168152602001908152602001600020541015610b07576040517f08c379a0000000000000000000000000000000000000000000000000000000008152600401610afe906131cb565b60405180910390fd5b600960003373ffffffffffffffffffffffffffffffffffffffff1673ffffffffffffffffffffffffffffffffffffffff16815260200190815260200160002060009054906101000a900460ff16610b93576040517f08c379a0000000000000000000000000000000000000000000000000000000008152600401610b8a90613237565b60405180910390fd5b6000600167ffffffffffffffff811115610bb057610baf61259a565b5b604051908082528060200260200182016040528015610be957816020015b610bd66123ec565b815260200190600190039081610bce5790505b50905060405180604001604052807f000000000000000000000000000000000000000000000000000000000000000073ffffffffffffffffffffffffffffffffffffffff1681526020018681525081600081518110610c4b57610c4a613257565b5b6020026020010181905250600033868686604051602001610c6f94939291906132b3565b604051602081830303815290604052905060006040518060a001604052808a604051602001610c9e91906132f3565b60405160208183030381529060405281526020018381526020018481526020017f000000000000000000000000000000000000000000000000000000000000000073ffffffffffffffffffffffffffffffffffffffff168152602001610d1460405180602001604052806207a1208152506117f4565b815250905060007f000000000000000000000000000000000000000000000000000000000000000073ffffffffffffffffffffffffffffffffffffffff166320487ded8a846040518363ffffffff1660e01b8152600401610d769291906134c1565b602060405180830381865afa158015610d93573d6000803e3d6000fd5b505050506040513d601f19601f82011682018060405250810190610db79190613506565b9050807f000000000000000000000000000000000000000000000000000000000000000073ffffffffffffffffffffffffffffffffffffffff166370a08231306040518263ffffffff1660e01b8152600401610e1391906132f3565b602060405180830381865afa158015610e30573d6000803e3d6000fd5b505050506040513d601f19601f82011682018060405250810190610e549190613506565b1015610e95576040517f08c379a0000000000000000000000000000000000000000000000000000000008152600401610e8c9061357f565b60405180910390fd5b7f000000000000000000000000000000000000000000000000000000000000000073ffffffffffffffffffffffffffffffffffffffff1663095ea7b37f0000000000000000000000000000000000000000000000000000000000000000836040518363ffffffff1660e01b8152600401610f1092919061359f565b6020604051808303816000875af1158015610f2f573d6000803e3d6000fd5b505050506040513d601f19601f82011682018060405250810190610f5391906135f4565b610f92576040517f08c379a0000000000000000000000000000000000000000000000000000000008152600401610f899061366d565b60405180910390fd5b7f000000000000000000000000000000000000000000000000000000000000000073ffffffffffffffffffffffffffffffffffffffff166396f4e9f98a846040518363ffffffff1660e01b8152600401610fed9291906134c1565b6020604051808303816000875af115801561100c573d6000803e3d6000fd5b505050506040513d601f19601f8201168201806040525081019061103091906136a2565b945087600860003373ffffffffffffffffffffffffffffffffffffffff1673ffffffffffffffffffffffffffffffffffffffff16815260200190815260200160002060008282546110819190613073565b925050819055503373ffffffffffffffffffffffffffffffffffffffff168967ffffffffffffffff16867fa604749b54572bada560788913f85fc833b3dab5c52562b68b16dd2ceff4d2218d8c7f0000000000000000000000000000000000000000000000000000000000000000878e8e604051611104969594939291906136cf565b60405180910390a45050505095945050505050565b600b5481565b600d5481565b61112d61241c565b8180602001905181019061114191906138d2565b9050919050565b611150611873565b60008111611193576040517f08c379a000000000000000000000000000000000000000000000000000000000815260040161118a9061398d565b60405180910390fd5b7f000000000000000000000000000000000000000000000000000000000000000073ffffffffffffffffffffffffffffffffffffffff166323b872dd3330846040518463ffffffff1660e01b81526004016111f0939291906139ad565b6020604051808303816000875af115801561120f573d6000803e3d6000fd5b505050506040513d601f19601f8201168201806040525081019061123391906135f4565b611272576040517f08c379a000000000000000000000000000000000000000000000000000000000815260040161126990613a30565b60405180910390fd5b80600860003373ffffffffffffffffffffffffffffffffffffffff1673ffffffffffffffffffffffffffffffffffffffff16815260200190815260200160002060008282546112c19190613a50565b9250508190555060005b6007805490508110156113cb573373ffffffffffffffffffffffffffffffffffffffff166007828154811061130357611302613257565b5b906000526020600020906002020160000160009054906101000a900473ffffffffffffffffffffffffffffffffffffffff1673ffffffffffffffffffffffffffffffffffffffff16036113be57600860003373ffffffffffffffffffffffffffffffffffffffff1673ffffffffffffffffffffffffffffffffffffffff16815260200190815260200160002054600782815481106113a4576113a3613257565b5b9060005260206000209060020201600101819055506113cb565b80806001019150506112cb565b503373ffffffffffffffffffffffffffffffffffffffff167f2da466a7b24304f47e87fa2e1e5a81b9831ce54fec19055ce277ca2f39ba42c482604051611412919061283f565b60405180910390a26114226118b9565b50565b60606007805480602002602001604051908101604052809291908181526020016000905b828210156114f657838290600052602060002090600202016040518060600160405290816000820160009054906101000a900473ffffffffffffffffffffffffffffffffffffffff1673ffffffffffffffffffffffffffffffffffffffff1673ffffffffffffffffffffffffffffffffffffffff1681526020016000820160149054906101000a900460ff1615151515815260200160018201548152505081526020019060010190611449565b50505050905090565b60096020528060005260406000206000915054906101000a900460ff1681565b61152761244b565b611557604051602001611539906140f1565b604051602081830303815290604052826118c390919063ffffffff16565b6000611562826118d4565b905061159a81600a60009054906101000a900467ffffffffffffffff16600a60089054906101000a900463ffffffff16600b54611ce4565b6006819055507fe94437effdbda08b418aab9f8aa5226b4467e6451c756e5f9e98ce7e3d9d681e6006546040516115d19190612cf4565b60405180910390a15050565b600a60089054906101000a900463ffffffff1681565b60065481565b7ff6beaea7d7fb7eba875baa4a71d7675d65c60d71f652ab7d2f3eb4da08a68b90826040516116289190614195565b60405180910390a1600081511115611674577f6037b916fc71ff5c87f0f234428eae758be459fdcf0bca357f169274cb51c52e60405161166790614203565b60405180910390a16117ef565b3073ffffffffffffffffffffffffffffffffffffffff1663b6207214836040518263ffffffff1660e01b81526004016116ad9190614195565b600060405180830381865afa9250505080156116ec57506040513d6000823e3d601f19601f820116820180604052508101906116e991906138d2565b60015b61172a577f6037b916fc71ff5c87f0f234428eae758be459fdcf0bca357f169274cb51c52e60405161171d9061426f565b60405180910390a16117ee565b80600160008201518160000190816117429190614431565b5060208201518160010190816117589190614431565b50604082015181600201908161176e9190614431565b5060608201518160030190816117849190614431565b5060808201518160040155905050836006819055507f73f4b0a22239eb8986fd770d90ee9d6923ed8cf684123ce1e526217c0f9ffe9d816000015182602001518360800151846040015185606001516040516117e4959493929190614503565b60405180910390a1505b5b505050565b60606397a657c960e01b8260405160240161180f919061458e565b604051602081830303815290604052907bffffffffffffffffffffffffffffffffffffffffffffffffffffffff19166020820180517bffffffffffffffffffffffffffffffffffffffffffffffffffffffff83818316178352505050509050919050565b6002600054036118af576040517f3ee5aeb500000000000000000000000000000000000000000000000000000000815260040160405180910390fd5b6002600081905550565b6001600081905550565b6118d08260008084611dc7565b5050565b606060006118e3610100611e71565b905061192d6040518060400160405280600c81526020017f636f64654c6f636174696f6e000000000000000000000000000000000000000081525082611e9890919063ffffffff16565b61195683600001516002811115611947576119466145a9565b5b82611ec190919063ffffffff16565b61199e6040518060400160405280600881526020017f6c616e677561676500000000000000000000000000000000000000000000000081525082611e9890919063ffffffff16565b6119c7836040015160008111156119b8576119b76145a9565b5b82611ec190919063ffffffff16565b611a0f6040518060400160405280600681526020017f736f75726365000000000000000000000000000000000000000000000000000081525082611e9890919063ffffffff16565b611a26836060015182611e9890919063ffffffff16565b60008360a00151511115611adc57611a7c6040518060400160405280600481526020017f617267730000000000000000000000000000000000000000000000000000000081525082611e9890919063ffffffff16565b611a8581611f11565b60005b8360a0015151811015611ad157611ac68460a001518281518110611aaf57611aae613257565b5b602002602001015183611e9890919063ffffffff16565b806001019050611a88565b50611adb81611f39565b5b60008360800151511115611c1d5760006002811115611afe57611afd6145a9565b5b83602001516002811115611b1557611b146145a9565b5b03611b4c576040517fa80d31f700000000000000000000000000000000000000000000000000000000815260040160405180910390fd5b611b946040518060400160405280600f81526020017f736563726574734c6f636174696f6e000000000000000000000000000000000081525082611e9890919063ffffffff16565b611bbd83602001516002811115611bae57611bad6145a9565b5b82611ec190919063ffffffff16565b611c056040518060400160405280600781526020017f736563726574730000000000000000000000000000000000000000000000000081525082611e9890919063ffffffff16565b611c1c836080015182611f6190919063ffffffff16565b5b60008360c00151511115611cd357611c736040518060400160405280600981526020017f627974657341726773000000000000000000000000000000000000000000000081525082611e9890919063ffffffff16565b611c7c81611f11565b60005b8360c0015151811015611cc857611cbd8460c001518281518110611ca657611ca5613257565b5b602002602001015183611f6190919063ffffffff16565b806001019050611c7f565b50611cd281611f39565b5b806000015160000151915050919050565b6000807f000000000000000000000000000000000000000000000000000000000000000073ffffffffffffffffffffffffffffffffffffffff1663461d27628688600188886040518663ffffffff1660e01b8152600401611d499594939291906145f5565b6020604051808303816000875af1158015611d68573d6000803e3d6000fd5b505050506040513d601f19601f82011682018060405250810190611d8c91906136a2565b9050807f1131472297a800fee664d1d89cfa8f7676ff07189ecc53f80bbb5f4969099db860405160405180910390a280915050949350505050565b6000815103611e02576040517f22ce3edd00000000000000000000000000000000000000000000000000000000815260040160405180910390fd5b8284600001906002811115611e1a57611e196145a9565b5b90816002811115611e2e57611e2d6145a9565b5b815250508184604001906000811115611e4a57611e496145a9565b5b90816000811115611e5e57611e5d6145a9565b5b8152505080846060018190525050505050565b611e796124bd565b611e87816000015183611f8a565b506000816020018181525050919050565b611ea58260038351612003565b611ebc8183600001516121ac90919063ffffffff16565b505050565b611ee360026005600660ff16901b1783600001516121c890919063ffffffff16565b50611f0d8282604051602001611ef9919061283f565b604051602081830303815290604052611f61565b5050565b611f1c816004612232565b600181602001818151611f2f9190613a50565b9150818152505050565b611f44816007612232565b600181602001818151611f579190613073565b9150818152505050565b611f6e8260028351612003565b611f858183600001516121ac90919063ffffffff16565b505050565b611f926124dd565b6000602083611fa1919061467e565b14611fcd57602082611fb3919061467e565b6020611fbf9190613073565b82611fca9190613a50565b91505b818360200181815250506040518084526000815282810160200181811015611ff457600080fd5b80604052505082905092915050565b60178167ffffffffffffffff161161203e576120388160058460ff16901b60ff161784600001516121c890919063ffffffff16565b506121a7565b60ff8167ffffffffffffffff161161209c57612071601860058460ff16901b1784600001516121c890919063ffffffff16565b506120968167ffffffffffffffff16600185600001516122589092919063ffffffff16565b506121a6565b61ffff8167ffffffffffffffff16116120fb576120d0601960058460ff16901b1784600001516121c890919063ffffffff16565b506120f58167ffffffffffffffff16600285600001516122589092919063ffffffff16565b506121a5565b63ffffffff8167ffffffffffffffff161161215c57612131601a60058460ff16901b1784600001516121c890919063ffffffff16565b506121568167ffffffffffffffff16600485600001516122589092919063ffffffff16565b506121a4565b61217d601b60058460ff16901b1784600001516121c890919063ffffffff16565b506121a28167ffffffffffffffff16600885600001516122589092919063ffffffff16565b505b5b5b5b505050565b6121b46124dd565b6121c0838384516122e5565b905092915050565b6121d06124dd565b6000836000015151905060006001826121e99190613a50565b90508460200151821061220d5761220c8560028361220791906146af565b6123c8565b5b84516020838201018581538151831115612225578282525b5050849250505092915050565b612253601f60058360ff16901b1783600001516121c890919063ffffffff16565b505050565b6122606124dd565b60008460000151519050600081846122789190613a50565b9050856020015181111561229d5761229c8660028361229791906146af565b6123c8565b5b60006001856101006122af9190614824565b6122b99190613073565b9050865182810187831982511617815281518411156122d6578382525b50508693505050509392505050565b6122ed6124dd565b82518211156122fb57600080fd5b60008460000151519050600083826123139190613a50565b90508560200151811115612338576123378660028361233291906146af565b6123c8565b5b60008087518051856020830101935080851115612353578482525b60208901925050505b6020861061239a57805182526020826123759190613a50565b91506020816123849190613a50565b90506020866123939190613073565b955061235c565b60006001876020036101000a0390508019825116818451168181178552505050879450505050509392505050565b6000826000015190506123db8383611f8a565b506123e683826121ac565b50505050565b6040518060400160405280600073ffffffffffffffffffffffffffffffffffffffff168152602001600081525090565b6040518060a0016040528060608152602001606081526020016060815260200160608152602001600081525090565b6040518060e001604052806000600281111561246a576124696145a9565b5b815260200160006002811115612483576124826145a9565b5b815260200160008081111561249b5761249a6145a9565b5b8152602001606081526020016060815260200160608152602001606081525090565b60405180604001604052806124d06124dd565b8152602001600081525090565b604051806040016040528060608152602001600081525090565b600067ffffffffffffffff82169050919050565b612514816124f7565b82525050565b600060208201905061252f600083018461250b565b92915050565b6000604051905090565b600080fd5b600080fd5b6000819050919050565b61255c81612549565b811461256757600080fd5b50565b60008135905061257981612553565b92915050565b600080fd5b600080fd5b6000601f19601f8301169050919050565b7f4e487b7100000000000000000000000000000000000000000000000000000000600052604160045260246000fd5b6125d282612589565b810181811067ffffffffffffffff821117156125f1576125f061259a565b5b80604052505050565b6000612604612535565b905061261082826125c9565b919050565b600067ffffffffffffffff8211156126305761262f61259a565b5b61263982612589565b9050602081019050919050565b82818337600083830152505050565b600061266861266384612615565b6125fa565b90508281526020810184848401111561268457612683612584565b5b61268f848285612646565b509392505050565b600082601f8301126126ac576126ab61257f565b5b81356126bc848260208601612655565b91505092915050565b6000806000606084860312156126de576126dd61253f565b5b60006126ec8682870161256a565b935050602084013567ffffffffffffffff81111561270d5761270c612544565b5b61271986828701612697565b925050604084013567ffffffffffffffff81111561273a57612739612544565b5b61274686828701612697565b9150509250925092565b600073ffffffffffffffffffffffffffffffffffffffff82169050919050565b6000819050919050565b600061279561279061278b84612750565b612770565b612750565b9050919050565b60006127a78261277a565b9050919050565b60006127b98261279c565b9050919050565b6127c9816127ae565b82525050565b60006020820190506127e460008301846127c0565b92915050565b60006127f58261279c565b9050919050565b612805816127ea565b82525050565b600060208201905061282060008301846127fc565b92915050565b6000819050919050565b61283981612826565b82525050565b60006020820190506128546000830184612830565b92915050565b600081519050919050565b600082825260208201905092915050565b60005b83811015612894578082015181840152602081019050612879565b60008484015250505050565b60006128ab8261285a565b6128b58185612865565b93506128c5818560208601612876565b6128ce81612589565b840191505092915050565b600060a08201905081810360008301526128f381886128a0565b9050818103602083015261290781876128a0565b9050818103604083015261291b81866128a0565b9050818103606083015261292f81856128a0565b905061293e6080830184612830565b9695505050505050565b600061295382612750565b9050919050565b61296381612948565b811461296e57600080fd5b50565b6000813590506129808161295a565b92915050565b60006020828403121561299c5761299b61253f565b5b60006129aa84828501612971565b91505092915050565b6129bc81612826565b81146129c757600080fd5b50565b6000813590506129d9816129b3565b92915050565b6000602082840312156129f5576129f461253f565b5b6000612a03848285016129ca565b91505092915050565b612a1581612948565b82525050565b60008115159050919050565b612a3081612a1b565b82525050565b6000606082019050612a4b6000830186612a0c565b612a586020830185612a27565b612a656040830184612830565b949350505050565b600080fd5b600080fd5b60008083601f840112612a8d57612a8c61257f565b5b8235905067ffffffffffffffff811115612aaa57612aa9612a6d565b5b602083019150836001820283011115612ac657612ac5612a72565b5b9250929050565b60008060208385031215612ae457612ae361253f565b5b600083013567ffffffffffffffff811115612b0257612b01612544565b5b612b0e85828601612a77565b92509250509250929050565b6000612b258261279c565b9050919050565b612b3581612b1a565b82525050565b6000602082019050612b506000830184612b2c565b92915050565b600081519050919050565b600082825260208201905092915050565b6000612b7d82612b56565b612b878185612b61565b9350612b97818560208601612876565b612ba081612589565b840191505092915050565b6000604082019050612bc06000830185612a27565b8181036020830152612bd28184612b72565b90509392505050565b612be4816124f7565b8114612bef57600080fd5b50565b600081359050612c0181612bdb565b92915050565b60008083601f840112612c1d57612c1c61257f565b5b8235905067ffffffffffffffff811115612c3a57612c39612a6d565b5b602083019150836001820283011115612c5657612c55612a72565b5b9250929050565b600080600080600060808688031215612c7957612c7861253f565b5b6000612c8788828901612971565b9550506020612c9888828901612bf2565b9450506040612ca9888289016129ca565b935050606086013567ffffffffffffffff811115612cca57612cc9612544565b5b612cd688828901612c07565b92509250509295509295909350565b612cee81612549565b82525050565b6000602082019050612d096000830184612ce5565b92915050565b600060208284031215612d2557612d2461253f565b5b600082013567ffffffffffffffff811115612d4357612d42612544565b5b612d4f84828501612697565b91505092915050565b600082825260208201905092915050565b6000612d748261285a565b612d7e8185612d58565b9350612d8e818560208601612876565b612d9781612589565b840191505092915050565b612dab81612826565b82525050565b600060a0830160008301518482036000860152612dce8282612d69565b91505060208301518482036020860152612de88282612d69565b91505060408301518482036040860152612e028282612d69565b91505060608301518482036060860152612e1c8282612d69565b9150506080830151612e316080860182612da2565b508091505092915050565b60006020820190508181036000830152612e568184612db1565b905092915050565b600081519050919050565b600082825260208201905092915050565b6000819050602082019050919050565b612e9381612948565b82525050565b612ea281612a1b565b82525050565b606082016000820151612ebe6000850182612e8a565b506020820151612ed16020850182612e99565b506040820151612ee46040850182612da2565b50505050565b6000612ef68383612ea8565b60608301905092915050565b6000602082019050919050565b6000612f1a82612e5e565b612f248185612e69565b9350612f2f83612e7a565b8060005b83811015612f60578151612f478882612eea565b9750612f5283612f02565b925050600181019050612f33565b5085935050505092915050565b60006020820190508181036000830152612f878184612f0f565b905092915050565b6000602082019050612fa46000830184612a27565b92915050565b600063ffffffff82169050919050565b612fc381612faa565b82525050565b6000602082019050612fde6000830184612fba565b92915050565b7f4e487b7100000000000000000000000000000000000000000000000000000000600052602260045260246000fd5b6000600282049050600182168061302b57607f821691505b60208210810361303e5761303d612fe4565b5b50919050565b7f4e487b7100000000000000000000000000000000000000000000000000000000600052601160045260246000fd5b600061307e82612826565b915061308983612826565b92508282039050818111156130a1576130a0613044565b5b92915050565b7f546f6f206561726c7920666f722075706b656570000000000000000000000000600082015250565b60006130dd601483612865565b91506130e8826130a7565b602082019050919050565b6000602082019050818103600083015261310c816130d0565b9050919050565b7f5573657220526567697374657265640000000000000000000000000000000000600082015250565b6000613149600f83612865565b915061315482613113565b602082019050919050565b600060208201905081810360008301526131788161313c565b9050919050565b7f496e73756666696369656e742062616c616e6365000000000000000000000000600082015250565b60006131b5601483612865565b91506131c08261317f565b602082019050919050565b600060208201905081810360008301526131e4816131a8565b9050919050565b7f55736572206e6f74207265676973746572656400000000000000000000000000600082015250565b6000613221601383612865565b915061322c826131eb565b602082019050919050565b6000602082019050818103600083015261325081613214565b9050919050565b7f4e487b7100000000000000000000000000000000000000000000000000000000600052603260045260246000fd5b60006132928385612865565b935061329f838584612646565b6132a883612589565b840190509392505050565b60006060820190506132c86000830187612a0c565b6132d56020830186612830565b81810360408301526132e8818486613286565b905095945050505050565b60006020820190506133086000830184612a0c565b92915050565b600082825260208201905092915050565b600061332a82612b56565b613334818561330e565b9350613344818560208601612876565b61334d81612589565b840191505092915050565b600081519050919050565b600082825260208201905092915050565b6000819050602082019050919050565b60408201600082015161339a6000850182612e8a565b5060208201516133ad6020850182612da2565b50505050565b60006133bf8383613384565b60408301905092915050565b6000602082019050919050565b60006133e382613358565b6133ed8185613363565b93506133f883613374565b8060005b8381101561342957815161341088826133b3565b975061341b836133cb565b9250506001810190506133fc565b5085935050505092915050565b600060a0830160008301518482036000860152613453828261331f565b9150506020830151848203602086015261346d828261331f565b9150506040830151848203604086015261348782826133d8565b915050606083015161349c6060860182612e8a565b50608083015184820360808601526134b4828261331f565b9150508091505092915050565b60006040820190506134d6600083018561250b565b81810360208301526134e88184613436565b90509392505050565b600081519050613500816129b3565b92915050565b60006020828403121561351c5761351b61253f565b5b600061352a848285016134f1565b91505092915050565b7f4e6f7420656e6f756768204c494e4b20746f2070617920434349502066656500600082015250565b6000613569601f83612865565b915061357482613533565b602082019050919050565b600060208201905081810360008301526135988161355c565b9050919050565b60006040820190506135b46000830185612a0c565b6135c16020830184612830565b9392505050565b6135d181612a1b565b81146135dc57600080fd5b50565b6000815190506135ee816135c8565b92915050565b60006020828403121561360a5761360961253f565b5b6000613618848285016135df565b91505092915050565b7f4e6f7420417070726f7665640000000000000000000000000000000000000000600082015250565b6000613657600c83612865565b915061366282613621565b602082019050919050565b600060208201905081810360008301526136868161364a565b9050919050565b60008151905061369c81612553565b92915050565b6000602082840312156136b8576136b761253f565b5b60006136c68482850161368d565b91505092915050565b600060a0820190506136e46000830189612a0c565b6136f16020830188612830565b6136fe6040830187612a0c565b61370b6060830186612830565b818103608083015261371e818486613286565b9050979650505050505050565b600080fd5b600080fd5b600067ffffffffffffffff8211156137505761374f61259a565b5b61375982612589565b9050602081019050919050565b600061377961377484613735565b6125fa565b90508281526020810184848401111561379557613794612584565b5b6137a0848285612876565b509392505050565b600082601f8301126137bd576137bc61257f565b5b81516137cd848260208601613766565b91505092915050565b600060a082840312156137ec576137eb61372b565b5b6137f660a06125fa565b9050600082015167ffffffffffffffff81111561381657613815613730565b5b613822848285016137a8565b600083015250602082015167ffffffffffffffff81111561384657613845613730565b5b613852848285016137a8565b602083015250604082015167ffffffffffffffff81111561387657613875613730565b5b613882848285016137a8565b604083015250606082015167ffffffffffffffff8111156138a6576138a5613730565b5b6138b2848285016137a8565b60608301525060806138c6848285016134f1565b60808301525092915050565b6000602082840312156138e8576138e761253f565b5b600082015167ffffffffffffffff81111561390657613905612544565b5b613912848285016137d6565b91505092915050565b7f4465706f73697420616d6f756e74206d7573742062652067726561746572207460008201527f68616e2030000000000000000000000000000000000000000000000000000000602082015250565b6000613977602583612865565b91506139828261391b565b604082019050919050565b600060208201905081810360008301526139a68161396a565b9050919050565b60006060820190506139c26000830186612a0c565b6139cf6020830185612a0c565b6139dc6040830184612830565b949350505050565b7f55534443207472616e73666572206661696c6564000000000000000000000000600082015250565b6000613a1a601483612865565b9150613a25826139e4565b602082019050919050565b60006020820190508181036000830152613a4981613a0d565b9050919050565b6000613a5b82612826565b9150613a6683612826565b9250828201905080821115613a7e57613a7d613044565b5b92915050565b600081905092915050565b7f636f6e737420726573706f6e7365203d2061776169742046756e6374696f6e7360008201527f2e6d616b654874747052657175657374287b2075726c3a202268747470733a2f60208201527f2f7969656c64732e6c6c616d612e66692f706f6f6c7322207d293b0000000000604082015250565b6000613b11605b83613a84565b9150613b1c82613a8f565b605b82019050919050565b7f69662028726573706f6e73652e6572726f7229207468726f77204572726f722860008201527f224665746368206661696c656422293b00000000000000000000000000000000602082015250565b6000613b83603083613a84565b9150613b8e82613b27565b603082019050919050565b7f636f6e737420636861696e73203d205b22506f6c79676f6e222c22457468657260008201527f65756d222c224176616c616e636865222c2242617365222c224172626974727560208201527f6d225d3b00000000000000000000000000000000000000000000000000000000604082015250565b6000613c1b604483613a84565b9150613c2682613b99565b604482019050919050565b7f636f6e737420706f6f6c73203d20726573706f6e73652e646174612e6461746160008201527f3b00000000000000000000000000000000000000000000000000000000000000602082015250565b6000613c8d602183613a84565b9150613c9882613c31565b602182019050919050565b7f636f6e73742066696c7465726564203d20706f6f6c732e66696c74657228702060008201527f3d3e20636861696e732e696e636c7564657328702e636861696e29202626207060208201527f2e73796d626f6c2e746f4c6f776572436173652829203d3d3d2022757364632260408201527f20262620702e6170794261736520213d3d206e756c6c292e736f72742828612c60608201527f206229203d3e20622e61707942617365202d20612e61707942617365293b0000608082015250565b6000613d71609e83613a84565b9150613d7c82613ca3565b609e82019050919050565b7f636f6e73742062657374203d2066696c74657265645b305d203f3f207b7d3b00600082015250565b6000613dbd601f83613a84565b9150613dc882613d87565b601f82019050919050565b7f636f6e737420726573756c74203d205b00000000000000000000000000000000600082015250565b6000613e09601083613a84565b9150613e1482613dd3565b601082019050919050565b7f626573742e706f6f6c4d657461203f3f2022556e6b6e6f776e2053747261746560008201527f6779222c00000000000000000000000000000000000000000000000000000000602082015250565b6000613e7b602483613a84565b9150613e8682613e1f565b602482019050919050565b7f626573742e636861696e203f3f2022556e6b6e6f776e222c0000000000000000600082015250565b6000613ec7601883613a84565b9150613ed282613e91565b601882019050919050565b7f2255534443222c00000000000000000000000000000000000000000000000000600082015250565b6000613f13600783613a84565b9150613f1e82613edd565b600782019050919050565b7f626573742e706f6f6c203f3f202230783030303030303030303030303030303060008201527f303030303030303030303030303030303030303030303030222c000000000000602082015250565b6000613f85603a83613a84565b9150613f9082613f29565b603a82019050919050565b7f4d6174682e726f756e642828626573742e61707942617365203f3f203029202a60008201527f2031653429000000000000000000000000000000000000000000000000000000602082015250565b6000613ff7602583613a84565b915061400282613f9b565b602582019050919050565b7f5d3b000000000000000000000000000000000000000000000000000000000000600082015250565b6000614043600283613a84565b915061404e8261400d565b600282019050919050565b7f72657475726e2046756e6374696f6e732e656e636f6465416269285b2274757060008201527f6c6528737472696e672c737472696e672c737472696e672c737472696e672c7560208201527f696e7432353629225d2c205b726573756c745d293b0000000000000000000000604082015250565b60006140db605583613a84565b91506140e682614059565b605582019050919050565b60006140fc82613b04565b915061410782613b76565b915061411282613c0e565b915061411d82613c80565b915061412882613d64565b915061413382613db0565b915061413e82613dfc565b915061414982613e6e565b915061415482613eba565b915061415f82613f06565b915061416a82613f78565b915061417582613fea565b915061418082614036565b915061418b826140ce565b9150819050919050565b600060208201905081810360008301526141af8184612b72565b905092915050565b7f436861696e6c696e6b2072657475726e6564206572726f720000000000000000600082015250565b60006141ed601883612865565b91506141f8826141b7565b602082019050919050565b6000602082019050818103600083015261421c816141e0565b9050919050565b7f4465636f64696e67206661696c65640000000000000000000000000000000000600082015250565b6000614259600f83612865565b915061426482614223565b602082019050919050565b600060208201905081810360008301526142888161424c565b9050919050565b60008190508160005260206000209050919050565b60006020601f8301049050919050565b600082821b905092915050565b6000600883026142f17fffffffffffffffffffffffffffffffffffffffffffffffffffffffffffffffff826142b4565b6142fb86836142b4565b95508019841693508086168417925050509392505050565b600061432e61432961432484612826565b612770565b612826565b9050919050565b6000819050919050565b61434883614313565b61435c61435482614335565b8484546142c1565b825550505050565b600090565b614371614364565b61437c81848461433f565b505050565b5b818110156143a057614395600082614369565b600181019050614382565b5050565b601f8211156143e5576143b68161428f565b6143bf846142a4565b810160208510156143ce578190505b6143e26143da856142a4565b830182614381565b50505b505050565b600082821c905092915050565b6000614408600019846008026143ea565b1980831691505092915050565b600061442183836143f7565b9150826002028217905092915050565b61443a8261285a565b67ffffffffffffffff8111156144535761445261259a565b5b61445d8254613013565b6144688282856143a4565b600060209050601f83116001811461449b5760008415614489578287015190505b6144938582614415565b8655506144fb565b601f1984166144a98661428f565b60005b828110156144d1578489015182556001820191506020850194506020810190506144ac565b868310156144ee57848901516144ea601f8916826143f7565b8355505b6001600288020188555050505b505050505050565b600060a082019050818103600083015261451d81886128a0565b9050818103602083015261453181876128a0565b90506145406040830186612830565b818103606083015261455281856128a0565b9050818103608083015261456681846128a0565b90509695505050505050565b6020820160008201516145886000850182612da2565b50505050565b60006020820190506145a36000830184614572565b92915050565b7f4e487b7100000000000000000000000000000000000000000000000000000000600052602160045260246000fd5b600061ffff82169050919050565b6145ef816145d8565b82525050565b600060a08201905061460a600083018861250b565b818103602083015261461c8187612b72565b905061462b60408301866145e6565b6146386060830185612fba565b6146456080830184612ce5565b9695505050505050565b7f4e487b7100000000000000000000000000000000000000000000000000000000600052601260045260246000fd5b600061468982612826565b915061469483612826565b9250826146a4576146a361464f565b5b828206905092915050565b60006146ba82612826565b91506146c583612826565b92508282026146d381612826565b915082820484148315176146ea576146e9613044565b5b5092915050565b60008160011c9050919050565b6000808291508390505b60018511156147485780860481111561472457614723613044565b5b60018516156147335780820291505b8081029050614741856146f1565b9450614708565b94509492505050565b600082614761576001905061481d565b8161476f576000905061481d565b8160018114614785576002811461478f576147be565b600191505061481d565b60ff8411156147a1576147a0613044565b5b8360020a9150848211156147b8576147b7613044565b5b5061481d565b5060208310610133831016604e8410600b84101617156147f35782820a9050838111156147ee576147ed613044565b5b61481d565b61480084848460016146fe565b9250905081840481111561481757614816613044565b5b81810290505b9392505050565b600061482f82612826565b915061483a83612826565b92506148677fffffffffffffffffffffffffffffffffffffffffffffffffffffffffffffffff8484614751565b90509291505056fea26469706673582212205edc5c7aed04f944139e1062adf2ad6f46c2d975bfc72b841711934a5b101e4364736f6c634300081c0033",
  "linkReferences": {},
  "deployedLinkReferences": {}
}