{
  "contracts/receiver/CCIPReceiver.sol": {
    "ReceiverContract": {
      "abi": [
        {
          "inputs": [
            {
              "internalType": "address",
              "name": "router",
              "type": "address"
            },
            {
              "internalType": "address",
              "name": "_usdcToken",
              "type": "address"
            },
            {
              "internalType": "address",
              "name": "_senderContract",
              "type": "address"
            }
          ],
          "stateMutability": "nonpayable",
          "type": "constructor"
        },
        {
          "inputs": [
            {
              "internalType": "address",
              "name": "router",
              "type": "address"
            }
          ],
          "name": "InvalidRouter",
          "type": "error"
        },
        {
          "inputs": [],
          "name": "ReentrancyGuardReentrantCall",
          "type": "error"
        },
        {
          "anonymous": false,
          "inputs": [
            {
              "indexed": false,
              "internalType": "string",
              "name": "strategy",
              "type": "string"
            },
            {
              "indexed": false,
              "internalType": "uint256",
              "name": "apy",
              "type": "uint256"
            }
          ],
          "name": "BestYieldUpdated",
          "type": "event"
        },
        {
          "anonymous": false,
          "inputs": [
            {
              "indexed": false,
              "internalType": "string",
              "name": "strategy",
              "type": "string"
            },
            {
              "indexed": false,
              "internalType": "address",
              "name": "pool",
              "type": "address"
            },
            {
              "indexed": false,
              "internalType": "uint256",
              "name": "amount",
              "type": "uint256"
            }
          ],
          "name": "DepositExecuted",
          "type": "event"
        },
        {
          "anonymous": false,
          "inputs": [
            {
              "indexed": false,
              "internalType": "string",
              "name": "strategy",
              "type": "string"
            },
            {
              "indexed": false,
              "internalType": "address",
              "name": "pool",
              "type": "address"
            },
            {
              "indexed": false,
              "internalType": "bytes4",
              "name": "selector",
              "type": "bytes4"
            },
            {
              "indexed": false,
              "internalType": "uint256",
              "name": "apy",
              "type": "uint256"
            }
          ],
          "name": "StrategyRegistered",
          "type": "event"
        },
        {
          "anonymous": false,
          "inputs": [
            {
              "indexed": false,
              "internalType": "string",
              "name": "strategy",
              "type": "string"
            },
            {
              "indexed": false,
              "internalType": "uint256",
              "name": "newApy",
              "type": "uint256"
            }
          ],
          "name": "StrategyUpdated",
          "type": "event"
        },
        {
          "anonymous": false,
          "inputs": [
            {
              "indexed": true,
              "internalType": "bytes32",
              "name": "messageId",
              "type": "bytes32"
            },
            {
              "indexed": true,
              "internalType": "uint64",
              "name": "sourceChainSelector",
              "type": "uint64"
            },
            {
              "indexed": false,
              "internalType": "address",
              "name": "sender",
              "type": "address"
            },
            {
              "indexed": false,
              "internalType": "uint256",
              "name": "amount",
              "type": "uint256"
            },
            {
              "indexed": false,
              "internalType": "string",
              "name": "preferredStrategy",
              "type": "string"
            }
          ],
          "name": "TokensReceived",
          "type": "event"
        },
        {
          "anonymous": false,
          "inputs": [
            {
              "indexed": true,
              "internalType": "address",
              "name": "user",
              "type": "address"
            },
            {
              "indexed": false,
              "internalType": "uint256",
              "name": "amount",
              "type": "uint256"
            }
          ],
          "name": "Withdrawal",
          "type": "event"
        },
        {
          "anonymous": false,
          "inputs": [],
          "name": "YieldUpdateRequested",
          "type": "event"
        },
        {
          "inputs": [
            {
              "internalType": "string",
              "name": "strategyName",
              "type": "string"
            }
          ],
          "name": "autoDepositToStrategy",
          "outputs": [],
          "stateMutability": "nonpayable",
          "type": "function"
        },
        {
          "inputs": [],
          "name": "bestYield",
          "outputs": [
            {
              "internalType": "string",
              "name": "name",
              "type": "string"
            },
            {
              "internalType": "address",
              "name": "pool",
              "type": "address"
            },
            {
              "internalType": "bytes4",
              "name": "depositSelector",
              "type": "bytes4"
            },
            {
              "internalType": "uint256",
              "name": "apy",
              "type": "uint256"
            }
          ],
          "stateMutability": "view",
          "type": "function"
        },
        {
          "inputs": [
            {
              "components": [
                {
                  "internalType": "bytes32",
                  "name": "messageId",
                  "type": "bytes32"
                },
                {
                  "internalType": "uint64",
                  "name": "sourceChainSelector",
                  "type": "uint64"
                },
                {
                  "internalType": "bytes",
                  "name": "sender",
                  "type": "bytes"
                },
                {
                  "internalType": "bytes",
                  "name": "data",
                  "type": "bytes"
                },
                {
                  "components": [
                    {
                      "internalType": "address",
                      "name": "token",
                      "type": "address"
                    },
                    {
                      "internalType": "uint256",
                      "name": "amount",
                      "type": "uint256"
                    }
                  ],
                  "internalType": "struct Client.EVMTokenAmount[]",
                  "name": "destTokenAmounts",
                  "type": "tuple[]"
                }
              ],
              "internalType": "struct Client.Any2EVMMessage",
              "name": "message",
              "type": "tuple"
            }
          ],
          "name": "ccipReceive",
          "outputs": [],
          "stateMutability": "nonpayable",
          "type": "function"
        },
        {
          "inputs": [
            {
              "internalType": "bytes",
              "name": "",
              "type": "bytes"
            }
          ],
          "name": "checkUpkeep",
          "outputs": [
            {
              "internalType": "bool",
              "name": "upkeepNeeded",
              "type": "bool"
            },
            {
              "internalType": "bytes",
              "name": "performData",
              "type": "bytes"
            }
          ],
          "stateMutability": "view",
          "type": "function"
        },
        {
          "inputs": [],
          "name": "getHighestApyStrategy",
          "outputs": [
            {
              "internalType": "string",
              "name": "",
              "type": "string"
            }
          ],
          "stateMutability": "view",
          "type": "function"
        },
        {
          "inputs": [],
          "name": "getRouter",
          "outputs": [
            {
              "internalType": "address",
              "name": "",
              "type": "address"
            }
          ],
          "stateMutability": "view",
          "type": "function"
        },
        {
          "inputs": [
            {
              "internalType": "string",
              "name": "name",
              "type": "string"
            }
          ],
          "name": "getStrategy",
          "outputs": [
            {
              "internalType": "address",
              "name": "pool",
              "type": "address"
            },
            {
              "internalType": "bytes4",
              "name": "depositSelector",
              "type": "bytes4"
            },
            {
              "internalType": "uint256",
              "name": "apy",
              "type": "uint256"
            },
            {
              "internalType": "bool",
              "name": "isRegistered",
              "type": "bool"
            }
          ],
          "stateMutability": "view",
          "type": "function"
        },
        {
          "inputs": [
            {
              "internalType": "address",
              "name": "user",
              "type": "address"
            }
          ],
          "name": "getUserBalance",
          "outputs": [
            {
              "internalType": "uint256",
              "name": "",
              "type": "uint256"
            }
          ],
          "stateMutability": "view",
          "type": "function"
        },
        {
          "inputs": [],
          "name": "lastUpdated",
          "outputs": [
            {
              "internalType": "uint256",
              "name": "",
              "type": "uint256"
            }
          ],
          "stateMutability": "view",
          "type": "function"
        },
        {
          "inputs": [
            {
              "internalType": "uint256",
              "name": "amount",
              "type": "uint256"
            }
          ],
          "name": "manualWithdraw",
          "outputs": [],
          "stateMutability": "nonpayable",
          "type": "function"
        },
        {
          "inputs": [
            {
              "internalType": "bytes",
              "name": "performData",
              "type": "bytes"
            }
          ],
          "name": "performUpkeep",
          "outputs": [],
          "stateMutability": "nonpayable",
          "type": "function"
        },
        {
          "inputs": [],
          "name": "senderContract",
          "outputs": [
            {
              "internalType": "address",
              "name": "",
              "type": "address"
            }
          ],
          "stateMutability": "view",
          "type": "function"
        },
        {
          "inputs": [
            {
              "internalType": "string",
              "name": "",
              "type": "string"
            }
          ],
          "name": "strategies",
          "outputs": [
            {
              "internalType": "address",
              "name": "pool",
              "type": "address"
            },
            {
              "internalType": "bytes4",
              "name": "depositSelector",
              "type": "bytes4"
            },
            {
              "internalType": "uint256",
              "name": "apy",
              "type": "uint256"
            },
            {
              "internalType": "bool",
              "name": "isRegistered",
              "type": "bool"
            }
          ],
          "stateMutability": "view",
          "type": "function"
        },
        {
          "inputs": [
            {
              "internalType": "uint256",
              "name": "",
              "type": "uint256"
            }
          ],
          "name": "strategyList",
          "outputs": [
            {
              "internalType": "string",
              "name": "",
              "type": "string"
            }
          ],
          "stateMutability": "view",
          "type": "function"
        },
        {
          "inputs": [
            {
              "internalType": "bytes4",
              "name": "interfaceId",
              "type": "bytes4"
            }
          ],
          "name": "supportsInterface",
          "outputs": [
            {
              "internalType": "bool",
              "name": "",
              "type": "bool"
            }
          ],
          "stateMutability": "view",
          "type": "function"
        },
        {
          "inputs": [
            {
              "components": [
                {
                  "internalType": "string",
                  "name": "name",
                  "type": "string"
                },
                {
                  "internalType": "address",
                  "name": "pool",
                  "type": "address"
                },
                {
                  "internalType": "bytes4",
                  "name": "depositSelector",
                  "type": "bytes4"
                },
                {
                  "internalType": "uint256",
                  "name": "apy",
                  "type": "uint256"
                }
              ],
              "internalType": "struct ReceiverContract.YieldData",
              "name": "_yieldData",
              "type": "tuple"
            }
          ],
          "name": "updateBestStrategy",
          "outputs": [],
          "stateMutability": "nonpayable",
          "type": "function"
        },
        {
          "inputs": [],
          "name": "updateInterval",
          "outputs": [
            {
              "internalType": "uint256",
              "name": "",
              "type": "uint256"
            }
          ],
          "stateMutability": "view",
          "type": "function"
        },
        {
          "inputs": [],
          "name": "usdcToken",
          "outputs": [
            {
              "internalType": "contract IERC20",
              "name": "",
              "type": "address"
            }
          ],
          "stateMutability": "view",
          "type": "function"
        },
        {
          "inputs": [
            {
              "internalType": "address",
              "name": "",
              "type": "address"
            }
          ],
          "name": "userBalances",
          "outputs": [
            {
              "internalType": "uint256",
              "name": "",
              "type": "uint256"
            }
          ],
          "stateMutability": "view",
          "type": "function"
        }
      ],
      "evm": {
        "bytecode": {
          "linkReferences": {},
          "object": "60e0604052610e1060085534801561001657600080fd5b50604051613360380380613360833981810160405281019061003891906101bb565b82600073ffffffffffffffffffffffffffffffffffffffff168173ffffffffffffffffffffffffffffffffffffffff16036100ab5760006040517fd7f733340000000000000000000000000000000000000000000000000000000081526004016100a2919061021d565b60405180910390fd5b8073ffffffffffffffffffffffffffffffffffffffff1660808173ffffffffffffffffffffffffffffffffffffffff16815250505060016000819055508173ffffffffffffffffffffffffffffffffffffffff1660a08173ffffffffffffffffffffffffffffffffffffffff16815250508073ffffffffffffffffffffffffffffffffffffffff1660c08173ffffffffffffffffffffffffffffffffffffffff1681525050505050610238565b600080fd5b600073ffffffffffffffffffffffffffffffffffffffff82169050919050565b60006101888261015d565b9050919050565b6101988161017d565b81146101a357600080fd5b50565b6000815190506101b58161018f565b92915050565b6000806000606084860312156101d4576101d3610158565b5b60006101e2868287016101a6565b93505060206101f3868287016101a6565b9250506040610204868287016101a6565b9150509250925092565b6102178161017d565b82525050565b6000602082019050610232600083018461020e565b92915050565b60805160a05160c0516130d661028a6000396000610d0c0152600081816104b20152818161077201528181610d370152818161115c0152818161123b015261130101526000610ff301526130d66000f3fe608060405234801561001057600080fd5b50600436106101215760003560e01c806367f235ea116100ad578063b0f479a111610071578063b0f479a11461034a578063c231bcf314610368578063c7c3653814610384578063d0b06f5d146103a2578063fd2c80ae146103c057610121565b806367f235ea1461027c5780636e04ff0d1461029a578063780f1acd146102cb57806385572ffb146102fe578063a267526b1461031a57610121565b806326f9dd1e116100f457806326f9dd1e146101c5578063377c58bf146101f85780634585e33b14610214578063477348921461023057806347b3b2051461026057610121565b806301ffc9a71461012657806311eac855146101565780631c4a76c61461017457806326224c6414610195575b600080fd5b610140600480360381019061013b9190611885565b6103de565b60405161014d91906118cd565b60405180910390f35b61015e6104b0565b60405161016b9190611967565b60405180910390f35b61017c6104d4565b60405161018c9493929190611a5b565b60405180910390f35b6101af60048036038101906101aa9190611ad3565b6105a7565b6040516101bc9190611b00565b60405180910390f35b6101df60048036038101906101da9190611c50565b6105bf565b6040516101ef9493929190611c99565b60405180910390f35b610212600480360381019061020d9190611d0a565b6106e6565b005b61022e60048036038101906102299190611d97565b6108fc565b005b61024a60048036038101906102459190611ad3565b610986565b6040516102579190611b00565b60405180910390f35b61027a60048036038101906102759190611e08565b6109cf565b005b610284610d0a565b6040516102919190611e51565b60405180910390f35b6102b460048036038101906102af9190611d97565b610d2e565b6040516102c2929190611ec1565b60405180910390f35b6102e560048036038101906102e09190611c50565b610e37565b6040516102f59493929190611c99565b60405180910390f35b61031860048036038101906103139190611f10565b610eb7565b005b610334600480360381019061032f9190611d0a565b610f43565b6040516103419190611f59565b60405180910390f35b610352610fef565b60405161035f9190611e51565b60405180910390f35b610382600480360381019061037d9190611c50565b611017565b005b61038c61150e565b6040516103999190611f59565b60405180910390f35b6103aa611681565b6040516103b79190611b00565b60405180910390f35b6103c8611687565b6040516103d59190611b00565b60405180910390f35b60007f85572ffb000000000000000000000000000000000000000000000000000000007bffffffffffffffffffffffffffffffffffffffffffffffffffffffff1916827bffffffffffffffffffffffffffffffffffffffffffffffffffffffff191614806104a957507f01ffc9a7000000000000000000000000000000000000000000000000000000007bffffffffffffffffffffffffffffffffffffffffffffffffffffffff1916827bffffffffffffffffffffffffffffffffffffffffffffffffffffffff1916145b9050919050565b7f000000000000000000000000000000000000000000000000000000000000000081565b60048060000180546104e590611faa565b80601f016020809104026020016040519081016040528092919081815260200182805461051190611faa565b801561055e5780601f106105335761010080835404028352916020019161055e565b820191906000526020600020905b81548152906001019060200180831161054157829003601f168201915b5050505050908060010160009054906101000a900473ffffffffffffffffffffffffffffffffffffffff16908060010160149054906101000a900460e01b908060020154905084565b60036020528060005260406000206000915090505481565b60008060008060006002866040516105d79190612017565b90815260200160405180910390206040518060800160405290816000820160009054906101000a900473ffffffffffffffffffffffffffffffffffffffff1673ffffffffffffffffffffffffffffffffffffffff1673ffffffffffffffffffffffffffffffffffffffff1681526020016000820160149054906101000a900460e01b7bffffffffffffffffffffffffffffffffffffffffffffffffffffffff19167bffffffffffffffffffffffffffffffffffffffffffffffffffffffff19168152602001600182015481526020016002820160009054906101000a900460ff161515151581525050905080600001518160200151826040015183606001519450945094509450509193509193565b6106ee61168d565b80600360003373ffffffffffffffffffffffffffffffffffffffff1673ffffffffffffffffffffffffffffffffffffffff168152602001908152602001600020541015610770576040517f08c379a00000000000000000000000000000000000000000000000000000000081526004016107679061207a565b60405180910390fd5b7f000000000000000000000000000000000000000000000000000000000000000073ffffffffffffffffffffffffffffffffffffffff1663a9059cbb33836040518363ffffffff1660e01b81526004016107cb92919061209a565b6020604051808303816000875af11580156107ea573d6000803e3d6000fd5b505050506040513d601f19601f8201168201806040525081019061080e91906120ef565b61084d576040517f08c379a000000000000000000000000000000000000000000000000000000000815260040161084490612168565b60405180910390fd5b80600360003373ffffffffffffffffffffffffffffffffffffffff1673ffffffffffffffffffffffffffffffffffffffff168152602001908152602001600020600082825461089c91906121b7565b925050819055503373ffffffffffffffffffffffffffffffffffffffff167f7fcf532c15f0a6db0bd6d0e038bea71d30d808c7d98cb3bf7268a95bf5081b65826040516108e99190611b00565b60405180910390a26108f96116d3565b50565b600080600084848101906109109190612200565b925092509250828061091f5750815b15610951577f34ddabba2f69aabf85a5d8ae6b1e121493b4523a0a23fabf14c423ae8ba77b9160405160405180910390a15b80801561096357506000600180549050115b1561097f57600061097261150e565b905061097d81611017565b505b5050505050565b6000600360008373ffffffffffffffffffffffffffffffffffffffff1673ffffffffffffffffffffffffffffffffffffffff168152602001908152602001600020549050919050565b60028180600001906109e19190612262565b6040516109ef9291906122ea565b908152602001604051809103902060020160009054906101000a900460ff1615610c20576040518060800160405280826020016020810190610a319190611ad3565b73ffffffffffffffffffffffffffffffffffffffff168152602001826040016020810190610a5f9190611885565b7bffffffffffffffffffffffffffffffffffffffffffffffffffffffff1916815260200182606001358152602001600115158152506002828060000190610aa69190612262565b604051610ab49291906122ea565b908152602001604051809103902060008201518160000160006101000a81548173ffffffffffffffffffffffffffffffffffffffff021916908373ffffffffffffffffffffffffffffffffffffffff16021790555060208201518160000160146101000a81548163ffffffff021916908360e01c02179055506040820151816001015560608201518160020160006101000a81548160ff0219169083151502179055509050506001818060000190610b6c9190612262565b90918060018154018082558091505060019003906000526020600020016000909192909192909192909192509182610ba59291906124b0565b507fc3877d30bb9ec84aa07f97e839d3468fe04c3b2e2f6f4cc9b1d07c060c56d7bb818060000190610bd79190612262565b836020016020810190610bea9190611ad3565b846040016020810190610bfd9190611885565b8560600135604051610c139594939291906125ad565b60405180910390a1610ca8565b80606001356002828060000190610c379190612262565b604051610c459291906122ea565b9081526020016040518091039020600101819055507f5fdd496180709561b657814748a46a9f5a1f73c7151dbf77bd29f8f47de919d0818060000190610c8b9190612262565b8360600135604051610c9f939291906125fb565b60405180910390a15b8060048181610cb79190612889565b9050507fa9db86fdf3e886f65b968bb4aa24a59655162e882ebb88a8dcc4b5221dd65693818060000190610ceb9190612262565b8360600135604051610cff939291906125fb565b60405180910390a150565b7f000000000000000000000000000000000000000000000000000000000000000081565b600060606000807f000000000000000000000000000000000000000000000000000000000000000073ffffffffffffffffffffffffffffffffffffffff166370a08231306040518263ffffffff1660e01b8152600401610d8e9190611e51565b602060405180830381865afa158015610dab573d6000803e3d6000fd5b505050506040513d601f19601f82011682018060405250810190610dcf91906128ac565b1190506000806001805490501490506000600854600754610df091906128d9565b421190508180610dfd5750825b80610e055750805b9450818184604051602001610e1c9392919061290d565b60405160208183030381529060405293505050509250929050565b6002818051602081018201805184825260208301602085012081835280955050505050506000915090508060000160009054906101000a900473ffffffffffffffffffffffffffffffffffffffff16908060000160149054906101000a900460e01b908060010154908060020160009054906101000a900460ff16905084565b610ebf610fef565b73ffffffffffffffffffffffffffffffffffffffff163373ffffffffffffffffffffffffffffffffffffffff1614610f2e57336040517fd7f73334000000000000000000000000000000000000000000000000000000008152600401610f259190611e51565b60405180910390fd5b610f4081610f3b90612c58565b6116dd565b50565b60018181548110610f5357600080fd5b906000526020600020016000915090508054610f6e90611faa565b80601f0160208091040260200160405190810160405280929190818152602001828054610f9a90611faa565b8015610fe75780601f10610fbc57610100808354040283529160200191610fe7565b820191906000526020600020905b815481529060010190602001808311610fca57829003601f168201915b505050505081565b60007f0000000000000000000000000000000000000000000000000000000000000000905090565b60006002826040516110299190612017565b90815260200160405180910390206040518060800160405290816000820160009054906101000a900473ffffffffffffffffffffffffffffffffffffffff1673ffffffffffffffffffffffffffffffffffffffff1673ffffffffffffffffffffffffffffffffffffffff1681526020016000820160149054906101000a900460e01b7bffffffffffffffffffffffffffffffffffffffffffffffffffffffff19167bffffffffffffffffffffffffffffffffffffffffffffffffffffffff19168152602001600182015481526020016002820160009054906101000a900460ff16151515158152505090508060600151611158576040517f08c379a000000000000000000000000000000000000000000000000000000000815260040161114f90612cb7565b60405180910390fd5b60007f000000000000000000000000000000000000000000000000000000000000000073ffffffffffffffffffffffffffffffffffffffff166370a08231306040518263ffffffff1660e01b81526004016111b39190611e51565b602060405180830381865afa1580156111d0573d6000803e3d6000fd5b505050506040513d601f19601f820116820180604052508101906111f491906128ac565b905060008111611239576040517f08c379a000000000000000000000000000000000000000000000000000000000815260040161123090612d23565b60405180910390fd5b7f000000000000000000000000000000000000000000000000000000000000000073ffffffffffffffffffffffffffffffffffffffff1663095ea7b38360000151836040518363ffffffff1660e01b815260040161129892919061209a565b6020604051808303816000875af11580156112b7573d6000803e3d6000fd5b505050506040513d601f19601f820116820180604052508101906112db91906120ef565b50600080836000015173ffffffffffffffffffffffffffffffffffffffff1684602001517f0000000000000000000000000000000000000000000000000000000000000000853060006040516024016113379493929190612d8b565b604051602081830303815290604052907bffffffffffffffffffffffffffffffffffffffffffffffffffffffff19166020820180517bffffffffffffffffffffffffffffffffffffffffffffffffffffffff83818316178352505050506040516113a19190612e0c565b6000604051808303816000865af19150503d80600081146113de576040519150601f19603f3d011682016040523d82523d6000602084013e6113e3565b606091505b50915091508161148857604481511015611432576040517f08c379a000000000000000000000000000000000000000000000000000000000815260040161142990612e6f565b60405180910390fd5b6004810190508080602001905181019061144c9190612eff565b6040517f08c379a000000000000000000000000000000000000000000000000000000000815260040161147f9190611f59565b60405180910390fd5b816114c8576040517f08c379a00000000000000000000000000000000000000000000000000000000081526004016114bf90612e6f565b60405180910390fd5b7f4c24ee93c4c1a326f6256c49ad2bd8bf97a85e6d955cfd3c52fc5e4ad71c5677858560000151856040516114ff93929190612f48565b60405180910390a15050505050565b606060006001805490500361155a576040518060400160405280600481526020017f4e6f6e6500000000000000000000000000000000000000000000000000000000815250905061167e565b60606000805b6001805490508110156116775760006001828154811061158357611582612f86565b5b90600052602060002001805461159890611faa565b80601f01602080910402602001604051908101604052809291908181526020018280546115c490611faa565b80156116115780601f106115e657610100808354040283529160200191611611565b820191906000526020600020905b8154815290600101906020018083116115f457829003601f168201915b50505050509050826002826040516116299190612017565b9081526020016040518091039020600101541115611669576002816040516116519190612017565b90815260200160405180910390206001015492508093505b508080600101915050611560565b5081925050505b90565b60075481565b60085481565b6002600054036116c9576040517f3ee5aeb500000000000000000000000000000000000000000000000000000000815260040160405180910390fd5b6002600081905550565b6001600081905550565b600080600083606001518060200190518101906116fa9190612ff3565b9250925092506002816040516117109190612017565b908152602001604051809103902060020160009054906101000a900460ff1661176e576040517f08c379a000000000000000000000000000000000000000000000000000000000815260040161176590612cb7565b60405180910390fd5b81600360008573ffffffffffffffffffffffffffffffffffffffff1673ffffffffffffffffffffffffffffffffffffffff16815260200190815260200160002060008282546117bd91906128d9565b92505081905550836020015167ffffffffffffffff1684600001517f71d5b787d02e5cddbb57b969c9cce37fc0dd8ec840d9bbe1bd5aaf0671e7106085858560405161180b93929190613062565b60405180910390a350505050565b6000604051905090565b600080fd5b600080fd5b60007fffffffff0000000000000000000000000000000000000000000000000000000082169050919050565b6118628161182d565b811461186d57600080fd5b50565b60008135905061187f81611859565b92915050565b60006020828403121561189b5761189a611823565b5b60006118a984828501611870565b91505092915050565b60008115159050919050565b6118c7816118b2565b82525050565b60006020820190506118e260008301846118be565b92915050565b600073ffffffffffffffffffffffffffffffffffffffff82169050919050565b6000819050919050565b600061192d611928611923846118e8565b611908565b6118e8565b9050919050565b600061193f82611912565b9050919050565b600061195182611934565b9050919050565b61196181611946565b82525050565b600060208201905061197c6000830184611958565b92915050565b600081519050919050565b600082825260208201905092915050565b60005b838110156119bc5780820151818401526020810190506119a1565b60008484015250505050565b6000601f19601f8301169050919050565b60006119e482611982565b6119ee818561198d565b93506119fe81856020860161199e565b611a07816119c8565b840191505092915050565b6000611a1d826118e8565b9050919050565b611a2d81611a12565b82525050565b611a3c8161182d565b82525050565b6000819050919050565b611a5581611a42565b82525050565b60006080820190508181036000830152611a7581876119d9565b9050611a846020830186611a24565b611a916040830185611a33565b611a9e6060830184611a4c565b95945050505050565b611ab081611a12565b8114611abb57600080fd5b50565b600081359050611acd81611aa7565b92915050565b600060208284031215611ae957611ae8611823565b5b6000611af784828501611abe565b91505092915050565b6000602082019050611b156000830184611a4c565b92915050565b600080fd5b600080fd5b7f4e487b7100000000000000000000000000000000000000000000000000000000600052604160045260246000fd5b611b5d826119c8565b810181811067ffffffffffffffff82111715611b7c57611b7b611b25565b5b80604052505050565b6000611b8f611819565b9050611b9b8282611b54565b919050565b600067ffffffffffffffff821115611bbb57611bba611b25565b5b611bc4826119c8565b9050602081019050919050565b82818337600083830152505050565b6000611bf3611bee84611ba0565b611b85565b905082815260208101848484011115611c0f57611c0e611b20565b5b611c1a848285611bd1565b509392505050565b600082601f830112611c3757611c36611b1b565b5b8135611c47848260208601611be0565b91505092915050565b600060208284031215611c6657611c65611823565b5b600082013567ffffffffffffffff811115611c8457611c83611828565b5b611c9084828501611c22565b91505092915050565b6000608082019050611cae6000830187611a24565b611cbb6020830186611a33565b611cc86040830185611a4c565b611cd560608301846118be565b95945050505050565b611ce781611a42565b8114611cf257600080fd5b50565b600081359050611d0481611cde565b92915050565b600060208284031215611d2057611d1f611823565b5b6000611d2e84828501611cf5565b91505092915050565b600080fd5b600080fd5b60008083601f840112611d5757611d56611b1b565b5b8235905067ffffffffffffffff811115611d7457611d73611d37565b5b602083019150836001820283011115611d9057611d8f611d3c565b5b9250929050565b60008060208385031215611dae57611dad611823565b5b600083013567ffffffffffffffff811115611dcc57611dcb611828565b5b611dd885828601611d41565b92509250509250929050565b600080fd5b600060808284031215611dff57611dfe611de4565b5b81905092915050565b600060208284031215611e1e57611e1d611823565b5b600082013567ffffffffffffffff811115611e3c57611e3b611828565b5b611e4884828501611de9565b91505092915050565b6000602082019050611e666000830184611a24565b92915050565b600081519050919050565b600082825260208201905092915050565b6000611e9382611e6c565b611e9d8185611e77565b9350611ead81856020860161199e565b611eb6816119c8565b840191505092915050565b6000604082019050611ed660008301856118be565b8181036020830152611ee88184611e88565b90509392505050565b600060a08284031215611f0757611f06611de4565b5b81905092915050565b600060208284031215611f2657611f25611823565b5b600082013567ffffffffffffffff811115611f4457611f43611828565b5b611f5084828501611ef1565b91505092915050565b60006020820190508181036000830152611f7381846119d9565b905092915050565b7f4e487b7100000000000000000000000000000000000000000000000000000000600052602260045260246000fd5b60006002820490506001821680611fc257607f821691505b602082108103611fd557611fd4611f7b565b5b50919050565b600081905092915050565b6000611ff182611982565b611ffb8185611fdb565b935061200b81856020860161199e565b80840191505092915050565b60006120238284611fe6565b915081905092915050565b7f4e6f7420656e6f7567682062616c616e63650000000000000000000000000000600082015250565b600061206460128361198d565b915061206f8261202e565b602082019050919050565b6000602082019050818103600083015261209381612057565b9050919050565b60006040820190506120af6000830185611a24565b6120bc6020830184611a4c565b9392505050565b6120cc816118b2565b81146120d757600080fd5b50565b6000815190506120e9816120c3565b92915050565b60006020828403121561210557612104611823565b5b6000612113848285016120da565b91505092915050565b7f5472616e7366657220746f2075736572206661696c6564000000000000000000600082015250565b600061215260178361198d565b915061215d8261211c565b602082019050919050565b6000602082019050818103600083015261218181612145565b9050919050565b7f4e487b7100000000000000000000000000000000000000000000000000000000600052601160045260246000fd5b60006121c282611a42565b91506121cd83611a42565b92508282039050818111156121e5576121e4612188565b5b92915050565b6000813590506121fa816120c3565b92915050565b60008060006060848603121561221957612218611823565b5b6000612227868287016121eb565b9350506020612238868287016121eb565b9250506040612249868287016121eb565b9150509250925092565b600080fd5b600080fd5b600080fd5b6000808335600160200384360303811261227f5761227e612253565b5b80840192508235915067ffffffffffffffff8211156122a1576122a0612258565b5b6020830192506001820236038313156122bd576122bc61225d565b5b509250929050565b60006122d18385611fdb565b93506122de838584611bd1565b82840190509392505050565b60006122f78284866122c5565b91508190509392505050565b600082905092915050565b60008190508160005260206000209050919050565b60006020601f8301049050919050565b600082821b905092915050565b6000600883026123707fffffffffffffffffffffffffffffffffffffffffffffffffffffffffffffffff82612333565b61237a8683612333565b95508019841693508086168417925050509392505050565b60006123ad6123a86123a384611a42565b611908565b611a42565b9050919050565b6000819050919050565b6123c783612392565b6123db6123d3826123b4565b848454612340565b825550505050565b600090565b6123f06123e3565b6123fb8184846123be565b505050565b5b8181101561241f576124146000826123e8565b600181019050612401565b5050565b601f821115612464576124358161230e565b61243e84612323565b8101602085101561244d578190505b61246161245985612323565b830182612400565b50505b505050565b600082821c905092915050565b600061248760001984600802612469565b1980831691505092915050565b60006124a08383612476565b9150826002028217905092915050565b6124ba8383612303565b67ffffffffffffffff8111156124d3576124d2611b25565b5b6124dd8254611faa565b6124e8828285612423565b6000601f8311600181146125175760008415612505578287013590505b61250f8582612494565b865550612577565b601f1984166125258661230e565b60005b8281101561254d57848901358255600182019150602085019450602081019050612528565b8683101561256a5784890135612566601f891682612476565b8355505b6001600288020188555050505b50505050505050565b600061258c838561198d565b9350612599838584611bd1565b6125a2836119c8565b840190509392505050565b600060808201905081810360008301526125c8818789612580565b90506125d76020830186611a24565b6125e46040830185611a33565b6125f16060830184611a4c565b9695505050505050565b60006040820190508181036000830152612616818587612580565b90506126256020830184611a4c565b949350505050565b6126388383836124b0565b505050565b6000813561264a81611aa7565b80915050919050565b60008160001b9050919050565b600073ffffffffffffffffffffffffffffffffffffffff61268084612653565b9350801983169250808416831791505092915050565b60006126a182611934565b9050919050565b6000819050919050565b6126bb82612696565b6126ce6126c7826126a8565b8354612660565b8255505050565b600081356126e281611859565b80915050919050565b60008160a01b9050919050565b600077ffffffff000000000000000000000000000000000000000061271c846126eb565b9350801983169250808416831791505092915050565b600061273d8261182d565b9050919050565b60008160e01c9050919050565b600061275c82612744565b9050919050565b61276c82612732565b61277f61277882612751565b83546126f8565b8255505050565b6000813561279381611cde565b80915050919050565b60007fffffffffffffffffffffffffffffffffffffffffffffffffffffffffffffffff6127c884612653565b9350801983169250808416831791505092915050565b6127e782612392565b6127fa6127f3826123b4565b835461279c565b8255505050565b60008101600083016128138185612262565b61281e81838661262d565b505050506001810160208301806128348161263d565b905061284081846126b2565b505050600181016040830180612855816126d5565b90506128618184612763565b50505060028101606083018061287681612786565b905061288281846127de565b5050505050565b6128938282612801565b5050565b6000815190506128a681611cde565b92915050565b6000602082840312156128c2576128c1611823565b5b60006128d084828501612897565b91505092915050565b60006128e482611a42565b91506128ef83611a42565b925082820190508082111561290757612906612188565b5b92915050565b600060608201905061292260008301866118be565b61292f60208301856118be565b61293c60408301846118be565b949350505050565b600080fd5b600080fd5b6000819050919050565b6129618161294e565b811461296c57600080fd5b50565b60008135905061297e81612958565b92915050565b600067ffffffffffffffff82169050919050565b6129a181612984565b81146129ac57600080fd5b50565b6000813590506129be81612998565b92915050565b600067ffffffffffffffff8211156129df576129de611b25565b5b6129e8826119c8565b9050602081019050919050565b6000612a08612a03846129c4565b611b85565b905082815260208101848484011115612a2457612a23611b20565b5b612a2f848285611bd1565b509392505050565b600082601f830112612a4c57612a4b611b1b565b5b8135612a5c8482602086016129f5565b91505092915050565b600067ffffffffffffffff821115612a8057612a7f611b25565b5b602082029050602081019050919050565b600060408284031215612aa757612aa6612944565b5b612ab16040611b85565b90506000612ac184828501611abe565b6000830152506020612ad584828501611cf5565b60208301525092915050565b6000612af4612aef84612a65565b611b85565b90508083825260208201905060408402830185811115612b1757612b16611d3c565b5b835b81811015612b405780612b2c8882612a91565b845260208401935050604081019050612b19565b5050509392505050565b600082601f830112612b5f57612b5e611b1b565b5b8135612b6f848260208601612ae1565b91505092915050565b600060a08284031215612b8e57612b8d612944565b5b612b9860a0611b85565b90506000612ba88482850161296f565b6000830152506020612bbc848285016129af565b602083015250604082013567ffffffffffffffff811115612be057612bdf612949565b5b612bec84828501612a37565b604083015250606082013567ffffffffffffffff811115612c1057612c0f612949565b5b612c1c84828501612a37565b606083015250608082013567ffffffffffffffff811115612c4057612c3f612949565b5b612c4c84828501612b4a565b60808301525092915050565b6000612c643683612b78565b9050919050565b7f5374726174656779204e6f742052656769737465726564000000000000000000600082015250565b6000612ca160178361198d565b9150612cac82612c6b565b602082019050919050565b60006020820190508181036000830152612cd081612c94565b9050919050565b7f4e6f205553444320726563656976656400000000000000000000000000000000600082015250565b6000612d0d60108361198d565b9150612d1882612cd7565b602082019050919050565b60006020820190508181036000830152612d3c81612d00565b9050919050565b6000819050919050565b600060ff82169050919050565b6000612d75612d70612d6b84612d43565b611908565b612d4d565b9050919050565b612d8581612d5a565b82525050565b6000608082019050612da06000830187611a24565b612dad6020830186611a4c565b612dba6040830185611a24565b612dc76060830184612d7c565b95945050505050565b600081905092915050565b6000612de682611e6c565b612df08185612dd0565b9350612e0081856020860161199e565b80840191505092915050565b6000612e188284612ddb565b915081905092915050565b7f4465706f7369742063616c6c206661696c656400000000000000000000000000600082015250565b6000612e5960138361198d565b9150612e6482612e23565b602082019050919050565b60006020820190508181036000830152612e8881612e4c565b9050919050565b6000612ea2612e9d84611ba0565b611b85565b905082815260208101848484011115612ebe57612ebd611b20565b5b612ec984828561199e565b509392505050565b600082601f830112612ee657612ee5611b1b565b5b8151612ef6848260208601612e8f565b91505092915050565b600060208284031215612f1557612f14611823565b5b600082015167ffffffffffffffff811115612f3357612f32611828565b5b612f3f84828501612ed1565b91505092915050565b60006060820190508181036000830152612f6281866119d9565b9050612f716020830185611a24565b612f7e6040830184611a4c565b949350505050565b7f4e487b7100000000000000000000000000000000000000000000000000000000600052603260045260246000fd5b6000612fc0826118e8565b9050919050565b612fd081612fb5565b8114612fdb57600080fd5b50565b600081519050612fed81612fc7565b92915050565b60008060006060848603121561300c5761300b611823565b5b600061301a86828701612fde565b935050602061302b86828701612897565b925050604084015167ffffffffffffffff81111561304c5761304b611828565b5b61305886828701612ed1565b9150509250925092565b60006060820190506130776000830186611a24565b6130846020830185611a4c565b818103604083015261309681846119d9565b905094935050505056fea2646970667358221220fcd8a69ba7c8ea0471b0ba2a5100edfffb4060f5356f7b9e54bfb7ea28adb55a64736f6c634300081c0033",
          "opcodes": "PUSH1 0xE0 PUSH1 0x40 MSTORE PUSH2 0xE10 PUSH1 0x8 SSTORE CALLVALUE DUP1 ISZERO PUSH2 0x16 JUMPI PUSH1 0x0 DUP1 REVERT JUMPDEST POP PUSH1 0x40 MLOAD PUSH2 0x3360 CODESIZE SUB DUP1 PUSH2 0x3360 DUP4 CODECOPY DUP2 DUP2 ADD PUSH1 0x40 MSTORE DUP2 ADD SWAP1 PUSH2 0x38 SWAP2 SWAP1 PUSH2 0x1BB JUMP JUMPDEST DUP3 PUSH1 0x0 PUSH20 0xFFFFFFFFFFFFFFFFFFFFFFFFFFFFFFFFFFFFFFFF AND DUP2 PUSH20 0xFFFFFFFFFFFFFFFFFFFFFFFFFFFFFFFFFFFFFFFF AND SUB PUSH2 0xAB JUMPI PUSH1 0x0 PUSH1 0x40 MLOAD PUSH32 0xD7F7333400000000000000000000000000000000000000000000000000000000 DUP2 MSTORE PUSH1 0x4 ADD PUSH2 0xA2 SWAP2 SWAP1 PUSH2 0x21D JUMP JUMPDEST PUSH1 0x40 MLOAD DUP1 SWAP2 SUB SWAP1 REVERT JUMPDEST DUP1 PUSH20 0xFFFFFFFFFFFFFFFFFFFFFFFFFFFFFFFFFFFFFFFF AND PUSH1 0x80 DUP2 PUSH20 0xFFFFFFFFFFFFFFFFFFFFFFFFFFFFFFFFFFFFFFFF AND DUP2 MSTORE POP POP POP PUSH1 0x1 PUSH1 0x0 DUP2 SWAP1 SSTORE POP DUP2 PUSH20 0xFFFFFFFFFFFFFFFFFFFFFFFFFFFFFFFFFFFFFFFF AND PUSH1 0xA0 DUP2 PUSH20 0xFFFFFFFFFFFFFFFFFFFFFFFFFFFFFFFFFFFFFFFF AND DUP2 MSTORE POP POP DUP1 PUSH20 0xFFFFFFFFFFFFFFFFFFFFFFFFFFFFFFFFFFFFFFFF AND PUSH1 0xC0 DUP2 PUSH20 0xFFFFFFFFFFFFFFFFFFFFFFFFFFFFFFFFFFFFFFFF AND DUP2 MSTORE POP POP POP POP POP PUSH2 0x238 JUMP JUMPDEST PUSH1 0x0 DUP1 REVERT JUMPDEST PUSH1 0x0 PUSH20 0xFFFFFFFFFFFFFFFFFFFFFFFFFFFFFFFFFFFFFFFF DUP3 AND SWAP1 POP SWAP2 SWAP1 POP JUMP JUMPDEST PUSH1 0x0 PUSH2 0x188 DUP3 PUSH2 0x15D JUMP JUMPDEST SWAP1 POP SWAP2 SWAP1 POP JUMP JUMPDEST PUSH2 0x198 DUP2 PUSH2 0x17D JUMP JUMPDEST DUP2 EQ PUSH2 0x1A3 JUMPI PUSH1 0x0 DUP1 REVERT JUMPDEST POP JUMP JUMPDEST PUSH1 0x0 DUP2 MLOAD SWAP1 POP PUSH2 0x1B5 DUP2 PUSH2 0x18F JUMP JUMPDEST SWAP3 SWAP2 POP POP JUMP JUMPDEST PUSH1 0x0 DUP1 PUSH1 0x0 PUSH1 0x60 DUP5 DUP7 SUB SLT ISZERO PUSH2 0x1D4 JUMPI PUSH2 0x1D3 PUSH2 0x158 JUMP JUMPDEST JUMPDEST PUSH1 0x0 PUSH2 0x1E2 DUP7 DUP3 DUP8 ADD PUSH2 0x1A6 JUMP JUMPDEST SWAP4 POP POP PUSH1 0x20 PUSH2 0x1F3 DUP7 DUP3 DUP8 ADD PUSH2 0x1A6 JUMP JUMPDEST SWAP3 POP POP PUSH1 0x40 PUSH2 0x204 DUP7 DUP3 DUP8 ADD PUSH2 0x1A6 JUMP JUMPDEST SWAP2 POP POP SWAP3 POP SWAP3 POP SWAP3 JUMP JUMPDEST PUSH2 0x217 DUP2 PUSH2 0x17D JUMP JUMPDEST DUP3 MSTORE POP POP JUMP JUMPDEST PUSH1 0x0 PUSH1 0x20 DUP3 ADD SWAP1 POP PUSH2 0x232 PUSH1 0x0 DUP4 ADD DUP5 PUSH2 0x20E JUMP JUMPDEST SWAP3 SWAP2 POP POP JUMP JUMPDEST PUSH1 0x80 MLOAD PUSH1 0xA0 MLOAD PUSH1 0xC0 MLOAD PUSH2 0x30D6 PUSH2 0x28A PUSH1 0x0 CODECOPY PUSH1 0x0 PUSH2 0xD0C ADD MSTORE PUSH1 0x0 DUP2 DUP2 PUSH2 0x4B2 ADD MSTORE DUP2 DUP2 PUSH2 0x772 ADD MSTORE DUP2 DUP2 PUSH2 0xD37 ADD MSTORE DUP2 DUP2 PUSH2 0x115C ADD MSTORE DUP2 DUP2 PUSH2 0x123B ADD MSTORE PUSH2 0x1301 ADD MSTORE PUSH1 0x0 PUSH2 0xFF3 ADD MSTORE PUSH2 0x30D6 PUSH1 0x0 RETURN INVALID PUSH1 0x80 PUSH1 0x40 MSTORE CALLVALUE DUP1 ISZERO PUSH2 0x10 JUMPI PUSH1 0x0 DUP1 REVERT JUMPDEST POP PUSH1 0x4 CALLDATASIZE LT PUSH2 0x121 JUMPI PUSH1 0x0 CALLDATALOAD PUSH1 0xE0 SHR DUP1 PUSH4 0x67F235EA GT PUSH2 0xAD JUMPI DUP1 PUSH4 0xB0F479A1 GT PUSH2 0x71 JUMPI DUP1 PUSH4 0xB0F479A1 EQ PUSH2 0x34A JUMPI DUP1 PUSH4 0xC231BCF3 EQ PUSH2 0x368 JUMPI DUP1 PUSH4 0xC7C36538 EQ PUSH2 0x384 JUMPI DUP1 PUSH4 0xD0B06F5D EQ PUSH2 0x3A2 JUMPI DUP1 PUSH4 0xFD2C80AE EQ PUSH2 0x3C0 JUMPI PUSH2 0x121 JUMP JUMPDEST DUP1 PUSH4 0x67F235EA EQ PUSH2 0x27C JUMPI DUP1 PUSH4 0x6E04FF0D EQ PUSH2 0x29A JUMPI DUP1 PUSH4 0x780F1ACD EQ PUSH2 0x2CB JUMPI DUP1 PUSH4 0x85572FFB EQ PUSH2 0x2FE JUMPI DUP1 PUSH4 0xA267526B EQ PUSH2 0x31A JUMPI PUSH2 0x121 JUMP JUMPDEST DUP1 PUSH4 0x26F9DD1E GT PUSH2 0xF4 JUMPI DUP1 PUSH4 0x26F9DD1E EQ PUSH2 0x1C5 JUMPI DUP1 PUSH4 0x377C58BF EQ PUSH2 0x1F8 JUMPI DUP1 PUSH4 0x4585E33B EQ PUSH2 0x214 JUMPI DUP1 PUSH4 0x47734892 EQ PUSH2 0x230 JUMPI DUP1 PUSH4 0x47B3B205 EQ PUSH2 0x260 JUMPI PUSH2 0x121 JUMP JUMPDEST DUP1 PUSH4 0x1FFC9A7 EQ PUSH2 0x126 JUMPI DUP1 PUSH4 0x11EAC855 EQ PUSH2 0x156 JUMPI DUP1 PUSH4 0x1C4A76C6 EQ PUSH2 0x174 JUMPI DUP1 PUSH4 0x26224C64 EQ PUSH2 0x195 JUMPI JUMPDEST PUSH1 0x0 DUP1 REVERT JUMPDEST PUSH2 0x140 PUSH1 0x4 DUP1 CALLDATASIZE SUB DUP2 ADD SWAP1 PUSH2 0x13B SWAP2 SWAP1 PUSH2 0x1885 JUMP JUMPDEST PUSH2 0x3DE JUMP JUMPDEST PUSH1 0x40 MLOAD PUSH2 0x14D SWAP2 SWAP1 PUSH2 0x18CD JUMP JUMPDEST PUSH1 0x40 MLOAD DUP1 SWAP2 SUB SWAP1 RETURN JUMPDEST PUSH2 0x15E PUSH2 0x4B0 JUMP JUMPDEST PUSH1 0x40 MLOAD PUSH2 0x16B SWAP2 SWAP1 PUSH2 0x1967 JUMP JUMPDEST PUSH1 0x40 MLOAD DUP1 SWAP2 SUB SWAP1 RETURN JUMPDEST PUSH2 0x17C PUSH2 0x4D4 JUMP JUMPDEST PUSH1 0x40 MLOAD PUSH2 0x18C SWAP5 SWAP4 SWAP3 SWAP2 SWAP1 PUSH2 0x1A5B JUMP JUMPDEST PUSH1 0x40 MLOAD DUP1 SWAP2 SUB SWAP1 RETURN JUMPDEST PUSH2 0x1AF PUSH1 0x4 DUP1 CALLDATASIZE SUB DUP2 ADD SWAP1 PUSH2 0x1AA SWAP2 SWAP1 PUSH2 0x1AD3 JUMP JUMPDEST PUSH2 0x5A7 JUMP JUMPDEST PUSH1 0x40 MLOAD PUSH2 0x1BC SWAP2 SWAP1 PUSH2 0x1B00 JUMP JUMPDEST PUSH1 0x40 MLOAD DUP1 SWAP2 SUB SWAP1 RETURN JUMPDEST PUSH2 0x1DF PUSH1 0x4 DUP1 CALLDATASIZE SUB DUP2 ADD SWAP1 PUSH2 0x1DA SWAP2 SWAP1 PUSH2 0x1C50 JUMP JUMPDEST PUSH2 0x5BF JUMP JUMPDEST PUSH1 0x40 MLOAD PUSH2 0x1EF SWAP5 SWAP4 SWAP3 SWAP2 SWAP1 PUSH2 0x1C99 JUMP JUMPDEST PUSH1 0x40 MLOAD DUP1 SWAP2 SUB SWAP1 RETURN JUMPDEST PUSH2 0x212 PUSH1 0x4 DUP1 CALLDATASIZE SUB DUP2 ADD SWAP1 PUSH2 0x20D SWAP2 SWAP1 PUSH2 0x1D0A JUMP JUMPDEST PUSH2 0x6E6 JUMP JUMPDEST STOP JUMPDEST PUSH2 0x22E PUSH1 0x4 DUP1 CALLDATASIZE SUB DUP2 ADD SWAP1 PUSH2 0x229 SWAP2 SWAP1 PUSH2 0x1D97 JUMP JUMPDEST PUSH2 0x8FC JUMP JUMPDEST STOP JUMPDEST PUSH2 0x24A PUSH1 0x4 DUP1 CALLDATASIZE SUB DUP2 ADD SWAP1 PUSH2 0x245 SWAP2 SWAP1 PUSH2 0x1AD3 JUMP JUMPDEST PUSH2 0x986 JUMP JUMPDEST PUSH1 0x40 MLOAD PUSH2 0x257 SWAP2 SWAP1 PUSH2 0x1B00 JUMP JUMPDEST PUSH1 0x40 MLOAD DUP1 SWAP2 SUB SWAP1 RETURN JUMPDEST PUSH2 0x27A PUSH1 0x4 DUP1 CALLDATASIZE SUB DUP2 ADD SWAP1 PUSH2 0x275 SWAP2 SWAP1 PUSH2 0x1E08 JUMP JUMPDEST PUSH2 0x9CF JUMP JUMPDEST STOP JUMPDEST PUSH2 0x284 PUSH2 0xD0A JUMP JUMPDEST PUSH1 0x40 MLOAD PUSH2 0x291 SWAP2 SWAP1 PUSH2 0x1E51 JUMP JUMPDEST PUSH1 0x40 MLOAD DUP1 SWAP2 SUB SWAP1 RETURN JUMPDEST PUSH2 0x2B4 PUSH1 0x4 DUP1 CALLDATASIZE SUB DUP2 ADD SWAP1 PUSH2 0x2AF SWAP2 SWAP1 PUSH2 0x1D97 JUMP JUMPDEST PUSH2 0xD2E JUMP JUMPDEST PUSH1 0x40 MLOAD PUSH2 0x2C2 SWAP3 SWAP2 SWAP1 PUSH2 0x1EC1 JUMP JUMPDEST PUSH1 0x40 MLOAD DUP1 SWAP2 SUB SWAP1 RETURN JUMPDEST PUSH2 0x2E5 PUSH1 0x4 DUP1 CALLDATASIZE SUB DUP2 ADD SWAP1 PUSH2 0x2E0 SWAP2 SWAP1 PUSH2 0x1C50 JUMP JUMPDEST PUSH2 0xE37 JUMP JUMPDEST PUSH1 0x40 MLOAD PUSH2 0x2F5 SWAP5 SWAP4 SWAP3 SWAP2 SWAP1 PUSH2 0x1C99 JUMP JUMPDEST PUSH1 0x40 MLOAD DUP1 SWAP2 SUB SWAP1 RETURN JUMPDEST PUSH2 0x318 PUSH1 0x4 DUP1 CALLDATASIZE SUB DUP2 ADD SWAP1 PUSH2 0x313 SWAP2 SWAP1 PUSH2 0x1F10 JUMP JUMPDEST PUSH2 0xEB7 JUMP JUMPDEST STOP JUMPDEST PUSH2 0x334 PUSH1 0x4 DUP1 CALLDATASIZE SUB DUP2 ADD SWAP1 PUSH2 0x32F SWAP2 SWAP1 PUSH2 0x1D0A JUMP JUMPDEST PUSH2 0xF43 JUMP JUMPDEST PUSH1 0x40 MLOAD PUSH2 0x341 SWAP2 SWAP1 PUSH2 0x1F59 JUMP JUMPDEST PUSH1 0x40 MLOAD DUP1 SWAP2 SUB SWAP1 RETURN JUMPDEST PUSH2 0x352 PUSH2 0xFEF JUMP JUMPDEST PUSH1 0x40 MLOAD PUSH2 0x35F SWAP2 SWAP1 PUSH2 0x1E51 JUMP JUMPDEST PUSH1 0x40 MLOAD DUP1 SWAP2 SUB SWAP1 RETURN JUMPDEST PUSH2 0x382 PUSH1 0x4 DUP1 CALLDATASIZE SUB DUP2 ADD SWAP1 PUSH2 0x37D SWAP2 SWAP1 PUSH2 0x1C50 JUMP JUMPDEST PUSH2 0x1017 JUMP JUMPDEST STOP JUMPDEST PUSH2 0x38C PUSH2 0x150E JUMP JUMPDEST PUSH1 0x40 MLOAD PUSH2 0x399 SWAP2 SWAP1 PUSH2 0x1F59 JUMP JUMPDEST PUSH1 0x40 MLOAD DUP1 SWAP2 SUB SWAP1 RETURN JUMPDEST PUSH2 0x3AA PUSH2 0x1681 JUMP JUMPDEST PUSH1 0x40 MLOAD PUSH2 0x3B7 SWAP2 SWAP1 PUSH2 0x1B00 JUMP JUMPDEST PUSH1 0x40 MLOAD DUP1 SWAP2 SUB SWAP1 RETURN JUMPDEST PUSH2 0x3C8 PUSH2 0x1687 JUMP JUMPDEST PUSH1 0x40 MLOAD PUSH2 0x3D5 SWAP2 SWAP1 PUSH2 0x1B00 JUMP JUMPDEST PUSH1 0x40 MLOAD DUP1 SWAP2 SUB SWAP1 RETURN JUMPDEST PUSH1 0x0 PUSH32 0x85572FFB00000000000000000000000000000000000000000000000000000000 PUSH28 0xFFFFFFFFFFFFFFFFFFFFFFFFFFFFFFFFFFFFFFFFFFFFFFFFFFFFFFFF NOT AND DUP3 PUSH28 0xFFFFFFFFFFFFFFFFFFFFFFFFFFFFFFFFFFFFFFFFFFFFFFFFFFFFFFFF NOT AND EQ DUP1 PUSH2 0x4A9 JUMPI POP PUSH32 0x1FFC9A700000000000000000000000000000000000000000000000000000000 PUSH28 0xFFFFFFFFFFFFFFFFFFFFFFFFFFFFFFFFFFFFFFFFFFFFFFFFFFFFFFFF NOT AND DUP3 PUSH28 0xFFFFFFFFFFFFFFFFFFFFFFFFFFFFFFFFFFFFFFFFFFFFFFFFFFFFFFFF NOT AND EQ JUMPDEST SWAP1 POP SWAP2 SWAP1 POP JUMP JUMPDEST PUSH32 0x0 DUP2 JUMP JUMPDEST PUSH1 0x4 DUP1 PUSH1 0x0 ADD DUP1 SLOAD PUSH2 0x4E5 SWAP1 PUSH2 0x1FAA JUMP JUMPDEST DUP1 PUSH1 0x1F ADD PUSH1 0x20 DUP1 SWAP2 DIV MUL PUSH1 0x20 ADD PUSH1 0x40 MLOAD SWAP1 DUP2 ADD PUSH1 0x40 MSTORE DUP1 SWAP3 SWAP2 SWAP1 DUP2 DUP2 MSTORE PUSH1 0x20 ADD DUP3 DUP1 SLOAD PUSH2 0x511 SWAP1 PUSH2 0x1FAA JUMP JUMPDEST DUP1 ISZERO PUSH2 0x55E JUMPI DUP1 PUSH1 0x1F LT PUSH2 0x533 JUMPI PUSH2 0x100 DUP1 DUP4 SLOAD DIV MUL DUP4 MSTORE SWAP2 PUSH1 0x20 ADD SWAP2 PUSH2 0x55E JUMP JUMPDEST DUP3 ADD SWAP2 SWAP1 PUSH1 0x0 MSTORE PUSH1 0x20 PUSH1 0x0 KECCAK256 SWAP1 JUMPDEST DUP2 SLOAD DUP2 MSTORE SWAP1 PUSH1 0x1 ADD SWAP1 PUSH1 0x20 ADD DUP1 DUP4 GT PUSH2 0x541 JUMPI DUP3 SWAP1 SUB PUSH1 0x1F AND DUP3 ADD SWAP2 JUMPDEST POP POP POP POP POP SWAP1 DUP1 PUSH1 0x1 ADD PUSH1 0x0 SWAP1 SLOAD SWAP1 PUSH2 0x100 EXP SWAP1 DIV PUSH20 0xFFFFFFFFFFFFFFFFFFFFFFFFFFFFFFFFFFFFFFFF AND SWAP1 DUP1 PUSH1 0x1 ADD PUSH1 0x14 SWAP1 SLOAD SWAP1 PUSH2 0x100 EXP SWAP1 DIV PUSH1 0xE0 SHL SWAP1 DUP1 PUSH1 0x2 ADD SLOAD SWAP1 POP DUP5 JUMP JUMPDEST PUSH1 0x3 PUSH1 0x20 MSTORE DUP1 PUSH1 0x0 MSTORE PUSH1 0x40 PUSH1 0x0 KECCAK256 PUSH1 0x0 SWAP2 POP SWAP1 POP SLOAD DUP2 JUMP JUMPDEST PUSH1 0x0 DUP1 PUSH1 0x0 DUP1 PUSH1 0x0 PUSH1 0x2 DUP7 PUSH1 0x40 MLOAD PUSH2 0x5D7 SWAP2 SWAP1 PUSH2 0x2017 JUMP JUMPDEST SWAP1 DUP2 MSTORE PUSH1 0x20 ADD PUSH1 0x40 MLOAD DUP1 SWAP2 SUB SWAP1 KECCAK256 PUSH1 0x40 MLOAD DUP1 PUSH1 0x80 ADD PUSH1 0x40 MSTORE SWAP1 DUP2 PUSH1 0x0 DUP3 ADD PUSH1 0x0 SWAP1 SLOAD SWAP1 PUSH2 0x100 EXP SWAP1 DIV PUSH20 0xFFFFFFFFFFFFFFFFFFFFFFFFFFFFFFFFFFFFFFFF AND PUSH20 0xFFFFFFFFFFFFFFFFFFFFFFFFFFFFFFFFFFFFFFFF AND PUSH20 0xFFFFFFFFFFFFFFFFFFFFFFFFFFFFFFFFFFFFFFFF AND DUP2 MSTORE PUSH1 0x20 ADD PUSH1 0x0 DUP3 ADD PUSH1 0x14 SWAP1 SLOAD SWAP1 PUSH2 0x100 EXP SWAP1 DIV PUSH1 0xE0 SHL PUSH28 0xFFFFFFFFFFFFFFFFFFFFFFFFFFFFFFFFFFFFFFFFFFFFFFFFFFFFFFFF NOT AND PUSH28 0xFFFFFFFFFFFFFFFFFFFFFFFFFFFFFFFFFFFFFFFFFFFFFFFFFFFFFFFF NOT AND DUP2 MSTORE PUSH1 0x20 ADD PUSH1 0x1 DUP3 ADD SLOAD DUP2 MSTORE PUSH1 0x20 ADD PUSH1 0x2 DUP3 ADD PUSH1 0x0 SWAP1 SLOAD SWAP1 PUSH2 0x100 EXP SWAP1 DIV PUSH1 0xFF AND ISZERO ISZERO ISZERO ISZERO DUP2 MSTORE POP POP SWAP1 POP DUP1 PUSH1 0x0 ADD MLOAD DUP2 PUSH1 0x20 ADD MLOAD DUP3 PUSH1 0x40 ADD MLOAD DUP4 PUSH1 0x60 ADD MLOAD SWAP5 POP SWAP5 POP SWAP5 POP SWAP5 POP POP SWAP2 SWAP4 POP SWAP2 SWAP4 JUMP JUMPDEST PUSH2 0x6EE PUSH2 0x168D JUMP JUMPDEST DUP1 PUSH1 0x3 PUSH1 0x0 CALLER PUSH20 0xFFFFFFFFFFFFFFFFFFFFFFFFFFFFFFFFFFFFFFFF AND PUSH20 0xFFFFFFFFFFFFFFFFFFFFFFFFFFFFFFFFFFFFFFFF AND DUP2 MSTORE PUSH1 0x20 ADD SWAP1 DUP2 MSTORE PUSH1 0x20 ADD PUSH1 0x0 KECCAK256 SLOAD LT ISZERO PUSH2 0x770 JUMPI PUSH1 0x40 MLOAD PUSH32 0x8C379A000000000000000000000000000000000000000000000000000000000 DUP2 MSTORE PUSH1 0x4 ADD PUSH2 0x767 SWAP1 PUSH2 0x207A JUMP JUMPDEST PUSH1 0x40 MLOAD DUP1 SWAP2 SUB SWAP1 REVERT JUMPDEST PUSH32 0x0 PUSH20 0xFFFFFFFFFFFFFFFFFFFFFFFFFFFFFFFFFFFFFFFF AND PUSH4 0xA9059CBB CALLER DUP4 PUSH1 0x40 MLOAD DUP4 PUSH4 0xFFFFFFFF AND PUSH1 0xE0 SHL DUP2 MSTORE PUSH1 0x4 ADD PUSH2 0x7CB SWAP3 SWAP2 SWAP1 PUSH2 0x209A JUMP JUMPDEST PUSH1 0x20 PUSH1 0x40 MLOAD DUP1 DUP4 SUB DUP2 PUSH1 0x0 DUP8 GAS CALL ISZERO DUP1 ISZERO PUSH2 0x7EA JUMPI RETURNDATASIZE PUSH1 0x0 DUP1 RETURNDATACOPY RETURNDATASIZE PUSH1 0x0 REVERT JUMPDEST POP POP POP POP PUSH1 0x40 MLOAD RETURNDATASIZE PUSH1 0x1F NOT PUSH1 0x1F DUP3 ADD AND DUP3 ADD DUP1 PUSH1 0x40 MSTORE POP DUP2 ADD SWAP1 PUSH2 0x80E SWAP2 SWAP1 PUSH2 0x20EF JUMP JUMPDEST PUSH2 0x84D JUMPI PUSH1 0x40 MLOAD PUSH32 0x8C379A000000000000000000000000000000000000000000000000000000000 DUP2 MSTORE PUSH1 0x4 ADD PUSH2 0x844 SWAP1 PUSH2 0x2168 JUMP JUMPDEST PUSH1 0x40 MLOAD DUP1 SWAP2 SUB SWAP1 REVERT JUMPDEST DUP1 PUSH1 0x3 PUSH1 0x0 CALLER PUSH20 0xFFFFFFFFFFFFFFFFFFFFFFFFFFFFFFFFFFFFFFFF AND PUSH20 0xFFFFFFFFFFFFFFFFFFFFFFFFFFFFFFFFFFFFFFFF AND DUP2 MSTORE PUSH1 0x20 ADD SWAP1 DUP2 MSTORE PUSH1 0x20 ADD PUSH1 0x0 KECCAK256 PUSH1 0x0 DUP3 DUP3 SLOAD PUSH2 0x89C SWAP2 SWAP1 PUSH2 0x21B7 JUMP JUMPDEST SWAP3 POP POP DUP2 SWAP1 SSTORE POP CALLER PUSH20 0xFFFFFFFFFFFFFFFFFFFFFFFFFFFFFFFFFFFFFFFF AND PUSH32 0x7FCF532C15F0A6DB0BD6D0E038BEA71D30D808C7D98CB3BF7268A95BF5081B65 DUP3 PUSH1 0x40 MLOAD PUSH2 0x8E9 SWAP2 SWAP1 PUSH2 0x1B00 JUMP JUMPDEST PUSH1 0x40 MLOAD DUP1 SWAP2 SUB SWAP1 LOG2 PUSH2 0x8F9 PUSH2 0x16D3 JUMP JUMPDEST POP JUMP JUMPDEST PUSH1 0x0 DUP1 PUSH1 0x0 DUP5 DUP5 DUP2 ADD SWAP1 PUSH2 0x910 SWAP2 SWAP1 PUSH2 0x2200 JUMP JUMPDEST SWAP3 POP SWAP3 POP SWAP3 POP DUP3 DUP1 PUSH2 0x91F JUMPI POP DUP2 JUMPDEST ISZERO PUSH2 0x951 JUMPI PUSH32 0x34DDABBA2F69AABF85A5D8AE6B1E121493B4523A0A23FABF14C423AE8BA77B91 PUSH1 0x40 MLOAD PUSH1 0x40 MLOAD DUP1 SWAP2 SUB SWAP1 LOG1 JUMPDEST DUP1 DUP1 ISZERO PUSH2 0x963 JUMPI POP PUSH1 0x0 PUSH1 0x1 DUP1 SLOAD SWAP1 POP GT JUMPDEST ISZERO PUSH2 0x97F JUMPI PUSH1 0x0 PUSH2 0x972 PUSH2 0x150E JUMP JUMPDEST SWAP1 POP PUSH2 0x97D DUP2 PUSH2 0x1017 JUMP JUMPDEST POP JUMPDEST POP POP POP POP POP JUMP JUMPDEST PUSH1 0x0 PUSH1 0x3 PUSH1 0x0 DUP4 PUSH20 0xFFFFFFFFFFFFFFFFFFFFFFFFFFFFFFFFFFFFFFFF AND PUSH20 0xFFFFFFFFFFFFFFFFFFFFFFFFFFFFFFFFFFFFFFFF AND DUP2 MSTORE PUSH1 0x20 ADD SWAP1 DUP2 MSTORE PUSH1 0x20 ADD PUSH1 0x0 KECCAK256 SLOAD SWAP1 POP SWAP2 SWAP1 POP JUMP JUMPDEST PUSH1 0x2 DUP2 DUP1 PUSH1 0x0 ADD SWAP1 PUSH2 0x9E1 SWAP2 SWAP1 PUSH2 0x2262 JUMP JUMPDEST PUSH1 0x40 MLOAD PUSH2 0x9EF SWAP3 SWAP2 SWAP1 PUSH2 0x22EA JUMP JUMPDEST SWAP1 DUP2 MSTORE PUSH1 0x20 ADD PUSH1 0x40 MLOAD DUP1 SWAP2 SUB SWAP1 KECCAK256 PUSH1 0x2 ADD PUSH1 0x0 SWAP1 SLOAD SWAP1 PUSH2 0x100 EXP SWAP1 DIV PUSH1 0xFF AND ISZERO PUSH2 0xC20 JUMPI PUSH1 0x40 MLOAD DUP1 PUSH1 0x80 ADD PUSH1 0x40 MSTORE DUP1 DUP3 PUSH1 0x20 ADD PUSH1 0x20 DUP2 ADD SWAP1 PUSH2 0xA31 SWAP2 SWAP1 PUSH2 0x1AD3 JUMP JUMPDEST PUSH20 0xFFFFFFFFFFFFFFFFFFFFFFFFFFFFFFFFFFFFFFFF AND DUP2 MSTORE PUSH1 0x20 ADD DUP3 PUSH1 0x40 ADD PUSH1 0x20 DUP2 ADD SWAP1 PUSH2 0xA5F SWAP2 SWAP1 PUSH2 0x1885 JUMP JUMPDEST PUSH28 0xFFFFFFFFFFFFFFFFFFFFFFFFFFFFFFFFFFFFFFFFFFFFFFFFFFFFFFFF NOT AND DUP2 MSTORE PUSH1 0x20 ADD DUP3 PUSH1 0x60 ADD CALLDATALOAD DUP2 MSTORE PUSH1 0x20 ADD PUSH1 0x1 ISZERO ISZERO DUP2 MSTORE POP PUSH1 0x2 DUP3 DUP1 PUSH1 0x0 ADD SWAP1 PUSH2 0xAA6 SWAP2 SWAP1 PUSH2 0x2262 JUMP JUMPDEST PUSH1 0x40 MLOAD PUSH2 0xAB4 SWAP3 SWAP2 SWAP1 PUSH2 0x22EA JUMP JUMPDEST SWAP1 DUP2 MSTORE PUSH1 0x20 ADD PUSH1 0x40 MLOAD DUP1 SWAP2 SUB SWAP1 KECCAK256 PUSH1 0x0 DUP3 ADD MLOAD DUP2 PUSH1 0x0 ADD PUSH1 0x0 PUSH2 0x100 EXP DUP2 SLOAD DUP2 PUSH20 0xFFFFFFFFFFFFFFFFFFFFFFFFFFFFFFFFFFFFFFFF MUL NOT AND SWAP1 DUP4 PUSH20 0xFFFFFFFFFFFFFFFFFFFFFFFFFFFFFFFFFFFFFFFF AND MUL OR SWAP1 SSTORE POP PUSH1 0x20 DUP3 ADD MLOAD DUP2 PUSH1 0x0 ADD PUSH1 0x14 PUSH2 0x100 EXP DUP2 SLOAD DUP2 PUSH4 0xFFFFFFFF MUL NOT AND SWAP1 DUP4 PUSH1 0xE0 SHR MUL OR SWAP1 SSTORE POP PUSH1 0x40 DUP3 ADD MLOAD DUP2 PUSH1 0x1 ADD SSTORE PUSH1 0x60 DUP3 ADD MLOAD DUP2 PUSH1 0x2 ADD PUSH1 0x0 PUSH2 0x100 EXP DUP2 SLOAD DUP2 PUSH1 0xFF MUL NOT AND SWAP1 DUP4 ISZERO ISZERO MUL OR SWAP1 SSTORE POP SWAP1 POP POP PUSH1 0x1 DUP2 DUP1 PUSH1 0x0 ADD SWAP1 PUSH2 0xB6C SWAP2 SWAP1 PUSH2 0x2262 JUMP JUMPDEST SWAP1 SWAP2 DUP1 PUSH1 0x1 DUP2 SLOAD ADD DUP1 DUP3 SSTORE DUP1 SWAP2 POP POP PUSH1 0x1 SWAP1 SUB SWAP1 PUSH1 0x0 MSTORE PUSH1 0x20 PUSH1 0x0 KECCAK256 ADD PUSH1 0x0 SWAP1 SWAP2 SWAP3 SWAP1 SWAP2 SWAP3 SWAP1 SWAP2 SWAP3 SWAP1 SWAP2 SWAP3 POP SWAP2 DUP3 PUSH2 0xBA5 SWAP3 SWAP2 SWAP1 PUSH2 0x24B0 JUMP JUMPDEST POP PUSH32 0xC3877D30BB9EC84AA07F97E839D3468FE04C3B2E2F6F4CC9B1D07C060C56D7BB DUP2 DUP1 PUSH1 0x0 ADD SWAP1 PUSH2 0xBD7 SWAP2 SWAP1 PUSH2 0x2262 JUMP JUMPDEST DUP4 PUSH1 0x20 ADD PUSH1 0x20 DUP2 ADD SWAP1 PUSH2 0xBEA SWAP2 SWAP1 PUSH2 0x1AD3 JUMP JUMPDEST DUP5 PUSH1 0x40 ADD PUSH1 0x20 DUP2 ADD SWAP1 PUSH2 0xBFD SWAP2 SWAP1 PUSH2 0x1885 JUMP JUMPDEST DUP6 PUSH1 0x60 ADD CALLDATALOAD PUSH1 0x40 MLOAD PUSH2 0xC13 SWAP6 SWAP5 SWAP4 SWAP3 SWAP2 SWAP1 PUSH2 0x25AD JUMP JUMPDEST PUSH1 0x40 MLOAD DUP1 SWAP2 SUB SWAP1 LOG1 PUSH2 0xCA8 JUMP JUMPDEST DUP1 PUSH1 0x60 ADD CALLDATALOAD PUSH1 0x2 DUP3 DUP1 PUSH1 0x0 ADD SWAP1 PUSH2 0xC37 SWAP2 SWAP1 PUSH2 0x2262 JUMP JUMPDEST PUSH1 0x40 MLOAD PUSH2 0xC45 SWAP3 SWAP2 SWAP1 PUSH2 0x22EA JUMP JUMPDEST SWAP1 DUP2 MSTORE PUSH1 0x20 ADD PUSH1 0x40 MLOAD DUP1 SWAP2 SUB SWAP1 KECCAK256 PUSH1 0x1 ADD DUP2 SWAP1 SSTORE POP PUSH32 0x5FDD496180709561B657814748A46A9F5A1F73C7151DBF77BD29F8F47DE919D0 DUP2 DUP1 PUSH1 0x0 ADD SWAP1 PUSH2 0xC8B SWAP2 SWAP1 PUSH2 0x2262 JUMP JUMPDEST DUP4 PUSH1 0x60 ADD CALLDATALOAD PUSH1 0x40 MLOAD PUSH2 0xC9F SWAP4 SWAP3 SWAP2 SWAP1 PUSH2 0x25FB JUMP JUMPDEST PUSH1 0x40 MLOAD DUP1 SWAP2 SUB SWAP1 LOG1 JUMPDEST DUP1 PUSH1 0x4 DUP2 DUP2 PUSH2 0xCB7 SWAP2 SWAP1 PUSH2 0x2889 JUMP JUMPDEST SWAP1 POP POP PUSH32 0xA9DB86FDF3E886F65B968BB4AA24A59655162E882EBB88A8DCC4B5221DD65693 DUP2 DUP1 PUSH1 0x0 ADD SWAP1 PUSH2 0xCEB SWAP2 SWAP1 PUSH2 0x2262 JUMP JUMPDEST DUP4 PUSH1 0x60 ADD CALLDATALOAD PUSH1 0x40 MLOAD PUSH2 0xCFF SWAP4 SWAP3 SWAP2 SWAP1 PUSH2 0x25FB JUMP JUMPDEST PUSH1 0x40 MLOAD DUP1 SWAP2 SUB SWAP1 LOG1 POP JUMP JUMPDEST PUSH32 0x0 DUP2 JUMP JUMPDEST PUSH1 0x0 PUSH1 0x60 PUSH1 0x0 DUP1 PUSH32 0x0 PUSH20 0xFFFFFFFFFFFFFFFFFFFFFFFFFFFFFFFFFFFFFFFF AND PUSH4 0x70A08231 ADDRESS PUSH1 0x40 MLOAD DUP3 PUSH4 0xFFFFFFFF AND PUSH1 0xE0 SHL DUP2 MSTORE PUSH1 0x4 ADD PUSH2 0xD8E SWAP2 SWAP1 PUSH2 0x1E51 JUMP JUMPDEST PUSH1 0x20 PUSH1 0x40 MLOAD DUP1 DUP4 SUB DUP2 DUP7 GAS STATICCALL ISZERO DUP1 ISZERO PUSH2 0xDAB JUMPI RETURNDATASIZE PUSH1 0x0 DUP1 RETURNDATACOPY RETURNDATASIZE PUSH1 0x0 REVERT JUMPDEST POP POP POP POP PUSH1 0x40 MLOAD RETURNDATASIZE PUSH1 0x1F NOT PUSH1 0x1F DUP3 ADD AND DUP3 ADD DUP1 PUSH1 0x40 MSTORE POP DUP2 ADD SWAP1 PUSH2 0xDCF SWAP2 SWAP1 PUSH2 0x28AC JUMP JUMPDEST GT SWAP1 POP PUSH1 0x0 DUP1 PUSH1 0x1 DUP1 SLOAD SWAP1 POP EQ SWAP1 POP PUSH1 0x0 PUSH1 0x8 SLOAD PUSH1 0x7 SLOAD PUSH2 0xDF0 SWAP2 SWAP1 PUSH2 0x28D9 JUMP JUMPDEST TIMESTAMP GT SWAP1 POP DUP2 DUP1 PUSH2 0xDFD JUMPI POP DUP3 JUMPDEST DUP1 PUSH2 0xE05 JUMPI POP DUP1 JUMPDEST SWAP5 POP DUP2 DUP2 DUP5 PUSH1 0x40 MLOAD PUSH1 0x20 ADD PUSH2 0xE1C SWAP4 SWAP3 SWAP2 SWAP1 PUSH2 0x290D JUMP JUMPDEST PUSH1 0x40 MLOAD PUSH1 0x20 DUP2 DUP4 SUB SUB DUP2 MSTORE SWAP1 PUSH1 0x40 MSTORE SWAP4 POP POP POP POP SWAP3 POP SWAP3 SWAP1 POP JUMP JUMPDEST PUSH1 0x2 DUP2 DUP1 MLOAD PUSH1 0x20 DUP2 ADD DUP3 ADD DUP1 MLOAD DUP5 DUP3 MSTORE PUSH1 0x20 DUP4 ADD PUSH1 0x20 DUP6 ADD KECCAK256 DUP2 DUP4 MSTORE DUP1 SWAP6 POP POP POP POP POP POP PUSH1 0x0 SWAP2 POP SWAP1 POP DUP1 PUSH1 0x0 ADD PUSH1 0x0 SWAP1 SLOAD SWAP1 PUSH2 0x100 EXP SWAP1 DIV PUSH20 0xFFFFFFFFFFFFFFFFFFFFFFFFFFFFFFFFFFFFFFFF AND SWAP1 DUP1 PUSH1 0x0 ADD PUSH1 0x14 SWAP1 SLOAD SWAP1 PUSH2 0x100 EXP SWAP1 DIV PUSH1 0xE0 SHL SWAP1 DUP1 PUSH1 0x1 ADD SLOAD SWAP1 DUP1 PUSH1 0x2 ADD PUSH1 0x0 SWAP1 SLOAD SWAP1 PUSH2 0x100 EXP SWAP1 DIV PUSH1 0xFF AND SWAP1 POP DUP5 JUMP JUMPDEST PUSH2 0xEBF PUSH2 0xFEF JUMP JUMPDEST PUSH20 0xFFFFFFFFFFFFFFFFFFFFFFFFFFFFFFFFFFFFFFFF AND CALLER PUSH20 0xFFFFFFFFFFFFFFFFFFFFFFFFFFFFFFFFFFFFFFFF AND EQ PUSH2 0xF2E JUMPI CALLER PUSH1 0x40 MLOAD PUSH32 0xD7F7333400000000000000000000000000000000000000000000000000000000 DUP2 MSTORE PUSH1 0x4 ADD PUSH2 0xF25 SWAP2 SWAP1 PUSH2 0x1E51 JUMP JUMPDEST PUSH1 0x40 MLOAD DUP1 SWAP2 SUB SWAP1 REVERT JUMPDEST PUSH2 0xF40 DUP2 PUSH2 0xF3B SWAP1 PUSH2 0x2C58 JUMP JUMPDEST PUSH2 0x16DD JUMP JUMPDEST POP JUMP JUMPDEST PUSH1 0x1 DUP2 DUP2 SLOAD DUP2 LT PUSH2 0xF53 JUMPI PUSH1 0x0 DUP1 REVERT JUMPDEST SWAP1 PUSH1 0x0 MSTORE PUSH1 0x20 PUSH1 0x0 KECCAK256 ADD PUSH1 0x0 SWAP2 POP SWAP1 POP DUP1 SLOAD PUSH2 0xF6E SWAP1 PUSH2 0x1FAA JUMP JUMPDEST DUP1 PUSH1 0x1F ADD PUSH1 0x20 DUP1 SWAP2 DIV MUL PUSH1 0x20 ADD PUSH1 0x40 MLOAD SWAP1 DUP2 ADD PUSH1 0x40 MSTORE DUP1 SWAP3 SWAP2 SWAP1 DUP2 DUP2 MSTORE PUSH1 0x20 ADD DUP3 DUP1 SLOAD PUSH2 0xF9A SWAP1 PUSH2 0x1FAA JUMP JUMPDEST DUP1 ISZERO PUSH2 0xFE7 JUMPI DUP1 PUSH1 0x1F LT PUSH2 0xFBC JUMPI PUSH2 0x100 DUP1 DUP4 SLOAD DIV MUL DUP4 MSTORE SWAP2 PUSH1 0x20 ADD SWAP2 PUSH2 0xFE7 JUMP JUMPDEST DUP3 ADD SWAP2 SWAP1 PUSH1 0x0 MSTORE PUSH1 0x20 PUSH1 0x0 KECCAK256 SWAP1 JUMPDEST DUP2 SLOAD DUP2 MSTORE SWAP1 PUSH1 0x1 ADD SWAP1 PUSH1 0x20 ADD DUP1 DUP4 GT PUSH2 0xFCA JUMPI DUP3 SWAP1 SUB PUSH1 0x1F AND DUP3 ADD SWAP2 JUMPDEST POP POP POP POP POP DUP2 JUMP JUMPDEST PUSH1 0x0 PUSH32 0x0 SWAP1 POP SWAP1 JUMP JUMPDEST PUSH1 0x0 PUSH1 0x2 DUP3 PUSH1 0x40 MLOAD PUSH2 0x1029 SWAP2 SWAP1 PUSH2 0x2017 JUMP JUMPDEST SWAP1 DUP2 MSTORE PUSH1 0x20 ADD PUSH1 0x40 MLOAD DUP1 SWAP2 SUB SWAP1 KECCAK256 PUSH1 0x40 MLOAD DUP1 PUSH1 0x80 ADD PUSH1 0x40 MSTORE SWAP1 DUP2 PUSH1 0x0 DUP3 ADD PUSH1 0x0 SWAP1 SLOAD SWAP1 PUSH2 0x100 EXP SWAP1 DIV PUSH20 0xFFFFFFFFFFFFFFFFFFFFFFFFFFFFFFFFFFFFFFFF AND PUSH20 0xFFFFFFFFFFFFFFFFFFFFFFFFFFFFFFFFFFFFFFFF AND PUSH20 0xFFFFFFFFFFFFFFFFFFFFFFFFFFFFFFFFFFFFFFFF AND DUP2 MSTORE PUSH1 0x20 ADD PUSH1 0x0 DUP3 ADD PUSH1 0x14 SWAP1 SLOAD SWAP1 PUSH2 0x100 EXP SWAP1 DIV PUSH1 0xE0 SHL PUSH28 0xFFFFFFFFFFFFFFFFFFFFFFFFFFFFFFFFFFFFFFFFFFFFFFFFFFFFFFFF NOT AND PUSH28 0xFFFFFFFFFFFFFFFFFFFFFFFFFFFFFFFFFFFFFFFFFFFFFFFFFFFFFFFF NOT AND DUP2 MSTORE PUSH1 0x20 ADD PUSH1 0x1 DUP3 ADD SLOAD DUP2 MSTORE PUSH1 0x20 ADD PUSH1 0x2 DUP3 ADD PUSH1 0x0 SWAP1 SLOAD SWAP1 PUSH2 0x100 EXP SWAP1 DIV PUSH1 0xFF AND ISZERO ISZERO ISZERO ISZERO DUP2 MSTORE POP POP SWAP1 POP DUP1 PUSH1 0x60 ADD MLOAD PUSH2 0x1158 JUMPI PUSH1 0x40 MLOAD PUSH32 0x8C379A000000000000000000000000000000000000000000000000000000000 DUP2 MSTORE PUSH1 0x4 ADD PUSH2 0x114F SWAP1 PUSH2 0x2CB7 JUMP JUMPDEST PUSH1 0x40 MLOAD DUP1 SWAP2 SUB SWAP1 REVERT JUMPDEST PUSH1 0x0 PUSH32 0x0 PUSH20 0xFFFFFFFFFFFFFFFFFFFFFFFFFFFFFFFFFFFFFFFF AND PUSH4 0x70A08231 ADDRESS PUSH1 0x40 MLOAD DUP3 PUSH4 0xFFFFFFFF AND PUSH1 0xE0 SHL DUP2 MSTORE PUSH1 0x4 ADD PUSH2 0x11B3 SWAP2 SWAP1 PUSH2 0x1E51 JUMP JUMPDEST PUSH1 0x20 PUSH1 0x40 MLOAD DUP1 DUP4 SUB DUP2 DUP7 GAS STATICCALL ISZERO DUP1 ISZERO PUSH2 0x11D0 JUMPI RETURNDATASIZE PUSH1 0x0 DUP1 RETURNDATACOPY RETURNDATASIZE PUSH1 0x0 REVERT JUMPDEST POP POP POP POP PUSH1 0x40 MLOAD RETURNDATASIZE PUSH1 0x1F NOT PUSH1 0x1F DUP3 ADD AND DUP3 ADD DUP1 PUSH1 0x40 MSTORE POP DUP2 ADD SWAP1 PUSH2 0x11F4 SWAP2 SWAP1 PUSH2 0x28AC JUMP JUMPDEST SWAP1 POP PUSH1 0x0 DUP2 GT PUSH2 0x1239 JUMPI PUSH1 0x40 MLOAD PUSH32 0x8C379A000000000000000000000000000000000000000000000000000000000 DUP2 MSTORE PUSH1 0x4 ADD PUSH2 0x1230 SWAP1 PUSH2 0x2D23 JUMP JUMPDEST PUSH1 0x40 MLOAD DUP1 SWAP2 SUB SWAP1 REVERT JUMPDEST PUSH32 0x0 PUSH20 0xFFFFFFFFFFFFFFFFFFFFFFFFFFFFFFFFFFFFFFFF AND PUSH4 0x95EA7B3 DUP4 PUSH1 0x0 ADD MLOAD DUP4 PUSH1 0x40 MLOAD DUP4 PUSH4 0xFFFFFFFF AND PUSH1 0xE0 SHL DUP2 MSTORE PUSH1 0x4 ADD PUSH2 0x1298 SWAP3 SWAP2 SWAP1 PUSH2 0x209A JUMP JUMPDEST PUSH1 0x20 PUSH1 0x40 MLOAD DUP1 DUP4 SUB DUP2 PUSH1 0x0 DUP8 GAS CALL ISZERO DUP1 ISZERO PUSH2 0x12B7 JUMPI RETURNDATASIZE PUSH1 0x0 DUP1 RETURNDATACOPY RETURNDATASIZE PUSH1 0x0 REVERT JUMPDEST POP POP POP POP PUSH1 0x40 MLOAD RETURNDATASIZE PUSH1 0x1F NOT PUSH1 0x1F DUP3 ADD AND DUP3 ADD DUP1 PUSH1 0x40 MSTORE POP DUP2 ADD SWAP1 PUSH2 0x12DB SWAP2 SWAP1 PUSH2 0x20EF JUMP JUMPDEST POP PUSH1 0x0 DUP1 DUP4 PUSH1 0x0 ADD MLOAD PUSH20 0xFFFFFFFFFFFFFFFFFFFFFFFFFFFFFFFFFFFFFFFF AND DUP5 PUSH1 0x20 ADD MLOAD PUSH32 0x0 DUP6 ADDRESS PUSH1 0x0 PUSH1 0x40 MLOAD PUSH1 0x24 ADD PUSH2 0x1337 SWAP5 SWAP4 SWAP3 SWAP2 SWAP1 PUSH2 0x2D8B JUMP JUMPDEST PUSH1 0x40 MLOAD PUSH1 0x20 DUP2 DUP4 SUB SUB DUP2 MSTORE SWAP1 PUSH1 0x40 MSTORE SWAP1 PUSH28 0xFFFFFFFFFFFFFFFFFFFFFFFFFFFFFFFFFFFFFFFFFFFFFFFFFFFFFFFF NOT AND PUSH1 0x20 DUP3 ADD DUP1 MLOAD PUSH28 0xFFFFFFFFFFFFFFFFFFFFFFFFFFFFFFFFFFFFFFFFFFFFFFFFFFFFFFFF DUP4 DUP2 DUP4 AND OR DUP4 MSTORE POP POP POP POP PUSH1 0x40 MLOAD PUSH2 0x13A1 SWAP2 SWAP1 PUSH2 0x2E0C JUMP JUMPDEST PUSH1 0x0 PUSH1 0x40 MLOAD DUP1 DUP4 SUB DUP2 PUSH1 0x0 DUP7 GAS CALL SWAP2 POP POP RETURNDATASIZE DUP1 PUSH1 0x0 DUP2 EQ PUSH2 0x13DE JUMPI PUSH1 0x40 MLOAD SWAP2 POP PUSH1 0x1F NOT PUSH1 0x3F RETURNDATASIZE ADD AND DUP3 ADD PUSH1 0x40 MSTORE RETURNDATASIZE DUP3 MSTORE RETURNDATASIZE PUSH1 0x0 PUSH1 0x20 DUP5 ADD RETURNDATACOPY PUSH2 0x13E3 JUMP JUMPDEST PUSH1 0x60 SWAP2 POP JUMPDEST POP SWAP2 POP SWAP2 POP DUP2 PUSH2 0x1488 JUMPI PUSH1 0x44 DUP2 MLOAD LT ISZERO PUSH2 0x1432 JUMPI PUSH1 0x40 MLOAD PUSH32 0x8C379A000000000000000000000000000000000000000000000000000000000 DUP2 MSTORE PUSH1 0x4 ADD PUSH2 0x1429 SWAP1 PUSH2 0x2E6F JUMP JUMPDEST PUSH1 0x40 MLOAD DUP1 SWAP2 SUB SWAP1 REVERT JUMPDEST PUSH1 0x4 DUP2 ADD SWAP1 POP DUP1 DUP1 PUSH1 0x20 ADD SWAP1 MLOAD DUP2 ADD SWAP1 PUSH2 0x144C SWAP2 SWAP1 PUSH2 0x2EFF JUMP JUMPDEST PUSH1 0x40 MLOAD PUSH32 0x8C379A000000000000000000000000000000000000000000000000000000000 DUP2 MSTORE PUSH1 0x4 ADD PUSH2 0x147F SWAP2 SWAP1 PUSH2 0x1F59 JUMP JUMPDEST PUSH1 0x40 MLOAD DUP1 SWAP2 SUB SWAP1 REVERT JUMPDEST DUP2 PUSH2 0x14C8 JUMPI PUSH1 0x40 MLOAD PUSH32 0x8C379A000000000000000000000000000000000000000000000000000000000 DUP2 MSTORE PUSH1 0x4 ADD PUSH2 0x14BF SWAP1 PUSH2 0x2E6F JUMP JUMPDEST PUSH1 0x40 MLOAD DUP1 SWAP2 SUB SWAP1 REVERT JUMPDEST PUSH32 0x4C24EE93C4C1A326F6256C49AD2BD8BF97A85E6D955CFD3C52FC5E4AD71C5677 DUP6 DUP6 PUSH1 0x0 ADD MLOAD DUP6 PUSH1 0x40 MLOAD PUSH2 0x14FF SWAP4 SWAP3 SWAP2 SWAP1 PUSH2 0x2F48 JUMP JUMPDEST PUSH1 0x40 MLOAD DUP1 SWAP2 SUB SWAP1 LOG1 POP POP POP POP POP JUMP JUMPDEST PUSH1 0x60 PUSH1 0x0 PUSH1 0x1 DUP1 SLOAD SWAP1 POP SUB PUSH2 0x155A JUMPI PUSH1 0x40 MLOAD DUP1 PUSH1 0x40 ADD PUSH1 0x40 MSTORE DUP1 PUSH1 0x4 DUP2 MSTORE PUSH1 0x20 ADD PUSH32 0x4E6F6E6500000000000000000000000000000000000000000000000000000000 DUP2 MSTORE POP SWAP1 POP PUSH2 0x167E JUMP JUMPDEST PUSH1 0x60 PUSH1 0x0 DUP1 JUMPDEST PUSH1 0x1 DUP1 SLOAD SWAP1 POP DUP2 LT ISZERO PUSH2 0x1677 JUMPI PUSH1 0x0 PUSH1 0x1 DUP3 DUP2 SLOAD DUP2 LT PUSH2 0x1583 JUMPI PUSH2 0x1582 PUSH2 0x2F86 JUMP JUMPDEST JUMPDEST SWAP1 PUSH1 0x0 MSTORE PUSH1 0x20 PUSH1 0x0 KECCAK256 ADD DUP1 SLOAD PUSH2 0x1598 SWAP1 PUSH2 0x1FAA JUMP JUMPDEST DUP1 PUSH1 0x1F ADD PUSH1 0x20 DUP1 SWAP2 DIV MUL PUSH1 0x20 ADD PUSH1 0x40 MLOAD SWAP1 DUP2 ADD PUSH1 0x40 MSTORE DUP1 SWAP3 SWAP2 SWAP1 DUP2 DUP2 MSTORE PUSH1 0x20 ADD DUP3 DUP1 SLOAD PUSH2 0x15C4 SWAP1 PUSH2 0x1FAA JUMP JUMPDEST DUP1 ISZERO PUSH2 0x1611 JUMPI DUP1 PUSH1 0x1F LT PUSH2 0x15E6 JUMPI PUSH2 0x100 DUP1 DUP4 SLOAD DIV MUL DUP4 MSTORE SWAP2 PUSH1 0x20 ADD SWAP2 PUSH2 0x1611 JUMP JUMPDEST DUP3 ADD SWAP2 SWAP1 PUSH1 0x0 MSTORE PUSH1 0x20 PUSH1 0x0 KECCAK256 SWAP1 JUMPDEST DUP2 SLOAD DUP2 MSTORE SWAP1 PUSH1 0x1 ADD SWAP1 PUSH1 0x20 ADD DUP1 DUP4 GT PUSH2 0x15F4 JUMPI DUP3 SWAP1 SUB PUSH1 0x1F AND DUP3 ADD SWAP2 JUMPDEST POP POP POP POP POP SWAP1 POP DUP3 PUSH1 0x2 DUP3 PUSH1 0x40 MLOAD PUSH2 0x1629 SWAP2 SWAP1 PUSH2 0x2017 JUMP JUMPDEST SWAP1 DUP2 MSTORE PUSH1 0x20 ADD PUSH1 0x40 MLOAD DUP1 SWAP2 SUB SWAP1 KECCAK256 PUSH1 0x1 ADD SLOAD GT ISZERO PUSH2 0x1669 JUMPI PUSH1 0x2 DUP2 PUSH1 0x40 MLOAD PUSH2 0x1651 SWAP2 SWAP1 PUSH2 0x2017 JUMP JUMPDEST SWAP1 DUP2 MSTORE PUSH1 0x20 ADD PUSH1 0x40 MLOAD DUP1 SWAP2 SUB SWAP1 KECCAK256 PUSH1 0x1 ADD SLOAD SWAP3 POP DUP1 SWAP4 POP JUMPDEST POP DUP1 DUP1 PUSH1 0x1 ADD SWAP2 POP POP PUSH2 0x1560 JUMP JUMPDEST POP DUP2 SWAP3 POP POP POP JUMPDEST SWAP1 JUMP JUMPDEST PUSH1 0x7 SLOAD DUP2 JUMP JUMPDEST PUSH1 0x8 SLOAD DUP2 JUMP JUMPDEST PUSH1 0x2 PUSH1 0x0 SLOAD SUB PUSH2 0x16C9 JUMPI PUSH1 0x40 MLOAD PUSH32 0x3EE5AEB500000000000000000000000000000000000000000000000000000000 DUP2 MSTORE PUSH1 0x4 ADD PUSH1 0x40 MLOAD DUP1 SWAP2 SUB SWAP1 REVERT JUMPDEST PUSH1 0x2 PUSH1 0x0 DUP2 SWAP1 SSTORE POP JUMP JUMPDEST PUSH1 0x1 PUSH1 0x0 DUP2 SWAP1 SSTORE POP JUMP JUMPDEST PUSH1 0x0 DUP1 PUSH1 0x0 DUP4 PUSH1 0x60 ADD MLOAD DUP1 PUSH1 0x20 ADD SWAP1 MLOAD DUP2 ADD SWAP1 PUSH2 0x16FA SWAP2 SWAP1 PUSH2 0x2FF3 JUMP JUMPDEST SWAP3 POP SWAP3 POP SWAP3 POP PUSH1 0x2 DUP2 PUSH1 0x40 MLOAD PUSH2 0x1710 SWAP2 SWAP1 PUSH2 0x2017 JUMP JUMPDEST SWAP1 DUP2 MSTORE PUSH1 0x20 ADD PUSH1 0x40 MLOAD DUP1 SWAP2 SUB SWAP1 KECCAK256 PUSH1 0x2 ADD PUSH1 0x0 SWAP1 SLOAD SWAP1 PUSH2 0x100 EXP SWAP1 DIV PUSH1 0xFF AND PUSH2 0x176E JUMPI PUSH1 0x40 MLOAD PUSH32 0x8C379A000000000000000000000000000000000000000000000000000000000 DUP2 MSTORE PUSH1 0x4 ADD PUSH2 0x1765 SWAP1 PUSH2 0x2CB7 JUMP JUMPDEST PUSH1 0x40 MLOAD DUP1 SWAP2 SUB SWAP1 REVERT JUMPDEST DUP2 PUSH1 0x3 PUSH1 0x0 DUP6 PUSH20 0xFFFFFFFFFFFFFFFFFFFFFFFFFFFFFFFFFFFFFFFF AND PUSH20 0xFFFFFFFFFFFFFFFFFFFFFFFFFFFFFFFFFFFFFFFF AND DUP2 MSTORE PUSH1 0x20 ADD SWAP1 DUP2 MSTORE PUSH1 0x20 ADD PUSH1 0x0 KECCAK256 PUSH1 0x0 DUP3 DUP3 SLOAD PUSH2 0x17BD SWAP2 SWAP1 PUSH2 0x28D9 JUMP JUMPDEST SWAP3 POP POP DUP2 SWAP1 SSTORE POP DUP4 PUSH1 0x20 ADD MLOAD PUSH8 0xFFFFFFFFFFFFFFFF AND DUP5 PUSH1 0x0 ADD MLOAD PUSH32 0x71D5B787D02E5CDDBB57B969C9CCE37FC0DD8EC840D9BBE1BD5AAF0671E71060 DUP6 DUP6 DUP6 PUSH1 0x40 MLOAD PUSH2 0x180B SWAP4 SWAP3 SWAP2 SWAP1 PUSH2 0x3062 JUMP JUMPDEST PUSH1 0x40 MLOAD DUP1 SWAP2 SUB SWAP1 LOG3 POP POP POP POP JUMP JUMPDEST PUSH1 0x0 PUSH1 0x40 MLOAD SWAP1 POP SWAP1 JUMP JUMPDEST PUSH1 0x0 DUP1 REVERT JUMPDEST PUSH1 0x0 DUP1 REVERT JUMPDEST PUSH1 0x0 PUSH32 0xFFFFFFFF00000000000000000000000000000000000000000000000000000000 DUP3 AND SWAP1 POP SWAP2 SWAP1 POP JUMP JUMPDEST PUSH2 0x1862 DUP2 PUSH2 0x182D JUMP JUMPDEST DUP2 EQ PUSH2 0x186D JUMPI PUSH1 0x0 DUP1 REVERT JUMPDEST POP JUMP JUMPDEST PUSH1 0x0 DUP2 CALLDATALOAD SWAP1 POP PUSH2 0x187F DUP2 PUSH2 0x1859 JUMP JUMPDEST SWAP3 SWAP2 POP POP JUMP JUMPDEST PUSH1 0x0 PUSH1 0x20 DUP3 DUP5 SUB SLT ISZERO PUSH2 0x189B JUMPI PUSH2 0x189A PUSH2 0x1823 JUMP JUMPDEST JUMPDEST PUSH1 0x0 PUSH2 0x18A9 DUP5 DUP3 DUP6 ADD PUSH2 0x1870 JUMP JUMPDEST SWAP2 POP POP SWAP3 SWAP2 POP POP JUMP JUMPDEST PUSH1 0x0 DUP2 ISZERO ISZERO SWAP1 POP SWAP2 SWAP1 POP JUMP JUMPDEST PUSH2 0x18C7 DUP2 PUSH2 0x18B2 JUMP JUMPDEST DUP3 MSTORE POP POP JUMP JUMPDEST PUSH1 0x0 PUSH1 0x20 DUP3 ADD SWAP1 POP PUSH2 0x18E2 PUSH1 0x0 DUP4 ADD DUP5 PUSH2 0x18BE JUMP JUMPDEST SWAP3 SWAP2 POP POP JUMP JUMPDEST PUSH1 0x0 PUSH20 0xFFFFFFFFFFFFFFFFFFFFFFFFFFFFFFFFFFFFFFFF DUP3 AND SWAP1 POP SWAP2 SWAP1 POP JUMP JUMPDEST PUSH1 0x0 DUP2 SWAP1 POP SWAP2 SWAP1 POP JUMP JUMPDEST PUSH1 0x0 PUSH2 0x192D PUSH2 0x1928 PUSH2 0x1923 DUP5 PUSH2 0x18E8 JUMP JUMPDEST PUSH2 0x1908 JUMP JUMPDEST PUSH2 0x18E8 JUMP JUMPDEST SWAP1 POP SWAP2 SWAP1 POP JUMP JUMPDEST PUSH1 0x0 PUSH2 0x193F DUP3 PUSH2 0x1912 JUMP JUMPDEST SWAP1 POP SWAP2 SWAP1 POP JUMP JUMPDEST PUSH1 0x0 PUSH2 0x1951 DUP3 PUSH2 0x1934 JUMP JUMPDEST SWAP1 POP SWAP2 SWAP1 POP JUMP JUMPDEST PUSH2 0x1961 DUP2 PUSH2 0x1946 JUMP JUMPDEST DUP3 MSTORE POP POP JUMP JUMPDEST PUSH1 0x0 PUSH1 0x20 DUP3 ADD SWAP1 POP PUSH2 0x197C PUSH1 0x0 DUP4 ADD DUP5 PUSH2 0x1958 JUMP JUMPDEST SWAP3 SWAP2 POP POP JUMP JUMPDEST PUSH1 0x0 DUP2 MLOAD SWAP1 POP SWAP2 SWAP1 POP JUMP JUMPDEST PUSH1 0x0 DUP3 DUP3 MSTORE PUSH1 0x20 DUP3 ADD SWAP1 POP SWAP3 SWAP2 POP POP JUMP JUMPDEST PUSH1 0x0 JUMPDEST DUP4 DUP2 LT ISZERO PUSH2 0x19BC JUMPI DUP1 DUP3 ADD MLOAD DUP2 DUP5 ADD MSTORE PUSH1 0x20 DUP2 ADD SWAP1 POP PUSH2 0x19A1 JUMP JUMPDEST PUSH1 0x0 DUP5 DUP5 ADD MSTORE POP POP POP POP JUMP JUMPDEST PUSH1 0x0 PUSH1 0x1F NOT PUSH1 0x1F DUP4 ADD AND SWAP1 POP SWAP2 SWAP1 POP JUMP JUMPDEST PUSH1 0x0 PUSH2 0x19E4 DUP3 PUSH2 0x1982 JUMP JUMPDEST PUSH2 0x19EE DUP2 DUP6 PUSH2 0x198D JUMP JUMPDEST SWAP4 POP PUSH2 0x19FE DUP2 DUP6 PUSH1 0x20 DUP7 ADD PUSH2 0x199E JUMP JUMPDEST PUSH2 0x1A07 DUP2 PUSH2 0x19C8 JUMP JUMPDEST DUP5 ADD SWAP2 POP POP SWAP3 SWAP2 POP POP JUMP JUMPDEST PUSH1 0x0 PUSH2 0x1A1D DUP3 PUSH2 0x18E8 JUMP JUMPDEST SWAP1 POP SWAP2 SWAP1 POP JUMP JUMPDEST PUSH2 0x1A2D DUP2 PUSH2 0x1A12 JUMP JUMPDEST DUP3 MSTORE POP POP JUMP JUMPDEST PUSH2 0x1A3C DUP2 PUSH2 0x182D JUMP JUMPDEST DUP3 MSTORE POP POP JUMP JUMPDEST PUSH1 0x0 DUP2 SWAP1 POP SWAP2 SWAP1 POP JUMP JUMPDEST PUSH2 0x1A55 DUP2 PUSH2 0x1A42 JUMP JUMPDEST DUP3 MSTORE POP POP JUMP JUMPDEST PUSH1 0x0 PUSH1 0x80 DUP3 ADD SWAP1 POP DUP2 DUP2 SUB PUSH1 0x0 DUP4 ADD MSTORE PUSH2 0x1A75 DUP2 DUP8 PUSH2 0x19D9 JUMP JUMPDEST SWAP1 POP PUSH2 0x1A84 PUSH1 0x20 DUP4 ADD DUP7 PUSH2 0x1A24 JUMP JUMPDEST PUSH2 0x1A91 PUSH1 0x40 DUP4 ADD DUP6 PUSH2 0x1A33 JUMP JUMPDEST PUSH2 0x1A9E PUSH1 0x60 DUP4 ADD DUP5 PUSH2 0x1A4C JUMP JUMPDEST SWAP6 SWAP5 POP POP POP POP POP JUMP JUMPDEST PUSH2 0x1AB0 DUP2 PUSH2 0x1A12 JUMP JUMPDEST DUP2 EQ PUSH2 0x1ABB JUMPI PUSH1 0x0 DUP1 REVERT JUMPDEST POP JUMP JUMPDEST PUSH1 0x0 DUP2 CALLDATALOAD SWAP1 POP PUSH2 0x1ACD DUP2 PUSH2 0x1AA7 JUMP JUMPDEST SWAP3 SWAP2 POP POP JUMP JUMPDEST PUSH1 0x0 PUSH1 0x20 DUP3 DUP5 SUB SLT ISZERO PUSH2 0x1AE9 JUMPI PUSH2 0x1AE8 PUSH2 0x1823 JUMP JUMPDEST JUMPDEST PUSH1 0x0 PUSH2 0x1AF7 DUP5 DUP3 DUP6 ADD PUSH2 0x1ABE JUMP JUMPDEST SWAP2 POP POP SWAP3 SWAP2 POP POP JUMP JUMPDEST PUSH1 0x0 PUSH1 0x20 DUP3 ADD SWAP1 POP PUSH2 0x1B15 PUSH1 0x0 DUP4 ADD DUP5 PUSH2 0x1A4C JUMP JUMPDEST SWAP3 SWAP2 POP POP JUMP JUMPDEST PUSH1 0x0 DUP1 REVERT JUMPDEST PUSH1 0x0 DUP1 REVERT JUMPDEST PUSH32 0x4E487B7100000000000000000000000000000000000000000000000000000000 PUSH1 0x0 MSTORE PUSH1 0x41 PUSH1 0x4 MSTORE PUSH1 0x24 PUSH1 0x0 REVERT JUMPDEST PUSH2 0x1B5D DUP3 PUSH2 0x19C8 JUMP JUMPDEST DUP2 ADD DUP2 DUP2 LT PUSH8 0xFFFFFFFFFFFFFFFF DUP3 GT OR ISZERO PUSH2 0x1B7C JUMPI PUSH2 0x1B7B PUSH2 0x1B25 JUMP JUMPDEST JUMPDEST DUP1 PUSH1 0x40 MSTORE POP POP POP JUMP JUMPDEST PUSH1 0x0 PUSH2 0x1B8F PUSH2 0x1819 JUMP JUMPDEST SWAP1 POP PUSH2 0x1B9B DUP3 DUP3 PUSH2 0x1B54 JUMP JUMPDEST SWAP2 SWAP1 POP JUMP JUMPDEST PUSH1 0x0 PUSH8 0xFFFFFFFFFFFFFFFF DUP3 GT ISZERO PUSH2 0x1BBB JUMPI PUSH2 0x1BBA PUSH2 0x1B25 JUMP JUMPDEST JUMPDEST PUSH2 0x1BC4 DUP3 PUSH2 0x19C8 JUMP JUMPDEST SWAP1 POP PUSH1 0x20 DUP2 ADD SWAP1 POP SWAP2 SWAP1 POP JUMP JUMPDEST DUP3 DUP2 DUP4 CALLDATACOPY PUSH1 0x0 DUP4 DUP4 ADD MSTORE POP POP POP JUMP JUMPDEST PUSH1 0x0 PUSH2 0x1BF3 PUSH2 0x1BEE DUP5 PUSH2 0x1BA0 JUMP JUMPDEST PUSH2 0x1B85 JUMP JUMPDEST SWAP1 POP DUP3 DUP2 MSTORE PUSH1 0x20 DUP2 ADD DUP5 DUP5 DUP5 ADD GT ISZERO PUSH2 0x1C0F JUMPI PUSH2 0x1C0E PUSH2 0x1B20 JUMP JUMPDEST JUMPDEST PUSH2 0x1C1A DUP5 DUP3 DUP6 PUSH2 0x1BD1 JUMP JUMPDEST POP SWAP4 SWAP3 POP POP POP JUMP JUMPDEST PUSH1 0x0 DUP3 PUSH1 0x1F DUP4 ADD SLT PUSH2 0x1C37 JUMPI PUSH2 0x1C36 PUSH2 0x1B1B JUMP JUMPDEST JUMPDEST DUP2 CALLDATALOAD PUSH2 0x1C47 DUP5 DUP3 PUSH1 0x20 DUP7 ADD PUSH2 0x1BE0 JUMP JUMPDEST SWAP2 POP POP SWAP3 SWAP2 POP POP JUMP JUMPDEST PUSH1 0x0 PUSH1 0x20 DUP3 DUP5 SUB SLT ISZERO PUSH2 0x1C66 JUMPI PUSH2 0x1C65 PUSH2 0x1823 JUMP JUMPDEST JUMPDEST PUSH1 0x0 DUP3 ADD CALLDATALOAD PUSH8 0xFFFFFFFFFFFFFFFF DUP2 GT ISZERO PUSH2 0x1C84 JUMPI PUSH2 0x1C83 PUSH2 0x1828 JUMP JUMPDEST JUMPDEST PUSH2 0x1C90 DUP5 DUP3 DUP6 ADD PUSH2 0x1C22 JUMP JUMPDEST SWAP2 POP POP SWAP3 SWAP2 POP POP JUMP JUMPDEST PUSH1 0x0 PUSH1 0x80 DUP3 ADD SWAP1 POP PUSH2 0x1CAE PUSH1 0x0 DUP4 ADD DUP8 PUSH2 0x1A24 JUMP JUMPDEST PUSH2 0x1CBB PUSH1 0x20 DUP4 ADD DUP7 PUSH2 0x1A33 JUMP JUMPDEST PUSH2 0x1CC8 PUSH1 0x40 DUP4 ADD DUP6 PUSH2 0x1A4C JUMP JUMPDEST PUSH2 0x1CD5 PUSH1 0x60 DUP4 ADD DUP5 PUSH2 0x18BE JUMP JUMPDEST SWAP6 SWAP5 POP POP POP POP POP JUMP JUMPDEST PUSH2 0x1CE7 DUP2 PUSH2 0x1A42 JUMP JUMPDEST DUP2 EQ PUSH2 0x1CF2 JUMPI PUSH1 0x0 DUP1 REVERT JUMPDEST POP JUMP JUMPDEST PUSH1 0x0 DUP2 CALLDATALOAD SWAP1 POP PUSH2 0x1D04 DUP2 PUSH2 0x1CDE JUMP JUMPDEST SWAP3 SWAP2 POP POP JUMP JUMPDEST PUSH1 0x0 PUSH1 0x20 DUP3 DUP5 SUB SLT ISZERO PUSH2 0x1D20 JUMPI PUSH2 0x1D1F PUSH2 0x1823 JUMP JUMPDEST JUMPDEST PUSH1 0x0 PUSH2 0x1D2E DUP5 DUP3 DUP6 ADD PUSH2 0x1CF5 JUMP JUMPDEST SWAP2 POP POP SWAP3 SWAP2 POP POP JUMP JUMPDEST PUSH1 0x0 DUP1 REVERT JUMPDEST PUSH1 0x0 DUP1 REVERT JUMPDEST PUSH1 0x0 DUP1 DUP4 PUSH1 0x1F DUP5 ADD SLT PUSH2 0x1D57 JUMPI PUSH2 0x1D56 PUSH2 0x1B1B JUMP JUMPDEST JUMPDEST DUP3 CALLDATALOAD SWAP1 POP PUSH8 0xFFFFFFFFFFFFFFFF DUP2 GT ISZERO PUSH2 0x1D74 JUMPI PUSH2 0x1D73 PUSH2 0x1D37 JUMP JUMPDEST JUMPDEST PUSH1 0x20 DUP4 ADD SWAP2 POP DUP4 PUSH1 0x1 DUP3 MUL DUP4 ADD GT ISZERO PUSH2 0x1D90 JUMPI PUSH2 0x1D8F PUSH2 0x1D3C JUMP JUMPDEST JUMPDEST SWAP3 POP SWAP3 SWAP1 POP JUMP JUMPDEST PUSH1 0x0 DUP1 PUSH1 0x20 DUP4 DUP6 SUB SLT ISZERO PUSH2 0x1DAE JUMPI PUSH2 0x1DAD PUSH2 0x1823 JUMP JUMPDEST JUMPDEST PUSH1 0x0 DUP4 ADD CALLDATALOAD PUSH8 0xFFFFFFFFFFFFFFFF DUP2 GT ISZERO PUSH2 0x1DCC JUMPI PUSH2 0x1DCB PUSH2 0x1828 JUMP JUMPDEST JUMPDEST PUSH2 0x1DD8 DUP6 DUP3 DUP7 ADD PUSH2 0x1D41 JUMP JUMPDEST SWAP3 POP SWAP3 POP POP SWAP3 POP SWAP3 SWAP1 POP JUMP JUMPDEST PUSH1 0x0 DUP1 REVERT JUMPDEST PUSH1 0x0 PUSH1 0x80 DUP3 DUP5 SUB SLT ISZERO PUSH2 0x1DFF JUMPI PUSH2 0x1DFE PUSH2 0x1DE4 JUMP JUMPDEST JUMPDEST DUP2 SWAP1 POP SWAP3 SWAP2 POP POP JUMP JUMPDEST PUSH1 0x0 PUSH1 0x20 DUP3 DUP5 SUB SLT ISZERO PUSH2 0x1E1E JUMPI PUSH2 0x1E1D PUSH2 0x1823 JUMP JUMPDEST JUMPDEST PUSH1 0x0 DUP3 ADD CALLDATALOAD PUSH8 0xFFFFFFFFFFFFFFFF DUP2 GT ISZERO PUSH2 0x1E3C JUMPI PUSH2 0x1E3B PUSH2 0x1828 JUMP JUMPDEST JUMPDEST PUSH2 0x1E48 DUP5 DUP3 DUP6 ADD PUSH2 0x1DE9 JUMP JUMPDEST SWAP2 POP POP SWAP3 SWAP2 POP POP JUMP JUMPDEST PUSH1 0x0 PUSH1 0x20 DUP3 ADD SWAP1 POP PUSH2 0x1E66 PUSH1 0x0 DUP4 ADD DUP5 PUSH2 0x1A24 JUMP JUMPDEST SWAP3 SWAP2 POP POP JUMP JUMPDEST PUSH1 0x0 DUP2 MLOAD SWAP1 POP SWAP2 SWAP1 POP JUMP JUMPDEST PUSH1 0x0 DUP3 DUP3 MSTORE PUSH1 0x20 DUP3 ADD SWAP1 POP SWAP3 SWAP2 POP POP JUMP JUMPDEST PUSH1 0x0 PUSH2 0x1E93 DUP3 PUSH2 0x1E6C JUMP JUMPDEST PUSH2 0x1E9D DUP2 DUP6 PUSH2 0x1E77 JUMP JUMPDEST SWAP4 POP PUSH2 0x1EAD DUP2 DUP6 PUSH1 0x20 DUP7 ADD PUSH2 0x199E JUMP JUMPDEST PUSH2 0x1EB6 DUP2 PUSH2 0x19C8 JUMP JUMPDEST DUP5 ADD SWAP2 POP POP SWAP3 SWAP2 POP POP JUMP JUMPDEST PUSH1 0x0 PUSH1 0x40 DUP3 ADD SWAP1 POP PUSH2 0x1ED6 PUSH1 0x0 DUP4 ADD DUP6 PUSH2 0x18BE JUMP JUMPDEST DUP2 DUP2 SUB PUSH1 0x20 DUP4 ADD MSTORE PUSH2 0x1EE8 DUP2 DUP5 PUSH2 0x1E88 JUMP JUMPDEST SWAP1 POP SWAP4 SWAP3 POP POP POP JUMP JUMPDEST PUSH1 0x0 PUSH1 0xA0 DUP3 DUP5 SUB SLT ISZERO PUSH2 0x1F07 JUMPI PUSH2 0x1F06 PUSH2 0x1DE4 JUMP JUMPDEST JUMPDEST DUP2 SWAP1 POP SWAP3 SWAP2 POP POP JUMP JUMPDEST PUSH1 0x0 PUSH1 0x20 DUP3 DUP5 SUB SLT ISZERO PUSH2 0x1F26 JUMPI PUSH2 0x1F25 PUSH2 0x1823 JUMP JUMPDEST JUMPDEST PUSH1 0x0 DUP3 ADD CALLDATALOAD PUSH8 0xFFFFFFFFFFFFFFFF DUP2 GT ISZERO PUSH2 0x1F44 JUMPI PUSH2 0x1F43 PUSH2 0x1828 JUMP JUMPDEST JUMPDEST PUSH2 0x1F50 DUP5 DUP3 DUP6 ADD PUSH2 0x1EF1 JUMP JUMPDEST SWAP2 POP POP SWAP3 SWAP2 POP POP JUMP JUMPDEST PUSH1 0x0 PUSH1 0x20 DUP3 ADD SWAP1 POP DUP2 DUP2 SUB PUSH1 0x0 DUP4 ADD MSTORE PUSH2 0x1F73 DUP2 DUP5 PUSH2 0x19D9 JUMP JUMPDEST SWAP1 POP SWAP3 SWAP2 POP POP JUMP JUMPDEST PUSH32 0x4E487B7100000000000000000000000000000000000000000000000000000000 PUSH1 0x0 MSTORE PUSH1 0x22 PUSH1 0x4 MSTORE PUSH1 0x24 PUSH1 0x0 REVERT JUMPDEST PUSH1 0x0 PUSH1 0x2 DUP3 DIV SWAP1 POP PUSH1 0x1 DUP3 AND DUP1 PUSH2 0x1FC2 JUMPI PUSH1 0x7F DUP3 AND SWAP2 POP JUMPDEST PUSH1 0x20 DUP3 LT DUP2 SUB PUSH2 0x1FD5 JUMPI PUSH2 0x1FD4 PUSH2 0x1F7B JUMP JUMPDEST JUMPDEST POP SWAP2 SWAP1 POP JUMP JUMPDEST PUSH1 0x0 DUP2 SWAP1 POP SWAP3 SWAP2 POP POP JUMP JUMPDEST PUSH1 0x0 PUSH2 0x1FF1 DUP3 PUSH2 0x1982 JUMP JUMPDEST PUSH2 0x1FFB DUP2 DUP6 PUSH2 0x1FDB JUMP JUMPDEST SWAP4 POP PUSH2 0x200B DUP2 DUP6 PUSH1 0x20 DUP7 ADD PUSH2 0x199E JUMP JUMPDEST DUP1 DUP5 ADD SWAP2 POP POP SWAP3 SWAP2 POP POP JUMP JUMPDEST PUSH1 0x0 PUSH2 0x2023 DUP3 DUP5 PUSH2 0x1FE6 JUMP JUMPDEST SWAP2 POP DUP2 SWAP1 POP SWAP3 SWAP2 POP POP JUMP JUMPDEST PUSH32 0x4E6F7420656E6F7567682062616C616E63650000000000000000000000000000 PUSH1 0x0 DUP3 ADD MSTORE POP JUMP JUMPDEST PUSH1 0x0 PUSH2 0x2064 PUSH1 0x12 DUP4 PUSH2 0x198D JUMP JUMPDEST SWAP2 POP PUSH2 0x206F DUP3 PUSH2 0x202E JUMP JUMPDEST PUSH1 0x20 DUP3 ADD SWAP1 POP SWAP2 SWAP1 POP JUMP JUMPDEST PUSH1 0x0 PUSH1 0x20 DUP3 ADD SWAP1 POP DUP2 DUP2 SUB PUSH1 0x0 DUP4 ADD MSTORE PUSH2 0x2093 DUP2 PUSH2 0x2057 JUMP JUMPDEST SWAP1 POP SWAP2 SWAP1 POP JUMP JUMPDEST PUSH1 0x0 PUSH1 0x40 DUP3 ADD SWAP1 POP PUSH2 0x20AF PUSH1 0x0 DUP4 ADD DUP6 PUSH2 0x1A24 JUMP JUMPDEST PUSH2 0x20BC PUSH1 0x20 DUP4 ADD DUP5 PUSH2 0x1A4C JUMP JUMPDEST SWAP4 SWAP3 POP POP POP JUMP JUMPDEST PUSH2 0x20CC DUP2 PUSH2 0x18B2 JUMP JUMPDEST DUP2 EQ PUSH2 0x20D7 JUMPI PUSH1 0x0 DUP1 REVERT JUMPDEST POP JUMP JUMPDEST PUSH1 0x0 DUP2 MLOAD SWAP1 POP PUSH2 0x20E9 DUP2 PUSH2 0x20C3 JUMP JUMPDEST SWAP3 SWAP2 POP POP JUMP JUMPDEST PUSH1 0x0 PUSH1 0x20 DUP3 DUP5 SUB SLT ISZERO PUSH2 0x2105 JUMPI PUSH2 0x2104 PUSH2 0x1823 JUMP JUMPDEST JUMPDEST PUSH1 0x0 PUSH2 0x2113 DUP5 DUP3 DUP6 ADD PUSH2 0x20DA JUMP JUMPDEST SWAP2 POP POP SWAP3 SWAP2 POP POP JUMP JUMPDEST PUSH32 0x5472616E7366657220746F2075736572206661696C6564000000000000000000 PUSH1 0x0 DUP3 ADD MSTORE POP JUMP JUMPDEST PUSH1 0x0 PUSH2 0x2152 PUSH1 0x17 DUP4 PUSH2 0x198D JUMP JUMPDEST SWAP2 POP PUSH2 0x215D DUP3 PUSH2 0x211C JUMP JUMPDEST PUSH1 0x20 DUP3 ADD SWAP1 POP SWAP2 SWAP1 POP JUMP JUMPDEST PUSH1 0x0 PUSH1 0x20 DUP3 ADD SWAP1 POP DUP2 DUP2 SUB PUSH1 0x0 DUP4 ADD MSTORE PUSH2 0x2181 DUP2 PUSH2 0x2145 JUMP JUMPDEST SWAP1 POP SWAP2 SWAP1 POP JUMP JUMPDEST PUSH32 0x4E487B7100000000000000000000000000000000000000000000000000000000 PUSH1 0x0 MSTORE PUSH1 0x11 PUSH1 0x4 MSTORE PUSH1 0x24 PUSH1 0x0 REVERT JUMPDEST PUSH1 0x0 PUSH2 0x21C2 DUP3 PUSH2 0x1A42 JUMP JUMPDEST SWAP2 POP PUSH2 0x21CD DUP4 PUSH2 0x1A42 JUMP JUMPDEST SWAP3 POP DUP3 DUP3 SUB SWAP1 POP DUP2 DUP2 GT ISZERO PUSH2 0x21E5 JUMPI PUSH2 0x21E4 PUSH2 0x2188 JUMP JUMPDEST JUMPDEST SWAP3 SWAP2 POP POP JUMP JUMPDEST PUSH1 0x0 DUP2 CALLDATALOAD SWAP1 POP PUSH2 0x21FA DUP2 PUSH2 0x20C3 JUMP JUMPDEST SWAP3 SWAP2 POP POP JUMP JUMPDEST PUSH1 0x0 DUP1 PUSH1 0x0 PUSH1 0x60 DUP5 DUP7 SUB SLT ISZERO PUSH2 0x2219 JUMPI PUSH2 0x2218 PUSH2 0x1823 JUMP JUMPDEST JUMPDEST PUSH1 0x0 PUSH2 0x2227 DUP7 DUP3 DUP8 ADD PUSH2 0x21EB JUMP JUMPDEST SWAP4 POP POP PUSH1 0x20 PUSH2 0x2238 DUP7 DUP3 DUP8 ADD PUSH2 0x21EB JUMP JUMPDEST SWAP3 POP POP PUSH1 0x40 PUSH2 0x2249 DUP7 DUP3 DUP8 ADD PUSH2 0x21EB JUMP JUMPDEST SWAP2 POP POP SWAP3 POP SWAP3 POP SWAP3 JUMP JUMPDEST PUSH1 0x0 DUP1 REVERT JUMPDEST PUSH1 0x0 DUP1 REVERT JUMPDEST PUSH1 0x0 DUP1 REVERT JUMPDEST PUSH1 0x0 DUP1 DUP4 CALLDATALOAD PUSH1 0x1 PUSH1 0x20 SUB DUP5 CALLDATASIZE SUB SUB DUP2 SLT PUSH2 0x227F JUMPI PUSH2 0x227E PUSH2 0x2253 JUMP JUMPDEST JUMPDEST DUP1 DUP5 ADD SWAP3 POP DUP3 CALLDATALOAD SWAP2 POP PUSH8 0xFFFFFFFFFFFFFFFF DUP3 GT ISZERO PUSH2 0x22A1 JUMPI PUSH2 0x22A0 PUSH2 0x2258 JUMP JUMPDEST JUMPDEST PUSH1 0x20 DUP4 ADD SWAP3 POP PUSH1 0x1 DUP3 MUL CALLDATASIZE SUB DUP4 SGT ISZERO PUSH2 0x22BD JUMPI PUSH2 0x22BC PUSH2 0x225D JUMP JUMPDEST JUMPDEST POP SWAP3 POP SWAP3 SWAP1 POP JUMP JUMPDEST PUSH1 0x0 PUSH2 0x22D1 DUP4 DUP6 PUSH2 0x1FDB JUMP JUMPDEST SWAP4 POP PUSH2 0x22DE DUP4 DUP6 DUP5 PUSH2 0x1BD1 JUMP JUMPDEST DUP3 DUP5 ADD SWAP1 POP SWAP4 SWAP3 POP POP POP JUMP JUMPDEST PUSH1 0x0 PUSH2 0x22F7 DUP3 DUP5 DUP7 PUSH2 0x22C5 JUMP JUMPDEST SWAP2 POP DUP2 SWAP1 POP SWAP4 SWAP3 POP POP POP JUMP JUMPDEST PUSH1 0x0 DUP3 SWAP1 POP SWAP3 SWAP2 POP POP JUMP JUMPDEST PUSH1 0x0 DUP2 SWAP1 POP DUP2 PUSH1 0x0 MSTORE PUSH1 0x20 PUSH1 0x0 KECCAK256 SWAP1 POP SWAP2 SWAP1 POP JUMP JUMPDEST PUSH1 0x0 PUSH1 0x20 PUSH1 0x1F DUP4 ADD DIV SWAP1 POP SWAP2 SWAP1 POP JUMP JUMPDEST PUSH1 0x0 DUP3 DUP3 SHL SWAP1 POP SWAP3 SWAP2 POP POP JUMP JUMPDEST PUSH1 0x0 PUSH1 0x8 DUP4 MUL PUSH2 0x2370 PUSH32 0xFFFFFFFFFFFFFFFFFFFFFFFFFFFFFFFFFFFFFFFFFFFFFFFFFFFFFFFFFFFFFFFF DUP3 PUSH2 0x2333 JUMP JUMPDEST PUSH2 0x237A DUP7 DUP4 PUSH2 0x2333 JUMP JUMPDEST SWAP6 POP DUP1 NOT DUP5 AND SWAP4 POP DUP1 DUP7 AND DUP5 OR SWAP3 POP POP POP SWAP4 SWAP3 POP POP POP JUMP JUMPDEST PUSH1 0x0 PUSH2 0x23AD PUSH2 0x23A8 PUSH2 0x23A3 DUP5 PUSH2 0x1A42 JUMP JUMPDEST PUSH2 0x1908 JUMP JUMPDEST PUSH2 0x1A42 JUMP JUMPDEST SWAP1 POP SWAP2 SWAP1 POP JUMP JUMPDEST PUSH1 0x0 DUP2 SWAP1 POP SWAP2 SWAP1 POP JUMP JUMPDEST PUSH2 0x23C7 DUP4 PUSH2 0x2392 JUMP JUMPDEST PUSH2 0x23DB PUSH2 0x23D3 DUP3 PUSH2 0x23B4 JUMP JUMPDEST DUP5 DUP5 SLOAD PUSH2 0x2340 JUMP JUMPDEST DUP3 SSTORE POP POP POP POP JUMP JUMPDEST PUSH1 0x0 SWAP1 JUMP JUMPDEST PUSH2 0x23F0 PUSH2 0x23E3 JUMP JUMPDEST PUSH2 0x23FB DUP2 DUP5 DUP5 PUSH2 0x23BE JUMP JUMPDEST POP POP POP JUMP JUMPDEST JUMPDEST DUP2 DUP2 LT ISZERO PUSH2 0x241F JUMPI PUSH2 0x2414 PUSH1 0x0 DUP3 PUSH2 0x23E8 JUMP JUMPDEST PUSH1 0x1 DUP2 ADD SWAP1 POP PUSH2 0x2401 JUMP JUMPDEST POP POP JUMP JUMPDEST PUSH1 0x1F DUP3 GT ISZERO PUSH2 0x2464 JUMPI PUSH2 0x2435 DUP2 PUSH2 0x230E JUMP JUMPDEST PUSH2 0x243E DUP5 PUSH2 0x2323 JUMP JUMPDEST DUP2 ADD PUSH1 0x20 DUP6 LT ISZERO PUSH2 0x244D JUMPI DUP2 SWAP1 POP JUMPDEST PUSH2 0x2461 PUSH2 0x2459 DUP6 PUSH2 0x2323 JUMP JUMPDEST DUP4 ADD DUP3 PUSH2 0x2400 JUMP JUMPDEST POP POP JUMPDEST POP POP POP JUMP JUMPDEST PUSH1 0x0 DUP3 DUP3 SHR SWAP1 POP SWAP3 SWAP2 POP POP JUMP JUMPDEST PUSH1 0x0 PUSH2 0x2487 PUSH1 0x0 NOT DUP5 PUSH1 0x8 MUL PUSH2 0x2469 JUMP JUMPDEST NOT DUP1 DUP4 AND SWAP2 POP POP SWAP3 SWAP2 POP POP JUMP JUMPDEST PUSH1 0x0 PUSH2 0x24A0 DUP4 DUP4 PUSH2 0x2476 JUMP JUMPDEST SWAP2 POP DUP3 PUSH1 0x2 MUL DUP3 OR SWAP1 POP SWAP3 SWAP2 POP POP JUMP JUMPDEST PUSH2 0x24BA DUP4 DUP4 PUSH2 0x2303 JUMP JUMPDEST PUSH8 0xFFFFFFFFFFFFFFFF DUP2 GT ISZERO PUSH2 0x24D3 JUMPI PUSH2 0x24D2 PUSH2 0x1B25 JUMP JUMPDEST JUMPDEST PUSH2 0x24DD DUP3 SLOAD PUSH2 0x1FAA JUMP JUMPDEST PUSH2 0x24E8 DUP3 DUP3 DUP6 PUSH2 0x2423 JUMP JUMPDEST PUSH1 0x0 PUSH1 0x1F DUP4 GT PUSH1 0x1 DUP2 EQ PUSH2 0x2517 JUMPI PUSH1 0x0 DUP5 ISZERO PUSH2 0x2505 JUMPI DUP3 DUP8 ADD CALLDATALOAD SWAP1 POP JUMPDEST PUSH2 0x250F DUP6 DUP3 PUSH2 0x2494 JUMP JUMPDEST DUP7 SSTORE POP PUSH2 0x2577 JUMP JUMPDEST PUSH1 0x1F NOT DUP5 AND PUSH2 0x2525 DUP7 PUSH2 0x230E JUMP JUMPDEST PUSH1 0x0 JUMPDEST DUP3 DUP2 LT ISZERO PUSH2 0x254D JUMPI DUP5 DUP10 ADD CALLDATALOAD DUP3 SSTORE PUSH1 0x1 DUP3 ADD SWAP2 POP PUSH1 0x20 DUP6 ADD SWAP5 POP PUSH1 0x20 DUP2 ADD SWAP1 POP PUSH2 0x2528 JUMP JUMPDEST DUP7 DUP4 LT ISZERO PUSH2 0x256A JUMPI DUP5 DUP10 ADD CALLDATALOAD PUSH2 0x2566 PUSH1 0x1F DUP10 AND DUP3 PUSH2 0x2476 JUMP JUMPDEST DUP4 SSTORE POP JUMPDEST PUSH1 0x1 PUSH1 0x2 DUP9 MUL ADD DUP9 SSTORE POP POP POP JUMPDEST POP POP POP POP POP POP POP JUMP JUMPDEST PUSH1 0x0 PUSH2 0x258C DUP4 DUP6 PUSH2 0x198D JUMP JUMPDEST SWAP4 POP PUSH2 0x2599 DUP4 DUP6 DUP5 PUSH2 0x1BD1 JUMP JUMPDEST PUSH2 0x25A2 DUP4 PUSH2 0x19C8 JUMP JUMPDEST DUP5 ADD SWAP1 POP SWAP4 SWAP3 POP POP POP JUMP JUMPDEST PUSH1 0x0 PUSH1 0x80 DUP3 ADD SWAP1 POP DUP2 DUP2 SUB PUSH1 0x0 DUP4 ADD MSTORE PUSH2 0x25C8 DUP2 DUP8 DUP10 PUSH2 0x2580 JUMP JUMPDEST SWAP1 POP PUSH2 0x25D7 PUSH1 0x20 DUP4 ADD DUP7 PUSH2 0x1A24 JUMP JUMPDEST PUSH2 0x25E4 PUSH1 0x40 DUP4 ADD DUP6 PUSH2 0x1A33 JUMP JUMPDEST PUSH2 0x25F1 PUSH1 0x60 DUP4 ADD DUP5 PUSH2 0x1A4C JUMP JUMPDEST SWAP7 SWAP6 POP POP POP POP POP POP JUMP JUMPDEST PUSH1 0x0 PUSH1 0x40 DUP3 ADD SWAP1 POP DUP2 DUP2 SUB PUSH1 0x0 DUP4 ADD MSTORE PUSH2 0x2616 DUP2 DUP6 DUP8 PUSH2 0x2580 JUMP JUMPDEST SWAP1 POP PUSH2 0x2625 PUSH1 0x20 DUP4 ADD DUP5 PUSH2 0x1A4C JUMP JUMPDEST SWAP5 SWAP4 POP POP POP POP JUMP JUMPDEST PUSH2 0x2638 DUP4 DUP4 DUP4 PUSH2 0x24B0 JUMP JUMPDEST POP POP POP JUMP JUMPDEST PUSH1 0x0 DUP2 CALLDATALOAD PUSH2 0x264A DUP2 PUSH2 0x1AA7 JUMP JUMPDEST DUP1 SWAP2 POP POP SWAP2 SWAP1 POP JUMP JUMPDEST PUSH1 0x0 DUP2 PUSH1 0x0 SHL SWAP1 POP SWAP2 SWAP1 POP JUMP JUMPDEST PUSH1 0x0 PUSH20 0xFFFFFFFFFFFFFFFFFFFFFFFFFFFFFFFFFFFFFFFF PUSH2 0x2680 DUP5 PUSH2 0x2653 JUMP JUMPDEST SWAP4 POP DUP1 NOT DUP4 AND SWAP3 POP DUP1 DUP5 AND DUP4 OR SWAP2 POP POP SWAP3 SWAP2 POP POP JUMP JUMPDEST PUSH1 0x0 PUSH2 0x26A1 DUP3 PUSH2 0x1934 JUMP JUMPDEST SWAP1 POP SWAP2 SWAP1 POP JUMP JUMPDEST PUSH1 0x0 DUP2 SWAP1 POP SWAP2 SWAP1 POP JUMP JUMPDEST PUSH2 0x26BB DUP3 PUSH2 0x2696 JUMP JUMPDEST PUSH2 0x26CE PUSH2 0x26C7 DUP3 PUSH2 0x26A8 JUMP JUMPDEST DUP4 SLOAD PUSH2 0x2660 JUMP JUMPDEST DUP3 SSTORE POP POP POP JUMP JUMPDEST PUSH1 0x0 DUP2 CALLDATALOAD PUSH2 0x26E2 DUP2 PUSH2 0x1859 JUMP JUMPDEST DUP1 SWAP2 POP POP SWAP2 SWAP1 POP JUMP JUMPDEST PUSH1 0x0 DUP2 PUSH1 0xA0 SHL SWAP1 POP SWAP2 SWAP1 POP JUMP JUMPDEST PUSH1 0x0 PUSH24 0xFFFFFFFF0000000000000000000000000000000000000000 PUSH2 0x271C DUP5 PUSH2 0x26EB JUMP JUMPDEST SWAP4 POP DUP1 NOT DUP4 AND SWAP3 POP DUP1 DUP5 AND DUP4 OR SWAP2 POP POP SWAP3 SWAP2 POP POP JUMP JUMPDEST PUSH1 0x0 PUSH2 0x273D DUP3 PUSH2 0x182D JUMP JUMPDEST SWAP1 POP SWAP2 SWAP1 POP JUMP JUMPDEST PUSH1 0x0 DUP2 PUSH1 0xE0 SHR SWAP1 POP SWAP2 SWAP1 POP JUMP JUMPDEST PUSH1 0x0 PUSH2 0x275C DUP3 PUSH2 0x2744 JUMP JUMPDEST SWAP1 POP SWAP2 SWAP1 POP JUMP JUMPDEST PUSH2 0x276C DUP3 PUSH2 0x2732 JUMP JUMPDEST PUSH2 0x277F PUSH2 0x2778 DUP3 PUSH2 0x2751 JUMP JUMPDEST DUP4 SLOAD PUSH2 0x26F8 JUMP JUMPDEST DUP3 SSTORE POP POP POP JUMP JUMPDEST PUSH1 0x0 DUP2 CALLDATALOAD PUSH2 0x2793 DUP2 PUSH2 0x1CDE JUMP JUMPDEST DUP1 SWAP2 POP POP SWAP2 SWAP1 POP JUMP JUMPDEST PUSH1 0x0 PUSH32 0xFFFFFFFFFFFFFFFFFFFFFFFFFFFFFFFFFFFFFFFFFFFFFFFFFFFFFFFFFFFFFFFF PUSH2 0x27C8 DUP5 PUSH2 0x2653 JUMP JUMPDEST SWAP4 POP DUP1 NOT DUP4 AND SWAP3 POP DUP1 DUP5 AND DUP4 OR SWAP2 POP POP SWAP3 SWAP2 POP POP JUMP JUMPDEST PUSH2 0x27E7 DUP3 PUSH2 0x2392 JUMP JUMPDEST PUSH2 0x27FA PUSH2 0x27F3 DUP3 PUSH2 0x23B4 JUMP JUMPDEST DUP4 SLOAD PUSH2 0x279C JUMP JUMPDEST DUP3 SSTORE POP POP POP JUMP JUMPDEST PUSH1 0x0 DUP2 ADD PUSH1 0x0 DUP4 ADD PUSH2 0x2813 DUP2 DUP6 PUSH2 0x2262 JUMP JUMPDEST PUSH2 0x281E DUP2 DUP4 DUP7 PUSH2 0x262D JUMP JUMPDEST POP POP POP POP PUSH1 0x1 DUP2 ADD PUSH1 0x20 DUP4 ADD DUP1 PUSH2 0x2834 DUP2 PUSH2 0x263D JUMP JUMPDEST SWAP1 POP PUSH2 0x2840 DUP2 DUP5 PUSH2 0x26B2 JUMP JUMPDEST POP POP POP PUSH1 0x1 DUP2 ADD PUSH1 0x40 DUP4 ADD DUP1 PUSH2 0x2855 DUP2 PUSH2 0x26D5 JUMP JUMPDEST SWAP1 POP PUSH2 0x2861 DUP2 DUP5 PUSH2 0x2763 JUMP JUMPDEST POP POP POP PUSH1 0x2 DUP2 ADD PUSH1 0x60 DUP4 ADD DUP1 PUSH2 0x2876 DUP2 PUSH2 0x2786 JUMP JUMPDEST SWAP1 POP PUSH2 0x2882 DUP2 DUP5 PUSH2 0x27DE JUMP JUMPDEST POP POP POP POP POP JUMP JUMPDEST PUSH2 0x2893 DUP3 DUP3 PUSH2 0x2801 JUMP JUMPDEST POP POP JUMP JUMPDEST PUSH1 0x0 DUP2 MLOAD SWAP1 POP PUSH2 0x28A6 DUP2 PUSH2 0x1CDE JUMP JUMPDEST SWAP3 SWAP2 POP POP JUMP JUMPDEST PUSH1 0x0 PUSH1 0x20 DUP3 DUP5 SUB SLT ISZERO PUSH2 0x28C2 JUMPI PUSH2 0x28C1 PUSH2 0x1823 JUMP JUMPDEST JUMPDEST PUSH1 0x0 PUSH2 0x28D0 DUP5 DUP3 DUP6 ADD PUSH2 0x2897 JUMP JUMPDEST SWAP2 POP POP SWAP3 SWAP2 POP POP JUMP JUMPDEST PUSH1 0x0 PUSH2 0x28E4 DUP3 PUSH2 0x1A42 JUMP JUMPDEST SWAP2 POP PUSH2 0x28EF DUP4 PUSH2 0x1A42 JUMP JUMPDEST SWAP3 POP DUP3 DUP3 ADD SWAP1 POP DUP1 DUP3 GT ISZERO PUSH2 0x2907 JUMPI PUSH2 0x2906 PUSH2 0x2188 JUMP JUMPDEST JUMPDEST SWAP3 SWAP2 POP POP JUMP JUMPDEST PUSH1 0x0 PUSH1 0x60 DUP3 ADD SWAP1 POP PUSH2 0x2922 PUSH1 0x0 DUP4 ADD DUP7 PUSH2 0x18BE JUMP JUMPDEST PUSH2 0x292F PUSH1 0x20 DUP4 ADD DUP6 PUSH2 0x18BE JUMP JUMPDEST PUSH2 0x293C PUSH1 0x40 DUP4 ADD DUP5 PUSH2 0x18BE JUMP JUMPDEST SWAP5 SWAP4 POP POP POP POP JUMP JUMPDEST PUSH1 0x0 DUP1 REVERT JUMPDEST PUSH1 0x0 DUP1 REVERT JUMPDEST PUSH1 0x0 DUP2 SWAP1 POP SWAP2 SWAP1 POP JUMP JUMPDEST PUSH2 0x2961 DUP2 PUSH2 0x294E JUMP JUMPDEST DUP2 EQ PUSH2 0x296C JUMPI PUSH1 0x0 DUP1 REVERT JUMPDEST POP JUMP JUMPDEST PUSH1 0x0 DUP2 CALLDATALOAD SWAP1 POP PUSH2 0x297E DUP2 PUSH2 0x2958 JUMP JUMPDEST SWAP3 SWAP2 POP POP JUMP JUMPDEST PUSH1 0x0 PUSH8 0xFFFFFFFFFFFFFFFF DUP3 AND SWAP1 POP SWAP2 SWAP1 POP JUMP JUMPDEST PUSH2 0x29A1 DUP2 PUSH2 0x2984 JUMP JUMPDEST DUP2 EQ PUSH2 0x29AC JUMPI PUSH1 0x0 DUP1 REVERT JUMPDEST POP JUMP JUMPDEST PUSH1 0x0 DUP2 CALLDATALOAD SWAP1 POP PUSH2 0x29BE DUP2 PUSH2 0x2998 JUMP JUMPDEST SWAP3 SWAP2 POP POP JUMP JUMPDEST PUSH1 0x0 PUSH8 0xFFFFFFFFFFFFFFFF DUP3 GT ISZERO PUSH2 0x29DF JUMPI PUSH2 0x29DE PUSH2 0x1B25 JUMP JUMPDEST JUMPDEST PUSH2 0x29E8 DUP3 PUSH2 0x19C8 JUMP JUMPDEST SWAP1 POP PUSH1 0x20 DUP2 ADD SWAP1 POP SWAP2 SWAP1 POP JUMP JUMPDEST PUSH1 0x0 PUSH2 0x2A08 PUSH2 0x2A03 DUP5 PUSH2 0x29C4 JUMP JUMPDEST PUSH2 0x1B85 JUMP JUMPDEST SWAP1 POP DUP3 DUP2 MSTORE PUSH1 0x20 DUP2 ADD DUP5 DUP5 DUP5 ADD GT ISZERO PUSH2 0x2A24 JUMPI PUSH2 0x2A23 PUSH2 0x1B20 JUMP JUMPDEST JUMPDEST PUSH2 0x2A2F DUP5 DUP3 DUP6 PUSH2 0x1BD1 JUMP JUMPDEST POP SWAP4 SWAP3 POP POP POP JUMP JUMPDEST PUSH1 0x0 DUP3 PUSH1 0x1F DUP4 ADD SLT PUSH2 0x2A4C JUMPI PUSH2 0x2A4B PUSH2 0x1B1B JUMP JUMPDEST JUMPDEST DUP2 CALLDATALOAD PUSH2 0x2A5C DUP5 DUP3 PUSH1 0x20 DUP7 ADD PUSH2 0x29F5 JUMP JUMPDEST SWAP2 POP POP SWAP3 SWAP2 POP POP JUMP JUMPDEST PUSH1 0x0 PUSH8 0xFFFFFFFFFFFFFFFF DUP3 GT ISZERO PUSH2 0x2A80 JUMPI PUSH2 0x2A7F PUSH2 0x1B25 JUMP JUMPDEST JUMPDEST PUSH1 0x20 DUP3 MUL SWAP1 POP PUSH1 0x20 DUP2 ADD SWAP1 POP SWAP2 SWAP1 POP JUMP JUMPDEST PUSH1 0x0 PUSH1 0x40 DUP3 DUP5 SUB SLT ISZERO PUSH2 0x2AA7 JUMPI PUSH2 0x2AA6 PUSH2 0x2944 JUMP JUMPDEST JUMPDEST PUSH2 0x2AB1 PUSH1 0x40 PUSH2 0x1B85 JUMP JUMPDEST SWAP1 POP PUSH1 0x0 PUSH2 0x2AC1 DUP5 DUP3 DUP6 ADD PUSH2 0x1ABE JUMP JUMPDEST PUSH1 0x0 DUP4 ADD MSTORE POP PUSH1 0x20 PUSH2 0x2AD5 DUP5 DUP3 DUP6 ADD PUSH2 0x1CF5 JUMP JUMPDEST PUSH1 0x20 DUP4 ADD MSTORE POP SWAP3 SWAP2 POP POP JUMP JUMPDEST PUSH1 0x0 PUSH2 0x2AF4 PUSH2 0x2AEF DUP5 PUSH2 0x2A65 JUMP JUMPDEST PUSH2 0x1B85 JUMP JUMPDEST SWAP1 POP DUP1 DUP4 DUP3 MSTORE PUSH1 0x20 DUP3 ADD SWAP1 POP PUSH1 0x40 DUP5 MUL DUP4 ADD DUP6 DUP2 GT ISZERO PUSH2 0x2B17 JUMPI PUSH2 0x2B16 PUSH2 0x1D3C JUMP JUMPDEST JUMPDEST DUP4 JUMPDEST DUP2 DUP2 LT ISZERO PUSH2 0x2B40 JUMPI DUP1 PUSH2 0x2B2C DUP9 DUP3 PUSH2 0x2A91 JUMP JUMPDEST DUP5 MSTORE PUSH1 0x20 DUP5 ADD SWAP4 POP POP PUSH1 0x40 DUP2 ADD SWAP1 POP PUSH2 0x2B19 JUMP JUMPDEST POP POP POP SWAP4 SWAP3 POP POP POP JUMP JUMPDEST PUSH1 0x0 DUP3 PUSH1 0x1F DUP4 ADD SLT PUSH2 0x2B5F JUMPI PUSH2 0x2B5E PUSH2 0x1B1B JUMP JUMPDEST JUMPDEST DUP2 CALLDATALOAD PUSH2 0x2B6F DUP5 DUP3 PUSH1 0x20 DUP7 ADD PUSH2 0x2AE1 JUMP JUMPDEST SWAP2 POP POP SWAP3 SWAP2 POP POP JUMP JUMPDEST PUSH1 0x0 PUSH1 0xA0 DUP3 DUP5 SUB SLT ISZERO PUSH2 0x2B8E JUMPI PUSH2 0x2B8D PUSH2 0x2944 JUMP JUMPDEST JUMPDEST PUSH2 0x2B98 PUSH1 0xA0 PUSH2 0x1B85 JUMP JUMPDEST SWAP1 POP PUSH1 0x0 PUSH2 0x2BA8 DUP5 DUP3 DUP6 ADD PUSH2 0x296F JUMP JUMPDEST PUSH1 0x0 DUP4 ADD MSTORE POP PUSH1 0x20 PUSH2 0x2BBC DUP5 DUP3 DUP6 ADD PUSH2 0x29AF JUMP JUMPDEST PUSH1 0x20 DUP4 ADD MSTORE POP PUSH1 0x40 DUP3 ADD CALLDATALOAD PUSH8 0xFFFFFFFFFFFFFFFF DUP2 GT ISZERO PUSH2 0x2BE0 JUMPI PUSH2 0x2BDF PUSH2 0x2949 JUMP JUMPDEST JUMPDEST PUSH2 0x2BEC DUP5 DUP3 DUP6 ADD PUSH2 0x2A37 JUMP JUMPDEST PUSH1 0x40 DUP4 ADD MSTORE POP PUSH1 0x60 DUP3 ADD CALLDATALOAD PUSH8 0xFFFFFFFFFFFFFFFF DUP2 GT ISZERO PUSH2 0x2C10 JUMPI PUSH2 0x2C0F PUSH2 0x2949 JUMP JUMPDEST JUMPDEST PUSH2 0x2C1C DUP5 DUP3 DUP6 ADD PUSH2 0x2A37 JUMP JUMPDEST PUSH1 0x60 DUP4 ADD MSTORE POP PUSH1 0x80 DUP3 ADD CALLDATALOAD PUSH8 0xFFFFFFFFFFFFFFFF DUP2 GT ISZERO PUSH2 0x2C40 JUMPI PUSH2 0x2C3F PUSH2 0x2949 JUMP JUMPDEST JUMPDEST PUSH2 0x2C4C DUP5 DUP3 DUP6 ADD PUSH2 0x2B4A JUMP JUMPDEST PUSH1 0x80 DUP4 ADD MSTORE POP SWAP3 SWAP2 POP POP JUMP JUMPDEST PUSH1 0x0 PUSH2 0x2C64 CALLDATASIZE DUP4 PUSH2 0x2B78 JUMP JUMPDEST SWAP1 POP SWAP2 SWAP1 POP JUMP JUMPDEST PUSH32 0x5374726174656779204E6F742052656769737465726564000000000000000000 PUSH1 0x0 DUP3 ADD MSTORE POP JUMP JUMPDEST PUSH1 0x0 PUSH2 0x2CA1 PUSH1 0x17 DUP4 PUSH2 0x198D JUMP JUMPDEST SWAP2 POP PUSH2 0x2CAC DUP3 PUSH2 0x2C6B JUMP JUMPDEST PUSH1 0x20 DUP3 ADD SWAP1 POP SWAP2 SWAP1 POP JUMP JUMPDEST PUSH1 0x0 PUSH1 0x20 DUP3 ADD SWAP1 POP DUP2 DUP2 SUB PUSH1 0x0 DUP4 ADD MSTORE PUSH2 0x2CD0 DUP2 PUSH2 0x2C94 JUMP JUMPDEST SWAP1 POP SWAP2 SWAP1 POP JUMP JUMPDEST PUSH32 0x4E6F205553444320726563656976656400000000000000000000000000000000 PUSH1 0x0 DUP3 ADD MSTORE POP JUMP JUMPDEST PUSH1 0x0 PUSH2 0x2D0D PUSH1 0x10 DUP4 PUSH2 0x198D JUMP JUMPDEST SWAP2 POP PUSH2 0x2D18 DUP3 PUSH2 0x2CD7 JUMP JUMPDEST PUSH1 0x20 DUP3 ADD SWAP1 POP SWAP2 SWAP1 POP JUMP JUMPDEST PUSH1 0x0 PUSH1 0x20 DUP3 ADD SWAP1 POP DUP2 DUP2 SUB PUSH1 0x0 DUP4 ADD MSTORE PUSH2 0x2D3C DUP2 PUSH2 0x2D00 JUMP JUMPDEST SWAP1 POP SWAP2 SWAP1 POP JUMP JUMPDEST PUSH1 0x0 DUP2 SWAP1 POP SWAP2 SWAP1 POP JUMP JUMPDEST PUSH1 0x0 PUSH1 0xFF DUP3 AND SWAP1 POP SWAP2 SWAP1 POP JUMP JUMPDEST PUSH1 0x0 PUSH2 0x2D75 PUSH2 0x2D70 PUSH2 0x2D6B DUP5 PUSH2 0x2D43 JUMP JUMPDEST PUSH2 0x1908 JUMP JUMPDEST PUSH2 0x2D4D JUMP JUMPDEST SWAP1 POP SWAP2 SWAP1 POP JUMP JUMPDEST PUSH2 0x2D85 DUP2 PUSH2 0x2D5A JUMP JUMPDEST DUP3 MSTORE POP POP JUMP JUMPDEST PUSH1 0x0 PUSH1 0x80 DUP3 ADD SWAP1 POP PUSH2 0x2DA0 PUSH1 0x0 DUP4 ADD DUP8 PUSH2 0x1A24 JUMP JUMPDEST PUSH2 0x2DAD PUSH1 0x20 DUP4 ADD DUP7 PUSH2 0x1A4C JUMP JUMPDEST PUSH2 0x2DBA PUSH1 0x40 DUP4 ADD DUP6 PUSH2 0x1A24 JUMP JUMPDEST PUSH2 0x2DC7 PUSH1 0x60 DUP4 ADD DUP5 PUSH2 0x2D7C JUMP JUMPDEST SWAP6 SWAP5 POP POP POP POP POP JUMP JUMPDEST PUSH1 0x0 DUP2 SWAP1 POP SWAP3 SWAP2 POP POP JUMP JUMPDEST PUSH1 0x0 PUSH2 0x2DE6 DUP3 PUSH2 0x1E6C JUMP JUMPDEST PUSH2 0x2DF0 DUP2 DUP6 PUSH2 0x2DD0 JUMP JUMPDEST SWAP4 POP PUSH2 0x2E00 DUP2 DUP6 PUSH1 0x20 DUP7 ADD PUSH2 0x199E JUMP JUMPDEST DUP1 DUP5 ADD SWAP2 POP POP SWAP3 SWAP2 POP POP JUMP JUMPDEST PUSH1 0x0 PUSH2 0x2E18 DUP3 DUP5 PUSH2 0x2DDB JUMP JUMPDEST SWAP2 POP DUP2 SWAP1 POP SWAP3 SWAP2 POP POP JUMP JUMPDEST PUSH32 0x4465706F7369742063616C6C206661696C656400000000000000000000000000 PUSH1 0x0 DUP3 ADD MSTORE POP JUMP JUMPDEST PUSH1 0x0 PUSH2 0x2E59 PUSH1 0x13 DUP4 PUSH2 0x198D JUMP JUMPDEST SWAP2 POP PUSH2 0x2E64 DUP3 PUSH2 0x2E23 JUMP JUMPDEST PUSH1 0x20 DUP3 ADD SWAP1 POP SWAP2 SWAP1 POP JUMP JUMPDEST PUSH1 0x0 PUSH1 0x20 DUP3 ADD SWAP1 POP DUP2 DUP2 SUB PUSH1 0x0 DUP4 ADD MSTORE PUSH2 0x2E88 DUP2 PUSH2 0x2E4C JUMP JUMPDEST SWAP1 POP SWAP2 SWAP1 POP JUMP JUMPDEST PUSH1 0x0 PUSH2 0x2EA2 PUSH2 0x2E9D DUP5 PUSH2 0x1BA0 JUMP JUMPDEST PUSH2 0x1B85 JUMP JUMPDEST SWAP1 POP DUP3 DUP2 MSTORE PUSH1 0x20 DUP2 ADD DUP5 DUP5 DUP5 ADD GT ISZERO PUSH2 0x2EBE JUMPI PUSH2 0x2EBD PUSH2 0x1B20 JUMP JUMPDEST JUMPDEST PUSH2 0x2EC9 DUP5 DUP3 DUP6 PUSH2 0x199E JUMP JUMPDEST POP SWAP4 SWAP3 POP POP POP JUMP JUMPDEST PUSH1 0x0 DUP3 PUSH1 0x1F DUP4 ADD SLT PUSH2 0x2EE6 JUMPI PUSH2 0x2EE5 PUSH2 0x1B1B JUMP JUMPDEST JUMPDEST DUP2 MLOAD PUSH2 0x2EF6 DUP5 DUP3 PUSH1 0x20 DUP7 ADD PUSH2 0x2E8F JUMP JUMPDEST SWAP2 POP POP SWAP3 SWAP2 POP POP JUMP JUMPDEST PUSH1 0x0 PUSH1 0x20 DUP3 DUP5 SUB SLT ISZERO PUSH2 0x2F15 JUMPI PUSH2 0x2F14 PUSH2 0x1823 JUMP JUMPDEST JUMPDEST PUSH1 0x0 DUP3 ADD MLOAD PUSH8 0xFFFFFFFFFFFFFFFF DUP2 GT ISZERO PUSH2 0x2F33 JUMPI PUSH2 0x2F32 PUSH2 0x1828 JUMP JUMPDEST JUMPDEST PUSH2 0x2F3F DUP5 DUP3 DUP6 ADD PUSH2 0x2ED1 JUMP JUMPDEST SWAP2 POP POP SWAP3 SWAP2 POP POP JUMP JUMPDEST PUSH1 0x0 PUSH1 0x60 DUP3 ADD SWAP1 POP DUP2 DUP2 SUB PUSH1 0x0 DUP4 ADD MSTORE PUSH2 0x2F62 DUP2 DUP7 PUSH2 0x19D9 JUMP JUMPDEST SWAP1 POP PUSH2 0x2F71 PUSH1 0x20 DUP4 ADD DUP6 PUSH2 0x1A24 JUMP JUMPDEST PUSH2 0x2F7E PUSH1 0x40 DUP4 ADD DUP5 PUSH2 0x1A4C JUMP JUMPDEST SWAP5 SWAP4 POP POP POP POP JUMP JUMPDEST PUSH32 0x4E487B7100000000000000000000000000000000000000000000000000000000 PUSH1 0x0 MSTORE PUSH1 0x32 PUSH1 0x4 MSTORE PUSH1 0x24 PUSH1 0x0 REVERT JUMPDEST PUSH1 0x0 PUSH2 0x2FC0 DUP3 PUSH2 0x18E8 JUMP JUMPDEST SWAP1 POP SWAP2 SWAP1 POP JUMP JUMPDEST PUSH2 0x2FD0 DUP2 PUSH2 0x2FB5 JUMP JUMPDEST DUP2 EQ PUSH2 0x2FDB JUMPI PUSH1 0x0 DUP1 REVERT JUMPDEST POP JUMP JUMPDEST PUSH1 0x0 DUP2 MLOAD SWAP1 POP PUSH2 0x2FED DUP2 PUSH2 0x2FC7 JUMP JUMPDEST SWAP3 SWAP2 POP POP JUMP JUMPDEST PUSH1 0x0 DUP1 PUSH1 0x0 PUSH1 0x60 DUP5 DUP7 SUB SLT ISZERO PUSH2 0x300C JUMPI PUSH2 0x300B PUSH2 0x1823 JUMP JUMPDEST JUMPDEST PUSH1 0x0 PUSH2 0x301A DUP7 DUP3 DUP8 ADD PUSH2 0x2FDE JUMP JUMPDEST SWAP4 POP POP PUSH1 0x20 PUSH2 0x302B DUP7 DUP3 DUP8 ADD PUSH2 0x2897 JUMP JUMPDEST SWAP3 POP POP PUSH1 0x40 DUP5 ADD MLOAD PUSH8 0xFFFFFFFFFFFFFFFF DUP2 GT ISZERO PUSH2 0x304C JUMPI PUSH2 0x304B PUSH2 0x1828 JUMP JUMPDEST JUMPDEST PUSH2 0x3058 DUP7 DUP3 DUP8 ADD PUSH2 0x2ED1 JUMP JUMPDEST SWAP2 POP POP SWAP3 POP SWAP3 POP SWAP3 JUMP JUMPDEST PUSH1 0x0 PUSH1 0x60 DUP3 ADD SWAP1 POP PUSH2 0x3077 PUSH1 0x0 DUP4 ADD DUP7 PUSH2 0x1A24 JUMP JUMPDEST PUSH2 0x3084 PUSH1 0x20 DUP4 ADD DUP6 PUSH2 0x1A4C JUMP JUMPDEST DUP2 DUP2 SUB PUSH1 0x40 DUP4 ADD MSTORE PUSH2 0x3096 DUP2 DUP5 PUSH2 0x19D9 JUMP JUMPDEST SWAP1 POP SWAP5 SWAP4 POP POP POP POP JUMP INVALID LOG2 PUSH5 0x6970667358 0x22 SLT KECCAK256 0xFC 0xD8 0xA6 SWAP12 0xA7 0xC8 0xEA DIV PUSH18 0xB0BA2A5100EDFFFB4060F5356F7B9E54BFB7 0xEA 0x28 0xAD 0xB5 GAS PUSH5 0x736F6C6343 STOP ADDMOD SHR STOP CALLER "
        },
        "methodIdentifiers": {
          "autoDepositToStrategy(string)": "c231bcf3",
          "bestYield()": "1c4a76c6",
          "ccipReceive((bytes32,uint64,bytes,bytes,(address,uint256)[]))": "85572ffb",
          "checkUpkeep(bytes)": "6e04ff0d",
          "getHighestApyStrategy()": "c7c36538",
          "getRouter()": "b0f479a1",
          "getStrategy(string)": "26f9dd1e",
          "getUserBalance(address)": "47734892",
          "lastUpdated()": "d0b06f5d",
          "manualWithdraw(uint256)": "377c58bf",
          "performUpkeep(bytes)": "4585e33b",
          "senderContract()": "67f235ea",
          "strategies(string)": "780f1acd",
          "strategyList(uint256)": "a267526b",
          "supportsInterface(bytes4)": "01ffc9a7",
          "updateBestStrategy((string,address,bytes4,uint256))": "47b3b205",
          "updateInterval()": "fd2c80ae",
          "usdcToken()": "11eac855",
          "userBalances(address)": "26224c64"
        }
      }
    }
  }
}